:020000040800F2
:10000000000008240115000851150008CD0400085F
:100010005115000851150008511500080000000096
:100020000000000000000000000000005115000862
:100030005115000800000000511500085115000876
:1000400051150008511500085115000851150008F8
:1000500051150008511500085115000851150008E8
:1000600051150008511500085115000851150008D8
:1000700051150008511500085115000851150008C8
:1000800051150008511500085115000851150008B8
:1000900051150008511500085115000851150008A8
:1000A0005115000851150008511500085115000898
:1000B0005115000851150008511500085115000888
:1000C0005115000851150008511500085115000878
:1000D0005115000851150008511500085115000868
:1000E00051150008511500080000000051150008C6
:1000F0005115000851150008511500085115000848
:100100005115000851150008511500085115000837
:100110005115000851150008511500085115000827
:100120005115000851150008511500085115000817
:100130005115000851150008511500085115000807
:1001400000000000000000000000000000000000AF
:1001500051150008511500085115000851150008E7
:1001600051150008511500085115000851150008D7
:1001700051150008511500085115000851150008C7
:100180005115000800000000511500085115000825
:1001900051150008511500085115000851150008A7
:1001A0005115000851150008511500085115000897
:1001B0005115000851150008511500085115000887
:1001C0005115000851150008511500085115000877
:1001D0005115000851150008511500085115000867
:1001E0005115000851150008511500085115000857
:1001F0005115000851150008511500085115000847
:100200005115000851150008511500085115000836
:100210005115000851150008511500085115000826
:100220005115000851150008511500080000000084
:100230005115000851150008000000005115000874
:1002400051150008511500085115000851150008F6
:1002500051150008511500085115000851150008E6
:1002600051150008511500085115000851150008D6
:1002700051150008511500085115000851150008C6
:100280005115000800000000511500080000000092
:080290000000000051150008F8
:1002980010B5054C237833B9044B13B10448AFF3B8
:1002A80000800123237010BD7000002400000000AE
:1002B800F81A000808B5034B1BB103490348AFF30C
:1002C800008008BD0000000074000024F81A00082F
:1002D800A3F5803A704700BF174B002B08BF134B9C
:1002E8009D46FFF7F5FF00218B460F461348144A39
:1002F800121A01F063F90E4B002B00D098470D4BF2
:10030800002B00D098470020002104000D000D4864
:10031800002802D00C48AFF3008001F02BF9200030
:10032800290000F035F801F011F900BF00000800BD
:100338000000000000000000000000007000002421
:10034800BC000024000000000000000080B582B05E
:1003580002AF00F001F90D4BD3F8F4300B4A43F02B
:100368000203C2F8F4304FF48073019340F20C7327
:10037800009340F203334FF4407240F2033140F2ED
:10038800013000F0EEFA00BFBD4680BD00440258BF
:1003980080B5A0B018AF474B1B68FB614FF0000356
:1003A80007F10C0000230393002302930023019319
:1003B8000023009300230122262100F091FC3E4BEC
:1003C8003D4A07F1140000210D9100210C910021F4
:1003D8000B9100210A910021099100210891002127
:1003E80007910021069108210591049203930123A6
:1003F800029300230193314B009300230022012133
:1004080000F0BEFC381D0023179300231693002329
:1004180015930023149300231393002312930423AA
:1004280011930023109300230F9300230E930023AE
:100438000D9300230C9300230B9300230A930123AD
:1004480009930023089300230793002306930023AE
:1004580005930023049300230393002302930023AE
:1004680001930723009308230122012100F032FDA4
:100478003B1D0821184600F01FFE3B1D184600F0E2
:1004880031FE3B1D184600F042FE07F114031846E2
:1004980000F050FE3B1D184600F05FFE0023BB60D5
:1004A800BB68074A9342F9DC00BFBB680133BB60F5
:1004B800F6E700BF9C00002404000024203001401F
:1004C800FFE1040080B400AF00BE00BFBD465DF888
:1004D800047B704780B584B002AF786039607B6870
:1004E800012B24D13B684FF6FF7293421FD10023A2
:1004F80000930023002201210F4800F015F9002382
:1005080000930023002252210C4800F039F90023FF
:100518000093002300225221094800F05DF90023CE
:100528000093002300225221064800F081F900BF01
:100538000837BD4680BD00BF8C0000249000002411
:10054800940000249800002480B500AF4FF6FF7196
:100558000120FFF7BFFF80BD80B588B004AF484BCE
:100568001B68FB604FF00003464B184600F09CF9EF
:10057800034600224FF48031184600F05CFE414BE0
:10058800184600F091F90346184600F0D3FE0346DA
:1005980003F40033002B0CBF01230023DBB2002B34
:1005A80000D0ECE7374B184600F07EF903460022EE
:1005B8008021184600F03FFE324B184600F074F9CF
:1005C8000346184600F0B6FE034603F08003002BEE
:1005D8000CBF01230023DBB2002B00D0ECE7122371
:1005E800BB60294B184600F05FF903460022122130
:1005F800184600F0F4FD244B184600F055F9034660
:10060800184600F097FE0346122B14BF012300235F
:10061800DBB2002B00D0EEE7022000F037F83B46B3
:1006280000220321184600F09FFE3B46184600F0C2
:1006380011FF3B46184600F027FF034683F00103ED
:10064800DBB2002B00D0F4E7381D03230393042307
:100658000293042301930423009308230422002116
:1006680000F022FE00BF064B1A68FB685A404FF0A4
:10067800000301D000F0B4FF1037BD4680BD00BFB5
:100688009C000024004402580020005280B582B02B
:1006980000AF0346FB71064800F006F9FA7900231B
:1006A800032100F037F900BF0837BD4680BD00BF01
:1006B80028440258101C0008000000247000002480
:1006C80070000024BC000024034613F8012B002A04
:1006D800FBD1181A0138704780B584B000AF0346C3
:1006E800FB80FB881B0A9BB219460D4800F0CCF82A
:1006F80003461B78FB73FA7B0A4B13441A68FB8882
:10070800DBB2012101FA03F31846F97B054B0B44D0
:10071800194642EA00030B6000BF1037BD4680BD92
:10072800381B00080044025880B582B000AF7860DA
:10073800084611461A460346FB700B46BB70134623
:100748007B707B680D4A1A60FB781946786800F060
:1007580033F93B7C1946786800F054F97B781946E0
:10076800786800F064F9BB781946786800F074F985
:100778007B6818460837BD4680BD00BF0004025894
:1007880080B582B000AF7860084611461A46034625
:10079800FB700B46BB7013467B707B680D4A1A6072
:1007A800FB781946786800F06CF93B7C1946786844
:1007B80000F08DF97B781946786800F09DF9BB78D0
:1007C8001946786800F0ADF97B6818460837BD46C9
:1007D80080BD00BF0000025880B582B000AF7860CD
:1007E800084611461A460346FB700B46BB70134673
:1007F8007B707B680D4A1A60FB781946786800F0B0
:10080800A5F93B7C1946786800F0C6F97B7819464B
:10081800786800F0D6F9BB781946786800F0E6F9F0
:100828007B6818460837BD4680BD00BF00040258E3
:1008380080B582B000AF7860084611461A46034674
:10084800FB700B46BB7013467B707B680D4A1A60C1
:10085800FB781946786800F0DEF93B7C1946786821
:1008680000F0FFF97B781946786800F00FFABB783A
:100878001946786800F01FFA7B6818460837BD46A5
:1008880080BD00BF0000025880B582B000AF78601C
:1008980039607B683968184600F073FC03461846CF
:1008A8000837BD4680BD000080B584B000AF7860D1
:1008B8000C4B1B68FB604FF0000307F108037968D5
:1008C800184600F06CFCBB68064A1168FA6851408B
:1008D8004FF0000201D000F083FE18461037BD46E5
:1008E80080BD00BF9C00002490B585B000AFF860C3
:1008F800B9607A60BA687B6802FA03F31C4607F1AC
:100908000C03184600F05FFC03461C6000BF143758
:10091800BD4690BD90B585B000AFF860B9607A600B
:100928003B6007F10C03184600F04DFC03461B68BA
:10093800B9683A6801FA02F2D24313407968BA6892
:1009480011403A6801FA02F243EA020407F10C0383
:10095800184600F038FC03461C6000BF1437BD463B
:1009680090BD90B583B000AF0446084611461A46BC
:100978002346FB800346BB800B467B8013463B80A7
:10098800FB881846FFF7A8FEBB881846FFF7A4FEA9
:100998007B881846FFF7A0FE3B881846FFF79CFEA9
:1009A8003B8B1846FFF798FEBB8B1846FFF794FE63
:1009B80000BF0C37BD4690BD80B584B000AF7860ED
:1009C8000B46FB707B681B681846FFF76DFFFA78CB
:1009D8001C230321FFF79EFF0123BB601823FB6044
:1009E8007B681B6824331846FFF75EFFFB781B09FA
:1009F800DBB21A4618230F21FFF78CFF00BF103710
:100A0800BD4680BD80B582B000AF78600B46FB70F4
:100A18007B681B6808331846FFF746FFFA781C23E3
:100A28000321FFF777FF00BF0837BD4680BD80B5BB
:100A380082B000AF78600B46FB707B681B680C3394
:100A48001846FFF731FFFA781C230321FFF762FFEE
:100A580000BF0837BD4680BD80B582B000AF786062
:100A68000B46FB707B681B6804331846FFF71CFFB6
:100A7800FA780E230121FFF74DFF00BF0837BD4666
:100A880080BD80B584B000AF78600B46FB707B6892
:100A98001B681846FFF708FFFA780A230321FFF7B7
:100AA80039FF0023BB601423FB607B681B6820337D
:100AB8001846FFF7F9FEFB781B09DBB21A46142328
:100AC8000F21FFF727FF00BF1037BD4680BD80B557
:100AD80082B000AF78600B46FB707B681B680833F8
:100AE8001846FFF7E1FEFA780A230321FFF712FF01
:100AF80000BF0837BD4680BD80B582B000AF7860C2
:100B08000B46FB707B681B680C331846FFF7CCFE5E
:100B1800FA780A230321FFF7FDFE00BF0837BD4618
:100B280080BD80B582B000AF78600B46FB707B68F3
:100B38001B6804331846FFF7B7FEFA78052301212E
:100B4800FFF7E8FE00BF0837BD4680BD80B584B01A
:100B580000AF78600B46FB707B681B681846FFF790
:100B6800A3FEFA780A230321FFF7D4FE0023BB6013
:100B78001423FB607B681B6820331846FFF794FE3C
:100B8800FB781B09DBB21A4614230F21FFF7C2FEBC
:100B980000BF1037BD4680BD80B582B000AF786019
:100BA8000B46FB707B681B6808331846FFF77CFE12
:100BB800FA780A230321FFF7ADFE00BF0837BD46C8
:100BC80080BD80B582B000AF78600B46FB707B6853
:100BD8001B680C331846FFF767FEFA780A230321CF
:100BE800FFF798FE00BF0837BD4680BD80B582B0CC
:100BF80000AF78600B46FB707B681B6804331846AF
:100C0800FFF752FEFA7805230121FFF783FE00BFA4
:100C18000837BD4680BD80B584B000AF78600B460C
:100C2800FB707B681B681846FFF73EFEFA780C23BA
:100C38000321FFF76FFE0023BB601823FB607B686E
:100C48001B6820331846FFF72FFEFB781B09DBB221
:100C58001A4618230F21FFF75DFE00BF1037BD4667
:100C680080BD80B582B000AF78600B46FB707B68B2
:100C78001B6808331846FFF717FEFA780C23032180
:100C8800FFF748FE00BF0837BD4680BD80B582B07B
:100C980000AF78600B46FB707B681B680C33184606
:100CA800FFF702FEFA780C230321FFF733FE00BF9B
:100CB8000837BD4680BD80B582B000AF78600B466E
:100CC800FB707B681B6804331846FFF7EDFDFA7864
:100CD80006230121FFF71EFE00BF0837BD4680BD71
:100CE80080B582B000AF7860084611461A460346C0
:100CF800FB700B46BB7013467B707B681E4A1A60FC
:100D08007B681E4A5A607B681B681846FFF7CCFD53
:100D1800FB7803F07F033A7F002A02D04FF48072F9
:100D280000E0002213433A7E002A02D04FF40072FA
:100D380000E0002213437A78002A02D04FF4803270
:100D480000E000221A433B7D5B0403F4C0231A43EE
:100D5800BB78013BDB0403F478031A433B7C1B0696
:100D680003F0E063134300221946FFF7BDFD7B68DB
:100D780018460837BD4680BD00080240800802407A
:100D880080B582B000AF7860084611461A4603461F
:100D9800FB700B46BB7013467B707B684B4A1A602E
:100DA8007B684B4A5A607B681B681846FFF77CFDD6
:100DB80097F83C305B0103F02002FB789B01DBB223
:100DC800134397F82C20002A02D04FF4807200E0D9
:100DD800002213437A78002A02D04FF4007200E010
:100DE800002213433A7E002A02D04FF4806200E0CA
:100DF80000221A43BB78DB0203F4C0531A433B7D3D
:100E08005B0303F4C0431A4397F830305B0203F4E2
:100E180000731A4397F828301B0403F44033134334
:100E280097F83420002A02D04FF4802200E00022F4
:100E3800134397F83820002A02D04FF4801200E0BC
:100E480000221A4397F840305B0503F4C0031A43A5
:100E580097F84430DB0503F0C073134300221946AA
:100E6800FFF742FD7B681B6808331846FFF71CFD37
:100E7800034600223969184600F0B1F97B681B68FF
:100E88000C331846FFF710FD03460022F96918468F
:100E980000F0A5F97B681B6810331846FFF704FDBE
:100EA80003460022396A184600F099F97B681B68E6
:100EB80004331846FFF7F8FCBB8C0022194600F0F3
:100EC800A3F97B6818460837BD4680BD100002406C
:100ED8000000024080B586B000AFF860B9607A6063
:100EE800FB70FB68734A1A600023FB75BB68012B13
:100EF80003D101237B630123FB75FB681B6818463C
:100F0800FFF7D2FCFB7D002B02D04FF4805200E0AB
:100F1800002297F87430002B02D04FF4807300E061
:100F28000023134397F86820002A02D04FF4005298
:100F380000E000221A43FB6EDBB29B0303F48043FC
:100F48001A433B6FDBB2DB039BB213430022194603
:100F5800FFF7CAFCFB681B6808331846FFF7A4FCB8
:100F6800FB78013BDBB203F01F0297F84430013BEA
:100F7800DBB25B0103F4F0731A43FB6FDBB25B0275
:100F880003F4C0631A43BB6FDBB2DB0203F4C05344
:100F9800134397F84C20002A02D04FF4804200E017
:100FA8000022134397F84820002A02D04FF4004249
:100FB80000E000221A4397F86430013BDBB21B04BF
:100FC80003F4F813134397F86020002A02D04FF473
:100FD800800200E000221A433B6ADBB21B0703F0E1
:100FE800E043134300221946FFF77EFCFB681B68A9
:100FF8000C331846FFF758FC97F8503003F00F02EF
:1010080097F854301B01DBB2134397F85820002A95
:1010180002D04FF4004200E000221A437B68DBB2A2
:101028005B0403F4C0231A437B6ADBB2DB0403F4DA
:1010380060131A43BB68DBB29B0503F480031A43B1
:10104800BB6ADBB2DB0503F400031A433B6BDBB27C
:101058001B0603F080731A43FB6ADBB25B0603F0DE
:1010680000731A437B6BDBB29B0603F080631A4361
:10107800BB6BDBB21B0703F08053134397F83C208C
:10108800002A02D04FF0005200E000221A433B6CC5
:10109800DBB29B0703F080431A43FB6DDBB2DB072F
:1010A800134300221946FFF71FFCFB681846183740
:1010B800BD4680BD0030014080B582B000AF786089
:1010C8000B467B807B681B6804331846FFF7ECFBF4
:1010D8007A8800234FF6FF71FFF71CFC00BF083722
:1010E800BD4680BD80B582B000AF78607B681B6864
:1010F80008331846FFF7D8FB034600224FF4004197
:10110800184600F098F800BF0837BD4680BD80B586
:1011180082B000AF78607B681B681846FFF7C4FB95
:10112800034600220121184600F085F800BF083761
:10113800BD4680BD80B582B000AF78607B681B6813
:101148001846FFF7B1FB034600220121184600F0BC
:1011580072F800BF0837BD4680BD80B582B000AFC9
:1011680078607B681B681846FFF79EFB03460022E1
:101178004FF40071184600F05EF800BF0837BD460E
:1011880080BD80B483B000AF786039607A683B680E
:10119800134418460C37BD465DF8047B704780B58C
:1011A80082B000AF78603960386800F05BF80346B9
:1011B800184600F062F802467B681A607B68184699
:1011C8000837BD4680BD80B483B000AF78607B68C7
:1011D8001B6818460C37BD465DF8047B704790B510
:1011E80085B000AFF860B9607A60BA687B6802FAC7
:1011F80003F407F10C031846FFF7E5FF03461C60EC
:1012080000BF1437BD4690BD90B585B000AFF860FB
:101218000B467A607B817A897B6802FA03F31C4665
:1012280007F10C031846FFF7CEFF03461C6000BF0A
:101238001437BD4690BD80B584B000AFF860B96082
:101248007A6007F10C031846FFF7BDFF03461968DB
:10125800B8687A6800FA02F20A431A6000BF1037C9
:10126800BD4680BD80B483B000AF78607B68184607
:101278000C37BD465DF8047B704780B582B000AF7F
:101288007860786800F005F8034618460837BD46C8
:1012980080BD80B483B000AF78607B6818460C3797
:1012A800BD465DF8047B704780B582B000AF7860BA
:1012B800084611461A460346FB700B46BB70134698
:1012C8007B701848FFF7F0FAFB781A02BB781B010D
:1012D8001A437B78134300221946FFF705FB12488F
:1012E800FFF7E2FA3B7C1A013B7D1B021343002205
:1012F8001946FFF7F9FA0D48FFF7D6FA3B7E1B01AE
:1013080000221946FFF7F0FA0948FFF7CDFA3A7FAD
:1013180000230321FFF7FEFA7B6818460837BD460D
:1013280080BD00BF184402581C440258204402588B
:101338001044025880B582B000AF78603B1D184653
:10134800FFF741FF03461B6818460837BD4680BDB6
:1013580080B483B000AF7860002318460C37BD46D0
:101368005DF8047B70470000B0B584B000AF7860CA
:101378000B46FB701346BB701A4BBB601A4BFB60E5
:101388001A48FFF791FA04467868FFF7E1FF034629
:10139800DB00043301223F212046FFF7BBFA144843
:1013A800FFF782FA0546FB789A00BB785B0042EAB1
:1013B80003047868FFF7CCFF03469B0022460E2102
:1013C8002846FFF7A7FA0748FFF76EFA03460022F8
:1013D8000849184600F029F87B6818461037BD46BA
:1013E800B0BD00BF30440258344402582844025863
:1013F8002C4402586302070180B584B000AFF8603E
:10140800B9607A6007F10C031846FFF7DCFE034663
:101418001B68B9687A6801FA02F21A407B6822FAF6
:1014280003F318461037BD4680BD90B585B000AFB0
:10143800F860B9607A60BA687B6802FA03F407F169
:101448000C031846FFF7BFFE03461C6000BF1437A5
:10145800BD4690BD90B583B000AF7860094B184683
:10146800FFF722FA04467868FFF772FF03460C3349
:101478005B001A460121204600F026F800BF0C3711
:10148800BD4690BD0044025890B583B000AF786067
:101498000C4B1846FFF708FA04467868FFF758FF20
:1014A80003465B0019331A4601212046FFF7A4FFC3
:1014B8000346002B14BF01230023DBB218460C3768
:1014C800BD4690BD0044025880B584B000AFF860B6
:1014D800B9607A6007F10C031846FFF774FE0346FB
:1014E8001A68B868796800FA01F10A431A6000BFFF
:1014F8001037BD4680BD00000D488546FEF726FF23
:101508000C480D490D4A002302E0D458C450043356
:10151800C4188C42F9D30A4A0A4C002301E013602C
:101528000432A242FBD300F025F8FEF731FFFEE7B4
:10153800000008240000002470000024101C00088B
:1015480070000024BC000024FEE7000008B5074B2B
:10155800044613B10021AFF30080054B1868836A75
:1015680003B19847204600F0C1FA00BF0000000010
:10157800C41B000870B50D4D0D4C641BA41000264B
:10158800A64209D10B4D0C4C00F0B4FA641BA41010
:101598000026A64205D170BD55F8043B9847013690
:1015A800EEE755F8043B98470136F2E7001C0008BF
:1015B800001C0008001C00080C1C0008024403461C
:1015C800934200D1704703F8011BF9E7034B1A68EF
:1015D80012B9A2F576021A60704700BF9C00002479
:1015E80000B5104B8DB06A4603F1280615461868F9
:1015F8005968144603C40833B3422246F7D1186821
:101608001B79237120602846FFF75EF829460246B9
:10161800022000F00DF8062000F008F97F2000F005
:1016280065FA00BFC81B000808B5FFF7D9FF00001E
:1016380013460A4601460248006800F003B800BF96
:101648000C00002438B5074D044608461146002210
:101658002A601A4600F042FA431C02D12B6803B1F3
:10166800236038BDA000002438B50C46096805463B
:1016780009B1FFF7F9FF21462846BDE8384000F0D8
:1016880007B900002C4B1B68834270B5044651D043
:10169800436A43B1DB68002B4AD1636A196811B108
:1016A800204600F0F5F8616911B1204600F0F0F825
:1016B800616A11B1204600F0EBF8A16B11B1204628
:1016C80000F0E6F8E16B11B1204600F0E1F8216C7A
:1016D80011B1204600F0DCF8E16D11B1204600F0B0
:1016E800D7F8A16D11B1204600F0D2F8616B11B1A5
:1016F800204600F0CDF8A369E3B1A36A20469847D5
:10170800A16CB9B12046BDE87040FFF7ADBF49599B
:1017180041B90435636A802DD968F8D1204600F0B4
:10172800B7F8BAE70E68204600F0B2F83146EFE79E
:101738000025EFE770BD00BF0C00002438B5456CEC
:10174800044655B9802100F00FF9606438B1031FD1
:101758007C3043F8045F8342FBD1002038BD4FF052
:10176800FF30FBE71F2970B504460D46164604D91D
:10177800162303604FF0FF3006E0436C2BB1636C17
:1017880053F8250043F8256070BDFFF7D7FF002800
:10179800F5D0EFE71F2938B504460D4604D91623BE
:1017A80003604FF0FF3038BD426C12B152F821305F
:1017B8004BB9204600F06AF82A4601462046BDE8A3
:1017C800384000F051B8012B0AD0591C03D1162318
:1017D80003600120E7E7002442F82540284698479F
:1017E8000020E0E71F2938B504460D4602D94FF01E
:1017F800FF3038BD436C2BB1626C52F8253033B9D9
:101808000120F6E7FFF79AFF0028F5D0EFE7591C0B
:1018180008D0012B08D00024284642F825409847D4
:101828002046E6E70220E4E70320E2E7024B014610
:101838001868FFF7AFBF00BF0C000024024B0A4630
:1018480001461868FFF78EBF0C000024014B18688A
:10185800FFF774BF0C000024024B01461868FFF71D
:10186800C1BF00BF0C00002438B5074D0023044653
:10187800084611462B6000F01BF9431C02D12B6867
:1018880003B1236038BD00BFA000002400F008B9F0
:1018980037B5002944D051F8043C0190002BA1F140
:1018A8000404B8BFE41800F0E3F81E4A019813686E
:1018B80033B96360146003B0BDE8304000F0DEB8AF
:1018C800A34208D9256861198B4201BF19685B6872
:1018D80049192160EDE71A465B680BB1A342FAD9B2
:1018E80011685518A5420BD1246821445418A34205
:1018F8001160E0D11C685B68536021441160DAE72D
:1019080002D90C230360D6E7256861198B4204BF0E
:1019180019685B68636004BF491921605460CAE7AD
:1019280003B030BDA400002470B50E4E0C463168DB
:10193800054611B900F08CF830602146284600F0C1
:1019480087F8431C0AD0C41C24F00304A04207D023
:10195800211A284600F07CF8013001D14FF0FF34FD
:10196800204670BDA80000242DE9F041CD1C25F0CB
:10197800030508350C2D38BF0C25002D074601DB63
:10198800A94205D90C233B6000263046BDE8F0810A
:101998002E4E00F06DF833681C4634BB2946384695
:1019A800FFF7C2FF431C04464DD134682646002E7B
:1019B80040D123683146384604EB030800F048F864
:1019C80080453AD1216803356D1A25F0030508359D
:1019D8000C2D38BF0C2529463846FFF7A5FF0130E6
:1019E8002BD023682B4423600EE02268521B1ED4A0
:1019F8000B2A16D96119A342256018BF596063687C
:101A080008BF316062514B60384604F10B0600F0A4
:101A180035F826F00706231DF21AB6D09B1BA350F3
:101A2800B3E76268A3420CBF32605A60ECE7234612
:101A38006468B2E734467668B9E70C233B603846F9
:101A480000F01CF8A1E72560DEE700BFA400002431
:101A580038B5064D0023044608462B6000F030F8E0
:101A6800431C02D12B6803B1236038BDA0000024B9
:101A7800014800F00EB800BFB1000024014800F092
:101A88000EB800BFB1000024704770477047704718
:101A980070477047012070470120704770477047B2
:101AA800024B58221A604FF0FF307047A000002404
:101AB800024B58221A604FF0FF307047A0000024F4
:101AC800044A05491368002B08BF0B4618441060E8
:101AD80018467047B8000024C0000024024B582262
:101AE8001A604FF0FF307047A0000024FEE700BFE7
:101AF80000000000F8B500BFF8BC08BC9E4670475F
:0C1B0800F8B500BFF8BC08BC9E46704752
:101B14003B3E0B3E103E253E333E033E063E143E06
:101B24000E3E0D3E243E123E273E023E183E093E26
:101B34000A3E0000D4D8DCE0E4E8ECF0F400000055
:101B4400010000003F00000004000000000200004B
:101B5400020000008000000001000000800000007E
:101B64000100000080000000D4D8DCE0E4E8ECF0E0
:101B7400F4000000010000003F0000000400000029
:101B840000020000020000008000000001000000CC
:101B94008000000001000000800000003B3E0B3E7E
:101BA400103E253E333E033E063E143E0E3E0D3EA1
:101BB400243E123E273E023E183E093E0A3E0000E5
:101BC400100000242A2A2A20737461636B20736D29
:101BD400617368696E672064657465637465642005
:101BE4002A2A2A3A207465726D696E617465640AE2
:041BF40000000000ED
:081BF800E0E6FF7F01000000A0
:0C1C0000BD02000851050008D5150008C1
:041C0C009902000831
:101C1000000000000123456789ABCDEF10000024D0
:101C200000000000000000000000000000000000B4
:101C300000000000000000000000000000000000A4
:101C40000000000000000000000000000000000094
:101C50000000000000000000000000000000000084
:101C60000000000000000000000000000000000074
:101C70000000000000000000000000000000000064
:0400000508001501D9
:00000001FF
