:020000040800F2
:100000000000082469060008B9060008C1030008BA
:10001000B9060008B9060008B9060008000000008B
:10002000000000000000000000000000B906000809
:10003000B906000800000000B9060008B90600086B
:10004000B9060008B9060008B9060008B906000894
:10005000B9060008B9060008B9060008B906000884
:10006000B9060008B9060008B9060008B906000874
:10007000B9060008B9060008B9060008B906000864
:10008000B9060008B9060008B9060008B906000854
:10009000B9060008B9060008B9060008B906000844
:1000A000B9060008B9060008B9060008B906000834
:1000B000B9060008B9060008B9060008B906000824
:1000C000B9060008B9060008B9060008B906000814
:1000D000B9060008B9060008B9060008B906000804
:1000E000B9060008B906000800000000B9060008BB
:1000F000B9060008B9060008B9060008B9060008E4
:10010000B9060008B9060008B9060008B9060008D3
:10011000B9060008B9060008B9060008B9060008C3
:10012000B9060008B9060008B9060008B9060008B3
:10013000B9060008B9060008B9060008B9060008A3
:1001400000000000000000000000000000000000AF
:10015000B9060008B9060008B9060008B906000883
:10016000B9060008B9060008B9060008B906000873
:10017000B9060008B9060008B9060008000000002A
:100180000000000000000000B9060008B9060008E1
:10019000B9060008B9060008B9060008B906000843
:1001A000B9060008B9060008B9060008B906000833
:1001B000B9060008B9060008B9060008B906000823
:1001C000B9060008B9060008B9060008B906000813
:1001D000B9060008B9060008B9060008B906000803
:1001E000B9060008B9060008B9060008B9060008F3
:1001F000B9060008B9060008B9060008B9060008E3
:10020000B9060008B9060008B9060008B9060008D2
:10021000B9060008B9060008B9060008B9060008C2
:10022000B9060008B9060008B90600080000000079
:10023000B9060008B906000800000000B906000869
:10024000B9060008B9060008B9060008B906000892
:10025000B9060008B9060008B9060008B906000882
:10026000B9060008B9060008B9060008B906000872
:10027000B9060008B9060008B9060008B906000862
:10028000B906000800000000B906000800000000E0
:0802900000000000B90600089F
:1002980010B5054C237833B9044B13B10448AFF3B8
:1002A80000800123237010BD6800002400000000B6
:1002B8004007000808B5034B1BB103490348AFF3D7
:1002C800008008BD000000006C0000244007000802
:1002D800A3F5803A704700BF174B002B08BF134B9C
:1002E8009D46FFF7F5FF00218B460F461348144A39
:1002F800121A00F017FA0E4B002B00D098470D4B3E
:10030800002B00D098470020002104000D000D4864
:10031800002802D00C48AFF3008000F0DFF920007D
:10032800290000F03FF800F0C5F900BF0000080000
:100338000000000000000000000000006800002429
:1003480088000024000000000000000080B500AF15
:1003580000F03AF80346002B14BF01230023DBB258
:10036800002B01D000F05AF90C4B1B690B4A43F4DF
:1003780040031361094B1B69084A43F4C013136116
:10038800074B1B68064A43F400331360044B9B6811
:10039800034A43F44033936000BF80BD00440258D1
:1003A8000000025880B500AF00F0DCF800F0D2F889
:1003B80000BF00F0F3F8FBE780B400AF00BE00BF59
:1003C800BD465DF8047B704780B483B000AF5D4BD9
:1003D8001B685C4A43F01003136000233B60594BD1
:1003E8001B6803F00403002B0CBF01230023DAB2BF
:1003F800544B1B6803F02003002B0CBF0123002380
:10040800DBB21343DBB2002B14BF01230023DBB2A2
:10041800002B10D03B684FF66522934207DD494B0D
:100428001B68484A23F001031360012383E03B68FB
:1004380001333B60D3E7434B9B69424A43F048038F
:100448009361404BDB693F4A43F48863D3613D4B7A
:100458001B6A3C4A43F0400313623A4BDA6A394953
:10046800394B1343CB62374B10229A62354B374ACC
:100478001A63344B1B68334A43F0807313600023BC
:100488003B60304B1B6803F00073002B0CBF01234B
:100498000023DBB2002B0FD03B68B3F57A5F07DB94
:1004A800284B1B68274A23F080731360012342E01E
:1004B8003B6801333B60E4E712237B60244B122244
:1004C8001A6000233B60224B1B68122B14BF0123C8
:1004D8000023DBB2002B0CD03B68B3F57A5F04DB5A
:1004E8001B4B25221A60012325E03B6801333B6042
:1004F800E9E7144B1B69134A43F003031361002314
:100508003B60104B1B6903F03803182B14BF012301
:100518000023DBB2002B0DD03B68B3F57A5F05DB17
:10052800084B084A1B691361012304E03B68013347
:100538003B60E6E7002318460C37BD465DF8047BB0
:10054800704700BF004402580C0001002702010157
:100558000020005280B400AF00BFBD465DF8047BA8
:100568007047000080B400AF094BD3F8E030084A68
:1005780043F00203C2F8E030064B1A680549064BFF
:1005880013430B6000BFBD465DF8047B704700BF96
:1005980000440258000402580140001080B400AF23
:1005A8001C4B1B781A461C4B5B6903F48043002BD9
:1005B8000CBF01230023DBB21340002B14BF01231F
:1005C8000023DBB2002B04D0134B4FF480429A6116
:1005D8001AE0104B1B7883F00103DBB21A460E4B6E
:1005E8005B6903F48043002B14BF01230023DBB2B3
:1005F8001340002B14BF01230023DBB2002B03D0D0
:10060800054B4FF080429A6100BFBD465DF8047B00
:10061800704700BF840000240004025880B400AF73
:10062800034B01221A7000BFBD465DF8047B70477A
:100638008400002480B400AF034B00221A7000BF6E
:10064800BD465DF8047B704784000024C807000895
:1006580000000024680000246800002488000024AA
:100668000D488546FFF772FE0C480D490D4A0023D8
:1006780002E0D458C4500433C4188C42F9D30A4A4F
:100688000A4C002301E013600432A242FBD300F0BD
:1006980025F8FFF787FEFEE7000008240000002485
:1006A80068000024C80700086800002488000024A7
:1006B800FEE7000008B5074B044613B10021AFF36D
:1006C8000080054B1868836A03B19847204600F0FC
:1006D80031F800BF00000000B407000870B50D4DE8
:1006E8000D4C641BA4100026A64209D10B4D0C4CDE
:1006F80000F024F8641BA4100026A64205D170BDA2
:1007080055F8043B98470136EEE755F8043B9847FF
:100718000136F2E7C0070008C0070008C007000854
:10072800C407000802440346934200D1704703F807
:10073800011BF9E7FEE700BF00000000F8B500BFA5
:10074800F8BC08BC9E467047F8B500BFF8BC08BCAA
:040758009E46704702
:10075C003B3E0B3E103E253E333E033E063E143ED2
:10076C000E3E0D3E243E123E273E023E183E093EF2
:10077C000A3E000066FA0000803E0000803E000049
:10078C00803E00003B3E0B3E103E253E333E033E7A
:10079C00063E143E0E3E0D3E243E123E273E023EC9
:0C07AC00183E093E0A3E00000800002430
:0807B80020FBFF7F010000009F
:0407C000BD0200086E
:0407C400990200088E
:1007C80000000000080000240000000000000000F5
:1007D8000000000000000000000000000000000011
:1007E8000000000000000000000000000000000001
:1007F80000000000000000000000000000000000F1
:1008080000000000000000000000000000000000E0
:1008180000000000000000000000000000000000D0
:080828000000000000000000C8
:040000050800066980
:00000001FF
