:020000040800F2
:10000000000008245109000891040008A904000810
:10001000A1090008A1090008A109000800000000CA
:10002000000000000000000000000000A10900081E
:10003000A109000800000000A109000881040008CF
:10004000A1090008A1090008A1090008A1090008E8
:10005000A1090008A1090008A1090008A1090008D8
:10006000A1090008A1090008A1090008A1090008C8
:10007000A1090008A1090008A1090008A1090008B8
:10008000A1090008A1090008A1090008A1090008A8
:10009000A1090008A1090008A1090008A109000898
:1000A000A1090008A1090008A1090008A109000888
:1000B000A1090008A1090008A1090008A109000878
:1000C000A1090008A1090008A1090008A109000868
:1000D000A1090008A1090008A1090008A109000858
:1000E000A1090008A109000800000000A1090008FA
:1000F000A1090008A1090008A1090008A109000838
:10010000A1090008A1090008A1090008A109000827
:10011000A1090008A1090008A1090008A109000817
:10012000A1090008A1090008A1090008A109000807
:10013000A1090008A1090008A1090008A1090008F7
:1001400000000000000000000000000000000000AF
:10015000A1090008A1090008A1090008A1090008D7
:10016000A1090008A1090008A1090008A1090008C7
:10017000A1090008A1090008A1090008A1090008B7
:10018000A109000800000000A1090008A109000859
:10019000A1090008A1090008A1090008A109000897
:1001A000A1090008A1090008A1090008A109000887
:1001B000A1090008A1090008A1090008A109000877
:1001C000A1090008A1090008A1090008A109000867
:1001D000A1090008A1090008A1090008A109000857
:1001E000A1090008A1090008A1090008A109000847
:1001F000A1090008A1090008A1090008A109000837
:10020000A1090008A1090008A1090008A109000826
:10021000A1090008A1090008A1090008A109000816
:10022000A1090008A1090008A109000800000000B8
:10023000A1090008A109000800000000A1090008A8
:10024000A1090008A1090008A1090008A1090008E6
:10025000A1090008A1090008A1090008A1090008D6
:10026000A1090008A1090008A1090008A1090008C6
:10027000A1090008A1090008A1090008A1090008B6
:10028000A109000800000000A1090008000000000A
:0802900000000000A1090008B4
:1002C00030B490F800F020F007016FF0000C10F04F
:1002D000070491F820F040F048804FF000046FF0E0
:1002E0000700D1E9002391F840F000F1080082FAFC
:1002F0004CF2A4FA8CF283FA4CF3A2FA8CF34BBBC7
:10030000D1E9022382FA4CF200F10800A4FA8CF23F
:1003100083FA4CF3A2FA8CF3E3B9D1E9042382FA0D
:100320004CF200F10800A4FA8CF283FA4CF3A2FA22
:100330008CF37BB9D1E9062301F1200182FA4CF25A
:1003400000F10800A4FA8CF283FA4CF3A2FA8CF3C1
:10035000002BC6D0002A04BF04301A4612BAB2FAE3
:1003600082F200EBD20030BC7047D1E9002304F0E8
:100370000305C4F100004FEAC50514F0040F91F81D
:1003800040F00CFA05F562EA05021CBF63EA0503BA
:1003900062464FF00004AAE710B5054C237833B944
:1003A000044B13B10448AFF300800123237010BD48
:1003B0002C010024000000000C0C000808B5034BC1
:1003C0001BB103490348AFF3008008BD00000000E3
:1003D000300100240C0C0008030A064A12F803C07E
:1003E00005495CF80130C0B20122824013434CF849
:1003F00001307047240C000800440258094B186073
:10040000094AB2FBF0F2094BB3FBF2F3013B4FF0A8
:10041000E022002191615361136943F007031361E6
:10042000704700BF0000002440420F000084D7172F
:10043000074B1968074B1B6803FB01F1044B1B6852
:10044000044A126802FB03F30A189A42F6D870476E
:10045000580100240000002408B54FF0E022D2F833
:10046000883D43F47003C2F8883D00F017FA40F26B
:100470000230FFF7B1FF4FF44170FFF7ADFF08BD49
:10048000024A136801331360704700BF580100240B
:10049000034BD3F8643413F4806F00D0FEE7704749
:1004A000004002580020704772B64FF0E023D3F8A6
:1004B0002C3D13F0804F09D000BE4FF0E023D3F85D
:1004C000283D13F0007F06D000BE704713F0020FE6
:1004D000F3D000BEF1E713F0807F01D000BE70477B
:1004E00013F4002F01D000BE704713F0100F01D09D
:1004F00000BE704700BE70470268136823F44013C3
:1005000001F0030C43EA0C53136002680909536AB3
:1005100023F4706343EA01235362704702689368CF
:1005200023F4401301F0030143EA01539360704741
:100530000268D36823F4401301F0030143EA015336
:10054000D36070470268536823F4806301F00101AF
:1005500043EA81235360704770B5044615461E4632
:10056000094B0360FFF7C8FF9DF810102046FFF706
:10057000D5FF31462046FFF7DBFF29462046FFF72F
:10058000E1FF204670BD00BF0010025802681368EA
:1005900023F0407301F0030C43EA0C63136002681C
:1005A0000909536A23F4702343EA014353627047F5
:1005B0000268936823F0407301F0030143EA01638A
:1005C000936070470268D36823F0407301F0030121
:1005D00043EA0163D36070470268536823F4805391
:1005E00001F0010143EA01335360704770B50446DE
:1005F00015461E46094B0360FFF7C8FF9DF8101013
:100600002046FFF7D5FF31462046FFF7DBFF29469E
:100610002046FFF7E1FF204670BD00BF00100258E2
:100620000268136823F0405301F0030C43EA0C7393
:10063000136002680909536A23F0706343EA016397
:10064000536270470268936823F0405301F003013E
:1006500043EA0173936070470268D36823F0405304
:1006600001F0030143EA0173D360704702685368E5
:1006700023F4804301F0010143EA81335360704762
:1006800070B5044615461E46094B0360FFF7C8FFC8
:100690009DF810102046FFF7D5FF31462046FFF7A2
:1006A000DBFF29462046FFF7E1FF204670BD00BF73
:1006B000001002580268136823F0404343EA817334
:1006C000136002680909536A23F0704343EA017317
:1006D000536270470268936823F0404343EA817392
:1006E000936070470268D36823F0404343EA817304
:1006F000D36070470268536823F4004301F001019E
:1007000043EAC1335360704770B5044615461E4630
:10071000094B0360FFF7CEFF9DF810102046FFF74E
:10072000D9FF31462046FFF7DDFF29462046FFF777
:10073000E1FF204670BD00BF0010025810B582B026
:10074000002400942346224601210D48FFF704FFB0
:1007500000942346224601210A48FFF747FF0094F0
:100760002346224601210848FFF78AFF00942346CA
:10077000224601210548FFF7C7FF02B010BD00BFA8
:1007800054010024500100244C010024480100249D
:100790000268536983F480635361704708B54FF46E
:1007A0007A70FFF72BFE0348FFF742FE0248FFF77F
:1007B000EFFFF8E7A08601005401002408B5FFF719
:1007C000BDFF08BD054AD2F8283423F0030300F02A
:1007D00003000343C2F82834704700BF00400258AA
:1007E000120142EA01221A430E4BC3F818249DF865
:1007F000042012029DF8001042EA0112C3F81C24E2
:100800009DF808201201C3F82024D3F8102422F008
:1008100003029DF80C1001F003010A43C3F81024F1
:10082000704700BF00400258024BD3F81004C0F3D9
:10083000C20070470040025810B40D4BD3F8284452
:1008400024F47C7444F03004C3F82844520042EA93
:100850008102D3F82C1421F00E0102F00E020A439B
:10086000C3F82C24034AC3F830245DF8044B7047C6
:100870000040025831020F01034AD2F8003443F01D
:100880008073C2F80034704700400258024BD3F81E
:100890000004C0F3406070470040025810B588B0B3
:1008A000284B1B6807934FF00003274BD3F81828F9
:1008B00042F44042C3F81828D3F8002442F400223E
:1008C000C3F80024D3F8002442F48032C3F8002493
:1008D0001D4BD3F8003413F4003FF9D01B4B3422E6
:1008E0001A601A4B1B68342BFBD10220FFF76AFFFA
:1008F00005AC002203212046FFF79EFF2046FFF7AC
:10090000BBFF05A8FFF7C2FF0028FAD0032303931B
:1009100004220292019200920823002106A8FFF708
:100920005FFF06A8FFF780FF0328FAD1054B1A687E
:10093000079B5A404FF0000301D108B010BD00F0F2
:1009400097F800BF9C02002400400258002000528B
:100950000D488546FFF780FD0C480D490D4A0023E0
:1009600002E0D458C4500433C4188C42F9D30A4A64
:100970000A4C002301E013600432A242FBD300F0D2
:100980002DF8FFF70BFFFEE700000824000000240D
:100990002C0100247C0C00082C01002434040024C9
:1009A000FEE70000002301461A46184600F080B812
:1009B00038B50C46084D8446114620461A46002399
:1009C0002B606446FFF76EFD431C00D038BD2B68DA
:1009D000002BFBD0236038BD9402002470B50F4B70
:1009E0000F4DAB42A3EB050607D0B610002455F817
:1009F000043B01349847A642F9D800F007F9094DA5
:100A0000094B5E1BAB424FEAA60606D0002455F800
:100A1000043B01349847A642F9D870BD680C000821
:100A2000680C0008680C0008780C000838B5074D01
:100A3000074C2C1BA41005D0013C55F8043D9847E9
:100A4000002CF9D1BDE8384000F0E6B87C0C000875
:100A5000780C0008704700BF704700BF034B1A684E
:100A600012B9A2F576021A60704700BF9C020024FA
:100A700000B50E4C0FCC8DB0EC46ACE80F000FCC9F
:100A8000ACE80F0094E80F00ACE8070068468CF86B
:100A90000030FFF715FC69460246022000F096F888
:100AA000062000F04FF87F2000F0AEF8300C000870
:100AB0002DE9F8431B4D0646286898460F46914697
:100AC000FFF7C8FF184B1C681CB3286865681F2D0A
:100AD00022DC4EB96B1C0235636044F82570FFF7C9
:100AE000BBFF0020BDE8F88304EB85010123C1F8BA
:100AF0008890D4F88821AB401A43022EC4F888218C
:100B0000C1F80881E6D1D4F88C211A43C4F88C21AD
:100B1000E0E7064C1C60D8E7FFF79EFF4FF0FF3080
:100B2000E0E700BF2801002430040024A0020024D4
:100B3000024B13B10248FFF735BF704700000000B9
:100B40002D0A000838B5144B1F281D681ED8D5F88B
:100B50001821044662B152F820304BB1012B05D068
:100B6000591C0FD0002142F820109847002038BDB2
:100B7000284600F029F8224601462846BDE83840BC
:100B800000F00CB816232B60012038BD16232B6013
:100B90004FF0FF3038BD00BF0400002470B50C4694
:100BA000084D03460026204611461C462E6000F0E4
:100BB00023F8431C00D070BD2B68002BFBD02360B2
:100BC00070BD00BF9402002400F00EB810B4054CB4
:100BD0008446134620685DF8044B0A466146FFF7D9
:100BE000E7BE00BF04000024024B58221A604FF0F9
:100BF000FF30704794020024024B58221A604FF0D5
:100C0000FF30704794020024FEE700BFF8B500BF34
:100C1000F8BC08BC9E467047F8B500BFF8BC08BCDD
:040C20009E46704735
:100C2400D4D8DCE0E4E8ECF0F40000002A2A2A201E
:100C3400737461636B20736D617368696E6720649C
:100C440065746563746564202A2A2A3A207465727F
:0C0C54006D696E617465640A00000000A8
:080C600060F6FF7F01000000B7
:100C6800310B0008BD030008BD0700085D0A000835
:040C780099030008D4
:100C7C00E803000008000024000000005C010024D0
:100C8C00C40100242C02002400000000000000001D
:100C9C000000000000000000000000000000000048
:100CAC000000000000000000000000000000000038
:100CBC000000000000000000000000000000000028
:100CCC000000000000000000000000000000000018
:100CDC000000000000000000000000000000000008
:100CEC0000000000000000000000000000000000F8
:100CFC0000000000000000000000000000000000E8
:100D0C0000000000000000000000000000000000D7
:100D1C0001000000000000000E33CDAB34126DE674
:100D2C00ECDE05000B0000000000000000000000DD
:100D3C0000000000000000000000000000000000A7
:100D4C000000000000000000000000000000000097
:100D5C000000000000000000000000000000000087
:100D6C000000000000000000000000000000000077
:100D7C000000000000000000000000000000000067
:100D8C000000000000000000000000000000000057
:0C0D9C000000000000000000980200248D
:040000050800095195
:00000001FF
