:020000040800F2
:1000000000000824A9070008F9070008BD0300083C
:10001000F9070008F9070008F907000800000000C8
:10002000000000000000000000000000F9070008C8
:10003000F907000800000000F9070008F9070008A8
:10004000F9070008F9070008F9070008F907000890
:10005000F9070008F9070008F9070008F907000880
:10006000F9070008F9070008F9070008F907000870
:10007000F9070008F9070008F9070008F907000860
:10008000F9070008F9070008F9070008F907000850
:10009000F9070008F9070008F9070008F907000840
:1000A000F9070008F9070008F9070008F907000830
:1000B000F9070008F9070008F9070008F907000820
:1000C000F9070008F9070008F9070008F907000810
:1000D000F9070008F9070008F9070008F907000800
:1000E000F9070008F907000800000000F9070008F8
:1000F000F9070008F9070008F9070008F9070008E0
:10010000F9070008F9070008F9070008F9070008CF
:10011000F9070008F9070008F9070008F9070008BF
:10012000F9070008F9070008F9070008F9070008AF
:10013000F9070008F9070008F9070008F90700089F
:1001400000000000000000000000000000000000AF
:10015000F9070008F9070008F9070008F90700087F
:10016000F9070008F9070008F9070008F90700086F
:10017000F9070008F9070008F9070008F90700085F
:10018000F907000800000000F9070008F907000857
:10019000F9070008F9070008F9070008F90700083F
:1001A000F9070008F9070008F9070008F90700082F
:1001B000F9070008F9070008F9070008F90700081F
:1001C000F9070008F9070008F9070008F90700080F
:1001D000F9070008F9070008F9070008F9070008FF
:1001E000F9070008F9070008F9070008F9070008EF
:1001F000F9070008F9070008F9070008F9070008DF
:10020000F9070008F9070008F9070008F9070008CE
:10021000F9070008F9070008F9070008F9070008BE
:10022000F9070008F9070008F907000800000000B6
:10023000F9070008F907000800000000F9070008A6
:10024000F9070008F9070008F9070008F90700088E
:10025000F9070008F9070008F9070008F90700087E
:10026000F9070008F9070008F9070008F90700086E
:10027000F9070008F9070008F9070008F90700085E
:10028000F907000800000000F9070008000000005E
:0802900000000000F90700085E
:1002980010B5054C237833B9044B13B10448AFF3B8
:1002A80000800123237010BD6800002400000000B6
:1002B8008008000808B5034B1BB103490348AFF396
:1002C800008008BD000000006C00002480080008C1
:1002D800A3F5803A704700BF174B002B08BF134B9C
:1002E8009D46FFF7F5FF00218B460F461348144A39
:1002F800121A00F0B7FA0E4B002B00D098470D4B9E
:10030800002B00D098470020002104000D000D4864
:10031800002802D00C48AFF3008000F07FFA2000DC
:10032800290000F041F800F065FA00BF000008005D
:100338000000000000000000000000006800002429
:1003480088000024000000000000000080B500AF15
:1003580000F038F80346002B14BF01230023DBB25A
:10036800002B01D000F0FAF90D4BD3F8F4300C4A09
:1003780043F00203C2F8F4300A4B1B6A094A43F0FF
:1003880001031362074B1B6A03F48073002B0CBF35
:1003980001230023DBB2002B00D0F3E700BF80BDB0
:1003A800004402580004005880B500AF00F0E2F89D
:1003B80000BFFDE780B400AF00BE00BFBD465DF8DA
:1003C800047B704780B483B000AF664B1B68654AF6
:1003D80043F01003136000233B60624B1B6803F07B
:1003E8000403002B0CBF01230023DAB25D4B1B680A
:1003F80003F02003002B0CBF01230023DBB21343BF
:10040800DBB2002B14BF01230023DBB2002B10D07A
:100418003B684FF66522934207DD524B1B68514AF1
:1004280023F001031360012395E03B6801333B602F
:10043800D3E74C4B9B694B4A43F048039361494BC4
:10044800DB69484A43F48863D361464B1B6A454AD3
:1004580043F040031362434BDA6A4249424B134369
:10046800CB62404B10229A623E4B404A1A633D4B86
:100478001B683C4A43F08073136000233B60394B90
:100488001B6803F00073002B0CBF01230023DBB2B1
:10049800002B0FD03B68B3F57A5F07DB314B1B6845
:1004A800304A23F080731360012354E03B68013322
:1004B8003B60E4E712237B602D4B12221A60002375
:1004C8003B602B4B1B68122B14BF01230023DBB2AC
:1004D800002B0CD03B68B3F57A5F04DB244B252254
:1004E8001A60012337E03B6801333B60E9E71D4BA5
:1004F8001B691C4A43F00303136100233B60194B3B
:100508001B6903F03803182B14BF01230023DBB247
:10051800002B0DD03B68B3F57A5F05DB114B114A10
:100528001B691361012316E03B6801333B60E6E772
:100538000C4B1B680B4A43F080031360094B1B6884
:1005480003F08003002B0CBF01230023DBB2002B38
:1005580000D0F3E7002318460C37BD465DF8047B4E
:10056800704700BF004402580C0001002702010137
:100578000020005280B400AF504BD3F8F0304F4AFF
:1005880043F00103C2F8F0304C4BD3F8E0304B4A4B
:1005980043F00103C2F8E030494B1B68484A23F492
:1005A80040331360464B1B68454A43F400331360DD
:1005B800434B9B68424A43F440339360404B5B6A29
:1005C8003F4A43F0010353623D4B1B683C4A23F406
:1005D800404313603A4B1B68394A43F400431360A5
:1005E800374B9B68364A43F440439360344B1B6A4D
:1005F800334A43F080531362314B1B68304A23F46B
:10060800402313602E4B1B682D4A43F400231360CC
:100618002B4B5B6A2A4A43F010035362284BDB6872
:10062800274A43F40023D360264B00229A62254BC5
:100638000122DA62234B01225A63224B9B69214A29
:1006480043F0600393611F4B9B691E4A43F0080304
:1006580093611C4B1B6A1B4A43F004031362194B3A
:100668001B6A184A43F001031362164B1B68154AAC
:1006780043F004031360134B5B69124A43F0010310
:100688005361104B9B680F4A43F0600393600D4B16
:100698009B680C4A43F0040393600A4B1B68094AA1
:1006A80043F001031360074B5B6C064A43F40043B5
:1006B800536400BFBD465DF8047B70470044025890
:1006C800000002580000014080B400AF0C4BD3F882
:1006D800E0300B4A43F00203C2F8E030094B1A68D5
:1006E8000849094B13400B60064B1A680549074B2C
:1006F80013430B6000BFBD465DF8047B704700BF25
:100708000044025800040258FC3FFFCF014000108B
:1007180080B400AF0F4B1B78002B08D00E4B4FF462
:1007280080429A610C4B4FF480329A610DE0094B7C
:100738001B7883F00103DBB2002B06D0064B4FF089
:1007480080429A61044B01229A6100BFBD465DF860
:10075800047B7047840000240004025880B400AF72
:10076800034B01221A7000BFBD465DF8047B704739
:100778008400002480B400AF034B00221A7000BF2D
:10078800BD465DF8047B7047840000240809000812
:100798000000002468000024680000248800002469
:1007A8000D488546FFF7D2FD0C480D490D4A002338
:1007B80002E0D458C4500433C4188C42F9D30A4A0E
:1007C8000A4C002301E013600432A242FBD300F07C
:1007D80025F8FFF7E9FDFEE70000082400000024E3
:1007E8006800002408090008680000248800002424
:1007F800FEE7000008B5074B044613B10021AFF32C
:100808000080054B1868836A03B19847204600F0BA
:1008180031F800BF00000000F408000870B50D4D65
:100828000D4C641BA4100026A64209D10B4D0C4C9C
:1008380000F024F8641BA4100026A64205D170BD60
:1008480055F8043B98470136EEE755F8043B9847BE
:100858000136F2E70009000800090008000900084D
:100868000409000802440346934200D1704703F884
:10087800011BF9E7FEE700BF00000000F8B500BF64
:10088800F8BC08BC9E467047F8B500BFF8BC08BC69
:040898009E467047C1
:10089C003B3E0B3E103E253E333E033E063E143E91
:1008AC000E3E0D3E243E123E273E023E183E093EB1
:1008BC000A3E000066FA0000803E0000803E000008
:1008CC00803E00003B3E0B3E103E253E333E033E39
:1008DC00063E143E0E3E0D3E243E123E273E023E88
:0C08EC00183E093E0A3E000008000024EF
:0808F800E0F9FF7F01000000A0
:04090000BD0200082C
:04090400990200084C
:1009080000000000080000240000000000000000B3
:1009180000000000000000000000000000000000CF
:1009280000000000000000000000000000000000BF
:1009380000000000000000000000000000000000AF
:10094800000000000000000000000000000000009F
:10095800000000000000000000000000000000008F
:08096800000000000000000087
:04000005080007A93F
:00000001FF
