:020000040800F2
:100000000000022041960208050700083108000898
:10001000919602089196020891960208000000004D
:10002000000000000000000000000000919602089F
:1000300091960208000000009196020885060008CB
:1000400091960208919602089196020891960208EC
:1000500091960208919602089196020891960208DC
:10006000C13C00089196020891960208F15D0008D3
:10007000255A0008A5670008919602089196020883
:1000800091960208919602089196020891960208AC
:10009000919602089196020891960208919602089C
:1000A000919602089196020891960208919602088C
:1000B000919602089196020891960208919602087C
:1000C000919602089196020891960208919602086C
:1000D000919602089196020891960208919602085C
:1000E00091960208919602080000000095680008A9
:1000F000919602089196020891960208919602083C
:10010000919602089196020891960208919602082B
:10011000919602089196020891960208919602081B
:10012000919602089196020891960208919602080B
:1001300091960208919602089196020891960208FB
:1001400000000000000000000000000000000000AF
:1001500091960208919602089196020891960208DB
:1001600091960208919602089196020891960208CB
:1001700091960208DF4300089196020891960208C2
:1001800091960208000000009196020891960208DC
:10019000919602089196020891960208919602089B
:1001A000919602089196020891960208919602088B
:1001B000919602089196020891960208919602087B
:1001C000919602089196020891960208919602086B
:1001D00091960208D1430008919602089196020870
:1001E000919602089196020891960208919602084B
:1001F000919602089196020891960208919602083B
:10020000919602089196020891960208919602082A
:10021000E5830008919602089196020891960208DB
:10022000919602089196020891960208000000003B
:10023000919602089196020800000000919602082B
:1002400091960208919602089196020891960208EA
:1002500091960208919602089196020891960208DA
:1002600091960208919602089196020891960208CA
:1002700091960208919602089196020891960208BA
:10028000919602080000000091960208000000000C
:08029000000000009196020835
:1002C000A3F5803A704700BF154B002B08BF114BB8
:1002D0009D46FFF7F5FF00218B460F461148124A55
:1002E000121A36F041FB0C4B002B00D098470B4BF9
:1002F000002B00D098470020002104000D000B487F
:1003000033F0AAF936F08EFE2000290000F086F9BD
:1003100033F0ACF90000080000000000000000000D
:10032000000000008807002090230120757003085A
:1003300080B582B000AF0346FB71064813F0F8FBAE
:10034000FA790023032113F029FC00BF0837BD46CA
:1003500080BD00BF2844025890B587B000AF7860D8
:100360003960244B1B687B614FF00003224A3B68D5
:1003700013603B1D184613F03CFB04461E4813F067
:1003800065FB0346FB6007F10C03184613F031FBD5
:100390000346B4FBF3F3013B3B61184813F0C8FB81
:1003A000034600220021184613F0E2FB144813F024
:1003B000BFFB034600223969184613F016FC114BA7
:1003C000184613F0B5FB034600220721184613F028
:1003D00021FC0D4B01221A7000BF064B1A687B6985
:1003E0005A404FF0000301D036F090FE1C37BD4656
:1003F00090BD00BFF02101209C00002018E000E02B
:1004000014E000E010E000E0D01B012080B500AF58
:10041000074B184613F08CFB0346002200211846B8
:1004200013F0A6FB034B00221A7000BF80BD00BF73
:1004300010E000E0D01B012080B582B000AF7860F2
:100440003960FFF7E3FF39687868FFF785FF00BF81
:100450000837BD4680BD80B500AF054B1B68054A17
:100460001946106813F0EDFB0346184680BD00BF27
:10047000CC1B01209C00002090B585B000AF7860B7
:100480001B4B1B68FB604FF000031A4B1B7883F07B
:100490000103DBB2002B03D00021174813F0E0FB6F
:1004A000164B1B68164A1946106813F0CAFB034620
:1004B000BB6000BFFFF7CFFF044607F10803796870
:1004C000184613F087FA03461946204613F0D8FB66
:1004D0000346002BEED100BF054B1A68FB685A405B
:1004E0004FF0000301D036F011FE1437BD4690BD29
:1004F000F0210120D01B012088070020CC1B012007
:100500009C00002080B400AF044B1B680133034AF9
:10051000136000BFBD465DF8047B7047CC1B012013
:1005200080B59EB01EAF3C4813F002FB034600228C
:100530004FF47001184613F0B5FB00F06BFB06F0AA
:100540009FFA06F0D3FA06F007FB4FF48D731D9364
:1005500040F219131C9340F215331B9340F2011320
:100560001A934FF48073199340F20D73189340F26D
:100570000F53179340F20E53169340F20C731593DA
:1005800040F20623149340F60F03139340F21D53D9
:1005900012934FF44673119340F20513109340F2F7
:1005A00002530F9340F206530E934FF4E2630D9300
:1005B0004FF4E0630C9340F213530B9340F60703A0
:1005C0000A9340F21753099340F21653089340F2EE
:1005D0001553079340F20A33069340F2093305930B
:1005E0004FF44273049340F20733039340F206330F
:1005F000029340F2053301934FF44173009340F2AC
:10060000033340F2023240F201314FF4407013F0F4
:1006100060FB00BFBD4680BD88ED00E098B500AF2F
:100620004FF4F0704FF0000113F0EFF904464FF073
:1006300001004FF0000113F0BFF9034619462046B0
:10064000FFF78AFE03F0BEFC03F09EF904F044FFBE
:1006500007F0C8FC05F040FF05F026F805F002FAA7
:10066000002006F0CBFA00214FF0FF300DF01CF80F
:1006700000BF08F0A9FA024808F0CDF800BFF2E781
:10068000C807002080B500AFFFF73CFF024808F024
:100690008BF800BF80BD00BFC807002080B582B0C6
:1006A00000AF7860786813F05DF903461846FFF7ED
:1006B000E3FE00BF0837BD4680BD80B582B000AF05
:1006C0000F4B1B687B604FF00003FFF7C4FE03462F
:1006D0003B603B46184613F055F9F0EE407AFCEECD
:1006E000E77A17EE903A064A11687A6851404FF05F
:1006F000000201D036F00AFD18460837BD4680BD1D
:10070000F021012080B500AF0A4813F011FA03462A
:1007100000224FF48061184613F08AFB0346002B39
:1007200014BF01230023DBB2002B01D000BFFDE783
:1007300000BF80BD6444025880B586B000AFF86049
:10074000B9607A607B68BA683A617B617A693969B5
:1007500000200FF00FF800BF00200FF041F800BF9D
:10076000002318461837BD4680BD80B58AB000AF5B
:100770007860396072B600BF022006F03FFA06F0DA
:100780004DFA7B68234A93423AD07B68214A9342D0
:100790003CD87B68204A934226D07B681E4A93420D
:1007A00034D87B681D4A934224D07B681B4A93420D
:1007B0002CD87B681A4A934219D07B68184A934216
:1007C00024D87B68174A934217D07B68154A934216
:1007D0001CD87B68144A934215D07B68134A934215
:1007E00014D13B683B6212E03B683B610FE03B6821
:1007F000BB610CE03B687B6109E03B68FB6106E0A4
:100800003B68FB6003E03B687B6200E000BF00BF29
:10081000FDE700BFB8D736E79DDBEDABABC7EDAB6F
:100820000FB8EDABC019459CAE820200E7F77C6AB9
:1008300080B582B000AF72B600BF1F4813F078F9E0
:100840000346184613F00DFB38603B6803F0804305
:10085000002B01D000BE05E03B6803F00203002B33
:1008600000D000BE154813F063F90346184613F094
:10087000F8FA78607B6803F00073002B01D000BEAB
:1008800015E07B6803F08073002B01D000BE0EE002
:100890007B6803F40023002B01D000BE07E07B68D7
:1008A00003F01003002B01D000BE00E000BE00BF2B
:1008B0000837BD4680BD00BF2CED00E028ED00E00C
:1008C00080B582B002AF002300930523034A642160
:1008D000034813F0F7F800BFBD4680BD1D6C00084B
:1008E000C807002080B500AFFFF7EAFF80BD00BF5A
:1008F00080B582B000AF0346FB71064813F018F9CB
:10090000FA790023032113F049F900BF0837BD46E7
:1009100080BD00BF2844025890B587B000AF786012
:100920003960244B1B687B614FF00003224A3B680F
:1009300013603B1D184613F05CF804461E4813F084
:1009400085F80346FB6007F10C03184613F051F8D5
:100950000346B4FBF3F3013B3B61184813F0E8F89E
:10096000034600220021184613F002F9144813F040
:10097000DFF8034600223969184613F036F9114BA7
:10098000184613F0D5F8034600220721184613F045
:1009900041F90D4B01221A7000BF064B1A687B69A2
:1009A0005A404FF0000301D036F0B0FB1C37BD4673
:1009B00090BD00BFF02101209C00002018E000E065
:1009C00014E000E010E000E0D01B012080B500AF93
:1009D000074B184613F0ACF80346002200211846D6
:1009E00013F0C6F8034B00221A7000BF80BD00BF91
:1009F00010E000E0D01B012080B582B000AF78602D
:100A00003960FFF7E3FF39687868FFF785FF00BFBB
:100A10000837BD4680BD80B500AF054B1B68054A51
:100A20001946106813F00DF90346184680BD00BF43
:100A3000CC1B01209C00002090B585B000AF7860F1
:100A40001B4B1B68FB604FF000031A4B1B7883F0B5
:100A50000103DBB2002B03D00021174813F000F98B
:100A6000164B1B68164A1946106813F0EAF803463D
:100A7000BB6000BFFFF7CFFF044607F108037968AA
:100A8000184612F0A7FF03461946204613F0F8F85F
:100A90000346002BEED100BF054B1A68FB685A4095
:100AA0004FF0000301D036F031FB1437BD4690BD46
:100AB000F0210120D01B0120E0070020CC1B0120E9
:100AC0009C00002080B582B000AF78600021034810
:100AD00013F0D4FB00BF0837BD4680BDD807002007
:100AE00080B582B000AF78600121034813F0C6FBE7
:100AF00000BF0837BD4680BDD807002080B582B052
:100B000000AF78600221034813F0B8FB00BF08373C
:100B1000BD4680BDD807002080B582B000AF7860A8
:100B20000321034813F0AAFB00BF0837BD4680BD70
:100B3000D807002080B582B000AF78600421034858
:100B400013F09CFB00BF0837BD4680BDD8070020CE
:100B500080B582B000AF78600521034813F08EFBAA
:100B600000BF0837BD4680BDD807002080B582B0E1
:100B700000AF78600621034813F080FB00BF083700
:100B8000BD4680BDD807002080B582B000AF786038
:100B90000921034813F072FB00BF0837BD4680BD32
:100BA000D807002080B582B000AF78600A210348E2
:100BB00013F064FB00BF0837BD4680BDD807002096
:100BC00080B582B000AF78600A21034813F056FB6D
:100BD00000BF0837BD4680BDD807002080B582B071
:100BE00000AF78600A21034813F048FB00BF0837C4
:100BF000BD4680BDD807002080B582B000AF7860C8
:100C00000A21034813F03AFB00BF0837BD4680BDF8
:100C1000D807002090B591B004AFE64B1B68FB628B
:100C20004FF000034FF040004FF0000112F0EDFED6
:100C300004464FF001004FF0000112F0BDFE0346E4
:100C400019462046FFF768FEDB4812F071FF0346A5
:100C500002220121184612F0DDFFD84812F068FF89
:100C6000044607F1140207F11C031146184600F070
:100C7000EDFA4FF47A704FF0000112F09DFE03463A
:100C800007F11C024FF40051204613F01BFB07F143
:100C90001C03184613F0D8F9C94812F049FF03465F
:100CA0000E220321184612F0B5FFC54812F040FF8E
:100CB000044607F1140207F11C031146184600F020
:100CC000F5FA4FF47A704FF0000112F075FE03460A
:100CD00007F11C024FF40051204613F0F3FA07F11C
:100CE0001C03184613F0B0F9B64812F021FF034672
:100CF00000220221184612F0D5FFB34812F018FF67
:100D0000034600220121184612F0CCFFAC4812F035
:100D10000FFF044607F1140207F11C0311461846A1
:100D200000F0F4FA4FF47A704FF0000112F044FE34
:100D3000034607F11C024FF40051204613F0C2FA9B
:100D400007F11C03184613F07FF9A04B184612F068
:100D5000EFFE034600224FF41021184612F0A2FFC6
:100D60009A4B184612F0E4FE044607F1140207F10C
:100D70001C031146184600F0F9FA4FF47A704FF050
:100D8000000112F019FE034607F11C024FF4003176
:100D9000204613F097FA07F11C03184613F054F994
:100DA0008A4B184612F0C4FE034600224FF48051CD
:100DB000184612F077FF854B184612F0B9FE04462C
:100DC00007F1140207F11C031146184600F0FEFA61
:100DD0004FF47A704FF0000112F0EEFD034607F178
:100DE0001C024FF40051204613F06CFA07F11C036B
:100DF000184613F029F9754B184612F099FE034670
:100E000000228021184612F04DFF704B184612F058
:100E10008FFE044607F1140207F11C031146184621
:100E200000F004FB4FF47A704FF0000112F0C4FDA3
:100E3000034607F11C024FF48071204613F042FA7A
:100E400007F11C03184613F0FFF83423BB61604B15
:100E5000184612F06DFE034600223421184612F0A7
:100E6000C4FE5B4B184612F063FE044607F1140201
:100E700007F11C031146184600F008FB4FF47A7086
:100E80004FF0000112F098FD024607F11C0300929A
:100E900034223F21204613F045FA07F11C0318467F
:100EA00013F0D2F80220FFF723FD3B1D002203219F
:100EB000184613F0E1F83B1D184613F0C1FAFFF78E
:100EC000AAFD03467B611BE0FFF7A5FD04464FF436
:100ED000FA604FF0000112F06FFD024607F11403B3
:100EE0001146184612F076FD03461946204613F0C7
:100EF000E1FA0346002B03D00721364813F0BEF970
:100F00003B1D184613F0B6FA034683F00103DBB22B
:100F1000002BD9D10220FFF7EBFC07F108030022D8
:100F20000321184613F01EF907F10803184613F0C1
:100F3000D3FAFFF770FD03467B611BE0FFF76BFD03
:100F400004464FF4FA604FF0000112F035FD0246FE
:100F500007F114031146184612F03CFD03461946EA
:100F6000204613F0A7FA0346002B03D007211948A7
:100F700013F084F907F10803184613F0C7FA034683
:100F800083F00103DBB2002BD8D107F10C0003235F
:100F9000039304230293042301930423009308235F
:100FA0000422002112F0F4FFFFF735FD03467B61B8
:100FB0002EE000BFF02101200C48025804480258DE
:100FC00018480258F44402582C04005800440258AF
:100FD00000200052D8070020FFF71DFD04464FF403
:100FE0007A704FF0000112F0E7FC024607F114039B
:100FF0001146184612F0EEFC03461946204613F03F
:1010000059FA0346002B03D007218A4813F036F91A
:1010100007F10C03184613F001F80346032B14BF25
:1010200001230023DBB2002BD6D14FF4F0704FF038
:10103000000112F0EAFC04464FF001004FF00001FD
:1010400012F0BAFC034619462046FFF7D5FC7A4851
:1010500012F06EFD034600220121184612F022FE16
:10106000754812F065FD044607F1100207F11C03F4
:101070001146184600F03AFA4FF47A704FF000012A
:1010800012F09AFC034607F11C024FF480712046CF
:1010900013F018F907F11C03184612F0D5FF674842
:1010A00012F046FD034600224FF44011184612F09C
:1010B000F9FD624812F03CFD044607F1100207F109
:1010C0001C031146184600F041FA4FF47A704FF0B5
:1010D000000112F071FC024607F11C0300924FF46C
:1010E00040124FF44011204613F01CF907F11C0385
:1010F000184612F0A9FF514812F01AFD03460022CB
:101100004FF48051184612F0CDFD4C4812F010FDFE
:10111000044607F1100207F11C031146184600F0BF
:1011200045FA4FF47A704FF0000112F045FC024688
:1011300007F11C0300924FF480524FF440512046B7
:1011400013F0F0F807F11C03184612F07DFF3C483D
:1011500012F0EEFC034600224FF48071184612F0A4
:10116000A1FD374812F0E4FC044607F1100207F134
:101170001C031146184600F049FA4FF47A704FF0FC
:10118000000112F019FC024607F11C0300924FF413
:1011900080724FF44071204613F0C4F807F11C032D
:1011A000184612F051FF254812F0C2FC03460022F7
:1011B0000421184612F076FD204812F0B9FC0446CE
:1011C00007F1100207F11C031146184600F04EFA11
:1011D0004FF47A704FF0000112F0EEFB024607F177
:1011E0001C03009204220721204613F09BF807F10C
:1011F0001C03184612F028FF124812F099FC1C2319
:101200000222032112F0CAFC0D4812F091FC1023B7
:101210000222032112F0C2FC00BF0B4B1A68FB6ACA
:101220005A404FF0000301D035F070FF3437BD460F
:1012300090BD00BFD8070020200400585444025835
:10124000584402584C440258F021012090B583B014
:1012500000AF786039607B681A46002313605360E2
:1012600093607B68184613F019F87B680022DA60F7
:10127000386800F02BFA0346002B0ED07C683868E3
:1012800000F02FFA03461946204600F035FA7B6835
:10129000044ADA607B68044A9A607B6818460C3717
:1012A000BD4690BD1D1700083B17000890B583B0E0
:1012B00000AF786039607B681A4600231360536082
:1012C00093607B68184612F0E9FF7B680022DA60C1
:1012D000386800F05DFA0346002B0ED07C68386851
:1012E00000F061FA03461946204600F067FA7B6871
:1012F000044ADA607B68044A9A607B6818460C37B7
:10130000BD4690BDE1170008FF17000890B583B0F7
:1013100000AF786039607B681A4600231360536021
:1013200093607B68184612F0B9FF7B680022DA6090
:10133000386800F08FFA0346002B0ED07C683868BE
:1013400000F093FA03461946204600F099FA7B68AC
:10135000044ADA607B68044A9A607B6818460C3756
:10136000BD4690BDA5180008C318000890B583B00D
:1013700000AF786039607B681A46002313605360C1
:1013800093607B68184612F089FF7B680022DA6060
:10139000386800F0C1FA0346002B0ED07C6838682C
:1013A00000F0C5FA03461946204600F0CBFA7B68E8
:1013B000044ADA607B68044A9A607B6818460C37F6
:1013C000BD4690BD691900088719000890B583B023
:1013D00000AF786039607B681A4600231360536061
:1013E00093607B68184612F059FF7B680022DA6030
:1013F000386800F0F3FA0346002B0ED07C6838689A
:1014000000F0F7FA03461946204600F0FDFA7B6823
:10141000044ADA607B68044A9A607B6818460C3795
:10142000BD4690BD2D1A00084B1A000890B583B038
:1014300000AF786039607B681A4600231360536000
:1014400093607B68184612F029FF7B680022DA60FF
:10145000386800F025FB0346002B0ED07C68386806
:1014600000F029FB03461946204600F02FFB7B685D
:10147000044ADA607B68044A9A607B6818460C3735
:10148000BD4690BDF11A00080F1B000890B583B04F
:1014900000AF786039607B681A46002313605360A0
:1014A00093607B68184612F0F9FE7B680022DA60D0
:1014B000386800F057FB0346002B0ED07C68386874
:1014C00000F05BFB03461946204600F061FB7B6899
:1014D000044ADA607B68044A9A607B6818460C37D5
:1014E000BD4690BDB51B0008D31B000890B583B066
:1014F00000AF786039607B681A4600231360536040
:1015000093607B68184612F0C9FE7B680022DA609F
:10151000386800F089FB0346002B0ED07C683868E1
:1015200000F08DFB03461946204600F093FB7B68D4
:10153000044ADA607B68044A9A607B6818460C3774
:10154000BD4690BD791C0008971C000890B583B07B
:1015500000AF786039607B681A46002313605360DF
:1015600093607B68184612F099FE7B680022DA606F
:10157000386800F0BBFB0346002B0ED07C6838684F
:1015800000F0BFFB03461946204600F0C5FB7B6810
:10159000044ADA607B68044A9A607B6818460C3714
:1015A000BD4690BD3D1D00085B1D000890B583B091
:1015B00000AF786039607B681A460023136053607F
:1015C00093607B68184612F069FE7B680022DA603F
:1015D000386800F0EDFB0346002B0ED07C683868BD
:1015E00000F0F1FB03461946204600F0F7FB7B684C
:1015F000044ADA607B68044A9A607B6818460C37B4
:10160000BD4690BD011E00081F1E000890B583B0A6
:1016100000AF786039607B681A460023136053601E
:1016200093607B68184612F039FE7B680022DA600E
:10163000386800F01FFC0346002B0ED07C68386829
:1016400000F023FC03461946204600F029FC7B6885
:10165000044ADA607B68044A9A607B6818460C3753
:10166000BD4690BDC51E0008E31E000890B583B0BE
:1016700000AF786039607B681A46002313605360BE
:1016800093607B68184612F009FE7B680022DA60DE
:10169000386800F051FC0346002B0ED07C68386897
:1016A00000F055FC03461946204600F05BFC7B68C1
:1016B000044ADA607B68044A9A607B6818460C37F3
:1016C000BD4690BD891F0008A71F000880B483B0E5
:1016D00000AF7860012318460C37BD465DF8047BE7
:1016E000704780B483B000AF78607B6818460C37D1
:1016F000BD465DF8047B704790B583B000AF78605D
:1017000039603868FFF7EDFF0346224619467868CE
:1017100000F074FC00BF0C37BD4690BD80B582B0B0
:1017200000AF7860786800F07EFC0346184600F051
:101730008AFC00BF0837BD4680BD90B585B000AFBC
:10174000F860B9601346FB71FB79002B02D0012BC6
:1017500007D010E0F86812F04AFF03460B4A1A60FF
:101760000FE0B86800F05FFC0446F86800F07BFC0E
:1017700003461C6005E0FB791A46B968F86800F07A
:101780007EFC002318461437BD4690BD14FE0308A6
:1017900080B483B000AF7860012318460C37BD4693
:1017A0005DF8047B704780B483B000AF78607B68DD
:1017B00018460C37BD465DF8047B704790B583B082
:1017C00000AF786039603868FFF7EDFF03462246C6
:1017D0001946786800F08EFC00BF0C37BD4690BDFE
:1017E00080B582B000AF7860786800F098FC03465E
:1017F000184600F0A4FC00BF0837BD4680BD90B578
:1018000085B000AFF860B9601346FB71FB79002B1F
:1018100002D0012B07D010E0F86812F0E8FE034672
:101820000B4A1A600FE0B86800F079FC0446F868CB
:1018300000F095FC03461C6005E0FB791A46B96888
:10184000F86800F098FC002318461437BD4690BD98
:10185000F4FD030880B483B000AF7860012318461C
:101860000C37BD465DF8047B704780B483B000AF91
:1018700078607B6818460C37BD465DF8047B70477E
:1018800090B583B000AF786039603868FFF7EDFF3E
:10189000034622461946786800F0A8FC00BF0C37C2
:1018A000BD4690BD80B582B000AF7860786800F02A
:1018B000B2FC0346184600F0BEFC00BF0837BD4628
:1018C00080BD90B585B000AFF860B9601346FB717C
:1018D000FB79002B02D0012B07D010E0F86812F042
:1018E00086FE03460B4A1A600FE0B86800F093FCCE
:1018F0000446F86800F0AFFC03461C6005E0FB7985
:101900001A46B968F86800F0B2FC0023184614378C
:10191000BD4690BDD4FD030880B483B000AF7860AD
:10192000012318460C37BD465DF8047B704780B430
:1019300083B000AF78607B6818460C37BD465DF811
:10194000047B704790B583B000AF78603960386829
:10195000FFF7EDFF034622461946786800F0C2FC07
:1019600000BF0C37BD4690BD80B582B000AF786037
:10197000786800F0CCFC0346184600F0D8FC00BFA5
:101980000837BD4680BD90B585B000AFF860B9603E
:101990001346FB71FB79002B02D0012B07D010E01E
:1019A000F86812F024FE03460B4A1A600FE0B8688C
:1019B00000F0ADFC0446F86800F0C9FC03461C606A
:1019C00005E0FB791A46B968F86800F0CCFC002302
:1019D00018461437BD4690BDB4FD030880B483B0EB
:1019E00000AF7860012318460C37BD465DF8047BD4
:1019F000704780B483B000AF78607B6818460C37BE
:101A0000BD465DF8047B704790B583B000AF786049
:101A100039603868FFF7EDFF0346224619467868BB
:101A200000F0DCFC00BF0C37BD4690BD80B582B035
:101A300000AF7860786800F0E6FC0346184600F0D6
:101A4000F2FC00BF0837BD4680BD90B585B000AF41
:101A5000F860B9601346FB71FB79002B02D0012BB3
:101A600007D010E0F86812F0C2FD03460B4A1A6076
:101A70000FE0B86800F0C7FC0446F86800F0E3FC2B
:101A800003461C6005E0FB791A46B968F86800F067
:101A9000E6FC002318461437BD4690BD94FD0308AC
:101AA00080B483B000AF7860012318460C37BD4680
:101AB0005DF8047B704780B483B000AF78607B68CA
:101AC00018460C37BD465DF8047B704790B583B06F
:101AD00000AF786039603868FFF7EDFF03462246B3
:101AE0001946786800F0F6FC00BF0C37BD4690BD83
:101AF00080B582B000AF7860786800F000FD0346E2
:101B0000184600F00CFD00BF0837BD4680BD90B5FB
:101B100085B000AFF860B9601346FB71FB79002B0C
:101B200002D0012B07D010E0F86812F060FD0346E8
:101B30000B4A1A600FE0B86800F0E1FC0446F86850
:101B400000F0FDFC03461C6005E0FB791A46B9680D
:101B5000F86800F000FD002318461437BD4690BD1C
:101B600074FD030880B483B000AF78600123184689
:101B70000C37BD465DF8047B704780B483B000AF7E
:101B800078607B6818460C37BD465DF8047B70476B
:101B900090B583B000AF786039603868FFF7EDFF2B
:101BA000034622461946786800F010FD00BF0C3746
:101BB000BD4690BD80B582B000AF7860786800F017
:101BC0001AFD0346184600F026FD00BF0837BD4643
:101BD00080BD90B585B000AFF860B9601346FB7169
:101BE000FB79002B02D0012B07D010E0F86812F02F
:101BF000FEFC03460B4A1A600FE0B86800F0FBFCDD
:101C00000446F86800F017FD03461C6005E0FB7908
:101C10001A46B968F86800F01AFD00231846143710
:101C2000BD4690BD54FD030880B483B000AF78601A
:101C3000012318460C37BD465DF8047B704780B41D
:101C400083B000AF78607B6818460C37BD465DF8FE
:101C5000047B704790B583B000AF78603960386816
:101C6000FFF7EDFF034622461946786800F02AFD8B
:101C700000BF0C37BD4690BD80B582B000AF786024
:101C8000786800F034FD0346184600F040FD00BFC0
:101C90000837BD4680BD90B585B000AFF860B9602B
:101CA0001346FB71FB79002B02D0012B07D010E00B
:101CB000F86812F09CFC03460B4A1A600FE0B86803
:101CC00000F015FD0446F86800F031FD03461C6085
:101CD00005E0FB791A46B968F86800F034FD002386
:101CE00018461437BD4690BD34FD030880B483B058
:101CF00000AF7860012318460C37BD465DF8047BC1
:101D0000704780B483B000AF78607B6818460C37AA
:101D1000BD465DF8047B704790B583B000AF786036
:101D200039603868FFF7EDFF0346224619467868A8
:101D300000F044FD00BF0C37BD4690BD80B582B0B9
:101D400000AF7860786800F04EFD0346184600F05A
:101D50005AFD00BF0837BD4680BD90B585B000AFC5
:101D6000F860B9601346FB71FB79002B02D0012BA0
:101D700007D010E0F86812F03AFC03460B4A1A60EC
:101D80000FE0B86800F02FFD0446F86800F04BFD46
:101D900003461C6005E0FB791A46B968F86800F054
:101DA0004EFD002318461437BD4690BD14FD0308B0
:101DB00080B483B000AF7860012318460C37BD466D
:101DC0005DF8047B704780B483B000AF78607B68B7
:101DD00018460C37BD465DF8047B704790B583B05C
:101DE00000AF786039603868FFF7EDFF03462246A0
:101DF0001946786800F05EFD00BF0C37BD4690BD07
:101E000080B582B000AF7860786800F068FD034666
:101E1000184600F074FD00BF0837BD4680BD90B580
:101E200085B000AFF860B9601346FB71FB79002BF9
:101E300002D0012B07D010E0F86812F0D8FB03465F
:101E40000B4A1A600FE0B86800F049FD0446F868D4
:101E500000F065FD03461C6005E0FB791A46B96891
:101E6000F86800F068FD002318461437BD4690BDA1
:101E7000F4FC030880B483B000AF786001231846F7
:101E80000C37BD465DF8047B704780B483B000AF6B
:101E900078607B6818460C37BD465DF8047B704758
:101EA00090B583B000AF786039603868FFF7EDFF18
:101EB000034622461946786800F078FD00BF0C37CB
:101EC000BD4690BD80B582B000AF7860786800F004
:101ED00082FD0346184600F08EFD00BF0837BD4660
:101EE00080BD90B585B000AFF860B9601346FB7156
:101EF000FB79002B02D0012B07D010E0F86812F01C
:101F000076FB03460B4A1A600FE0B86800F063FDE9
:101F10000446F86800F07FFD03461C6005E0FB798D
:101F20001A46B968F86800F082FD00231846143795
:101F3000BD4690BDD4FC030880B483B000AF786088
:101F4000012318460C37BD465DF8047B704780B40A
:101F500083B000AF78607B6818460C37BD465DF8EB
:101F6000047B704790B583B000AF78603960386803
:101F7000FFF7EDFF034622461946786800F092FD10
:101F800000BF0C37BD4690BD80B582B000AF786011
:101F9000786800F09CFD0346184600F0A8FD00BFDD
:101FA0000837BD4680BD90B585B000AFF860B96018
:101FB0001346FB71FB79002B02D0012B07D010E0F8
:101FC000F86812F014FB03460B4A1A600FE0B86879
:101FD00000F07DFD0446F86800F099FD03461C60A2
:101FE00005E0FB791A46B968F86800F09CFD00230B
:101FF00018461437BD4690BDB4FC030880B584B0C4
:1020000000AFF860B9603A71F86811F086FF0346D6
:102010001946012011F075FFB868FFF762FB00BF99
:102020001037BD4680BD80B584B000AF7860786859
:1020300000F0B4FDF860F86800F0BCFD03461846F7
:102040001037BD4680BD90B583B000AF786078682A
:1020500000F0BBFD03461946204600F0C1FD00BF5D
:102060000C37BD4690BD80B582B000AF786078680F
:1020700011F053FF034618460837BD4680BD90B5A2
:1020800085B000AFF860B9601346FB71FB79032B94
:1020900029D801A252F823F0A9200008B72000088F
:1020A000CB200008DD200008F86812F0A0FA0346F3
:1020B0000F4A1A6017E0B868FFF7B5FF0446F868E2
:1020C000FFF7D1FF03461C600DE0B868FFF7ABFFD8
:1020D00003461946F86800F093FD04E02146F868CD
:1020E00000F0A0FD00BF002318461437BD4690BD88
:1020F00014FE030880B584B000AFF860B9603A718F
:10210000F86811F00AFF03461946012011F0F9FEA4
:10211000B868FFF748FB00BF1037BD4680BD80B5EB
:1021200084B000AF7860786800F088FDF860F868E7
:1021300000F090FD034618461037BD4680BD90B5AF
:1021400083B000AF7860786800F08FFD03461946D1
:10215000204600F095FD00BF0C37BD4690BD80B510
:1021600082B000AF7860786811F0D7FE0346184659
:102170000837BD4680BD90B585B000AFF860B96046
:102180001346FB71FB79032B29D801A252F823F0E7
:10219000A1210008AF210008C3210008D5210008B3
:1021A000F86812F024FA03460F4A1A6017E0B8687C
:1021B000FFF7B5FF0446F868FFF7D1FF03461C6040
:1021C0000DE0B868FFF7ABFF03461946F86800F06A
:1021D00067FD04E02146F86800F074FD00BF0023AD
:1021E00018461437BD4690BDF4FD030880B584B091
:1021F00000AFF860B9603A71F86811F08EFE0346DE
:102200001946012011F07DFEB868FFF72EFB00BFD4
:102210001037BD4680BD80B584B000AF7860786867
:1022200000F05CFDF860F86800F064FD03461846B5
:102230001037BD4680BD90B583B000AF7860786838
:1022400000F063FD03461946204600F069FD00BF1B
:102250000C37BD4690BD80B582B000AF786078681D
:1022600011F05BFE034618460837BD4680BD90B5A9
:1022700085B000AFF860B9601346FB71FB79032BA2
:1022800029D801A252F823F099220008A7220008B9
:10229000BB220008CD220008F86812F0A8F9034616
:1022A0000F4A1A6017E0B868FFF7B5FF0446F868F0
:1022B000FFF7D1FF03461C600DE0B868FFF7ABFFE6
:1022C00003461946F86800F03BFD04E02146F86833
:1022D00000F048FD00BF002318461437BD4690BDEE
:1022E000D4FD030880B584B000AFF860B9603A71DE
:1022F000F86811F012FE03461946012011F001FEA4
:10230000B868FFF714FB00BF1037BD4680BD80B52D
:1023100084B000AF7860786800F030FDF860F8684D
:1023200000F038FD034618461037BD4680BD90B515
:1023300083B000AF7860786800F037FD0346194637
:10234000204600F03DFD00BF0C37BD4690BD80B576
:1023500082B000AF7860786811F0DFFD0346184660
:102360000837BD4680BD90B585B000AFF860B96054
:102370001346FB71FB79032B29D801A252F823F0F5
:10238000912300089F230008B3230008C5230008F9
:10239000F86812F02CF903460F4A1A6017E0B86883
:1023A000FFF7B5FF0446F868FFF7D1FF03461C604E
:1023B0000DE0B868FFF7ABFF03461946F86800F078
:1023C0000FFD04E02146F86800F01CFD00BF00236B
:1023D00018461437BD4690BDB4FD030880B584B0DF
:1023E00000AFF860B9603A71F86811F096FD0346E5
:1023F0001946012011F085FDB868FFF7FAFA00BF11
:102400001037BD4680BD80B584B000AF7860786875
:1024100000F004FDF860F86800F00CFD0346184673
:102420001037BD4680BD90B583B000AF7860786846
:1024300000F00BFD03461946204600F011FD00BFD9
:102440000C37BD4690BD80B582B000AF786078682B
:1024500011F063FD034618460837BD4680BD90B5B0
:1024600085B000AFF860B9601346FB71FB79032BB0
:1024700029D801A252F823F08924000897240008E3
:10248000AB240008BD240008F86812F0B0F8034639
:102490000F4A1A6017E0B868FFF7B5FF0446F868FE
:1024A000FFF7D1FF03461C600DE0B868FFF7ABFFF4
:1024B00003461946F86800F0E3FC04E02146F8689A
:1024C00000F0F0FC00BF002318461437BD4690BD55
:1024D00094FD030880B584B000AFF860B9603A712C
:1024E000F86811F01AFD03461946012011F009FDA4
:1024F000B868FFF7E0FA00BF1037BD4680BD80B571
:1025000084B000AF7860786800F0D8FCF860F868B4
:1025100000F0E0FC034618461037BD4680BD90B57C
:1025200083B000AF7860786800F0DFFC034619469E
:10253000204600F0E5FC00BF0C37BD4690BD80B5DD
:1025400082B000AF7860786811F0E7FC0346184667
:102550000837BD4680BD90B585B000AFF860B96062
:102560001346FB71FB79032B29D801A252F823F003
:10257000812500088F250008A3250008B52500083F
:10258000F86812F034F803460F4A1A6017E0B8688A
:10259000FFF7B5FF0446F868FFF7D1FF03461C605C
:1025A0000DE0B868FFF7ABFF03461946F86800F086
:1025B000B7FC04E02146F86800F0C4FC00BF00232B
:1025C00018461437BD4690BD74FD030880B584B02D
:1025D00000AFF860B9603A71F86811F09EFC0346EC
:1025E0001946012011F08DFCB868FFF7C6FA00BF4C
:1025F0001037BD4680BD80B584B000AF7860786884
:1026000000F0ACFCF860F86800F0B4FC0346184633
:102610001037BD4680BD90B583B000AF7860786854
:1026200000F0B3FC03461946204600F0B9FC00BF99
:102630000C37BD4690BD80B582B000AF7860786839
:1026400011F06BFC034618460837BD4680BD90B5B7
:1026500085B000AFF860B9601346FB71FB79032BBE
:1026600029D801A252F823F079260008872600080D
:102670009B260008AD260008F86811F0B8FF034655
:102680000F4A1A6017E0B868FFF7B5FF0446F8680C
:10269000FFF7D1FF03461C600DE0B868FFF7ABFF02
:1026A00003461946F86800F08BFC04E02146F86800
:1026B00000F098FC00BF002318461437BD4690BDBB
:1026C00054FD030880B584B000AFF860B9603A717A
:1026D000F86811F022FC03461946012011F011FCA4
:1026E000B868FFF7ACFA00BF1037BD4680BD80B5B3
:1026F00084B000AF7860786800F080FCF860F8681B
:1027000000F088FC034618461037BD4680BD90B5E2
:1027100083B000AF7860786800F087FC0346194604
:10272000204600F08DFC00BF0C37BD4690BD80B543
:1027300082B000AF7860786811F0EFFB034618466E
:102740000837BD4680BD90B585B000AFF860B96070
:102750001346FB71FB79032B29D801A252F823F011
:10276000712700087F27000893270008A527000885
:10277000F86811F03CFF03460F4A1A6017E0B8688A
:10278000FFF7B5FF0446F868FFF7D1FF03461C606A
:102790000DE0B868FFF7ABFF03461946F86800F094
:1027A0005FFC04E02146F86800F06CFC00BF0023E9
:1027B00018461437BD4690BD34FD030880B584B07B
:1027C00000AFF860B9603A71F86811F0A6FB0346F3
:1027D0001946012011F095FBB868FFF792FA00BF87
:1027E0001037BD4680BD80B584B000AF7860786892
:1027F00000F054FCF860F86800F05CFC03461846F2
:102800001037BD4680BD90B583B000AF7860786862
:1028100000F05BFC03461946204600F061FC00BF57
:102820000C37BD4690BD80B582B000AF7860786847
:1028300011F073FB034618460837BD4680BD90B5BE
:1028400085B000AFF860B9601346FB71FB79032BCC
:1028500029D801A252F823F0692800087728000837
:102860008B2800089D280008F86811F0C0FE034678
:102870000F4A1A6017E0B868FFF7B5FF0446F8681A
:10288000FFF7D1FF03461C600DE0B868FFF7ABFF10
:1028900003461946F86800F033FC04E02146F86866
:1028A00000F040FC00BF002318461437BD4690BD21
:1028B00014FD030880B584B000AFF860B9603A71C8
:1028C000F86811F02AFB03461946012011F019FBA4
:1028D000B868FFF778FA00BF1037BD4680BD80B5F5
:1028E00084B000AF7860786800F028FCF860F86881
:1028F00000F030FC034618461037BD4680BD90B549
:1029000083B000AF7860786800F02FFC034619466A
:10291000204600F035FC00BF0C37BD4690BD80B5A9
:1029200082B000AF7860786811F0F7FA0346184675
:102930000837BD4680BD90B585B000AFF860B9607E
:102940001346FB71FB79032B29D801A252F823F01F
:10295000612900086F2900088329000895290008CB
:10296000F86811F044FE03460F4A1A6017E0B86891
:10297000FFF7B5FF0446F868FFF7D1FF03461C6078
:102980000DE0B868FFF7ABFF03461946F86800F0A2
:1029900007FC04E02146F86800F014FC00BF0023A7
:1029A00018461437BD4690BDF4FC030880B584B0CA
:1029B00000AFF860B9603A71F86811F0AEFA0346FA
:1029C0001946012011F09DFAB868FFF75EFA00BFC2
:1029D0001037BD4680BD80B584B000AF78607868A0
:1029E00000F0FCFBF860F86800F004FC03461846B1
:1029F0001037BD4680BD90B583B000AF7860786871
:102A000000F003FC03461946204600F009FC00BF15
:102A10000C37BD4690BD80B582B000AF7860786855
:102A200011F07BFA034618460837BD4680BD90B5C5
:102A300085B000AFF860B9601346FB71FB79032BDA
:102A400029D801A252F823F0592A0008672A000861
:102A50007B2A00088D2A0008F86811F0C8FD03469B
:102A60000F4A1A6017E0B868FFF7B5FF0446F86828
:102A7000FFF7D1FF03461C600DE0B868FFF7ABFF1E
:102A800003461946F86800F0DBFB04E02146F868CD
:102A900000F0E8FB00BF002318461437BD4690BD88
:102AA000D4FC030880B584B000AFF860B9603A7117
:102AB000F86811F032FA03461946012011F021FAA4
:102AC000B868FFF744FA00BF1037BD4680BD80B537
:102AD00084B000AF7860786800F0D0FBF860F868E8
:102AE00000F0D8FB034618461037BD4680BD90B5B0
:102AF00083B000AF7860786800F0D7FB03461946D2
:102B0000204600F0DDFB00BF0C37BD4690BD80B510
:102B100082B000AF7860786811F0FFF9034618467C
:102B20000837BD4680BD90B585B000AFF860B9608C
:102B30001346FB71FB79032B29D801A252F823F02D
:102B4000512B00085F2B0008732B0008852B000811
:102B5000F86811F04CFD03460F4A1A6017E0B86898
:102B6000FFF7B5FF0446F868FFF7D1FF03461C6086
:102B70000DE0B868FFF7ABFF03461946F86800F0B0
:102B8000AFFB04E02146F86800F0BCFB00BF002367
:102B900018461437BD4690BDB4FC030880B582B01A
:102BA00000AF7860786811F0C3F90346184608371B
:102BB000BD4680BD80B483B000AF78607B681846A6
:102BC0000C37BD465DF8047B704780B483B000AF1E
:102BD00078607B6818460C37BD465DF8047B70470B
:102BE00080B582B000AF387139603868FFF7EDFF0B
:102BF00003461846FDF766FF00BF0837BD4680BD97
:102C000090B583B000AF78603960386800F086FB1B
:102C1000034622461946786800F08BFB00BF0C374C
:102C2000BD4690BD80B582B000AF786039707868DD
:102C300000F094FB00BF0837BD4680BD80B582B070
:102C400000AF7860786811F073F9034618460837CA
:102C5000BD4680BD80B483B000AF78607B68184605
:102C60000C37BD465DF8047B704780B483B000AF7D
:102C700078607B6818460C37BD465DF8047B70476A
:102C800080B582B000AF387139603868FFF7EDFF6A
:102C900003461846FDF724FF00BF0837BD4680BD38
:102CA00090B583B000AF78603960386800F062FB9F
:102CB000034622461946786800F067FB00BF0C37D0
:102CC000BD4690BD80B582B000AF7860397078683D
:102CD00000F070FB00BF0837BD4680BD80B582B0F4
:102CE00000AF7860786811F023F90346184608377A
:102CF000BD4680BD80B483B000AF78607B68184665
:102D00000C37BD465DF8047B704780B483B000AFDC
:102D100078607B6818460C37BD465DF8047B7047C9
:102D200080B582B000AF387139603868FFF7EDFFC9
:102D300003461846FDF7E2FE00BF0837BD4680BDDA
:102D400090B583B000AF78603960386800F03EFB22
:102D5000034622461946786800F043FB00BF0C3753
:102D6000BD4690BD80B582B000AF7860397078689C
:102D700000F04CFB00BF0837BD4680BD80B582B077
:102D800000AF7860786811F0D3F80346184608372A
:102D9000BD4680BD80B483B000AF78607B681846C4
:102DA0000C37BD465DF8047B704780B483B000AF3C
:102DB00078607B6818460C37BD465DF8047B704729
:102DC00080B582B000AF387139603868FFF7EDFF29
:102DD00003461846FDF7A0FE00BF0837BD4680BD7C
:102DE00090B583B000AF78603960386800F01AFBA6
:102DF000034622461946786800F01FFB00BF0C37D7
:102E0000BD4690BD80B582B000AF786039707868FB
:102E100000F028FB00BF0837BD4680BD80B582B0FA
:102E200000AF7860786811F083F8034618460837D9
:102E3000BD4680BD80B483B000AF78607B68184623
:102E40000C37BD465DF8047B704780B483B000AF9B
:102E500078607B6818460C37BD465DF8047B704788
:102E600080B582B000AF387139603868FFF7EDFF88
:102E700003461846FDF75EFE00BF0837BD4680BD1D
:102E800090B583B000AF78603960386800F0F6FA2A
:102E9000034622461946786800F0FBFA00BF0C375B
:102EA000BD4690BD80B582B000AF7860397078685B
:102EB00000F004FB00BF0837BD4680BD80B582B07E
:102EC00000AF7860786811F033F803461846083789
:102ED000BD4680BD80B483B000AF78607B68184683
:102EE0000C37BD465DF8047B704780B483B000AFFB
:102EF00078607B6818460C37BD465DF8047B7047E8
:102F000080B582B000AF387139603868FFF7EDFFE7
:102F100003461846FDF71CFE00BF0837BD4680BDBE
:102F200090B583B000AF78603960386800F0D2FAAD
:102F3000034622461946786800F0D7FA00BF0C37DE
:102F4000BD4690BD80B582B000AF786039707868BA
:102F500000F0E0FA00BF0837BD4680BD80B582B002
:102F600000AF7860786810F0E3FF03461846083732
:102F7000BD4680BD80B483B000AF78607B681846E2
:102F80000C37BD465DF8047B704780B483B000AF5A
:102F900078607B6818460C37BD465DF8047B704747
:102FA00080B582B000AF387139603868FFF7EDFF47
:102FB00003461846FDF7DAFD00BF0837BD4680BD61
:102FC00090B583B000AF78603960386800F0AEFA31
:102FD000034622461946786800F0B3FA00BF0C3762
:102FE000BD4690BD80B582B000AF7860397078681A
:102FF00000F0BCFA00BF0837BD4680BD80B582B086
:1030000000AF7860786810F093FF034618460837E1
:10301000BD4680BD80B483B000AF78607B68184641
:103020000C37BD465DF8047B704780B483B000AFB9
:1030300078607B6818460C37BD465DF8047B7047A6
:1030400080B582B000AF387139603868FFF7EDFFA6
:1030500003461846FDF798FD00BF0837BD4680BD02
:1030600090B583B000AF78603960386800F08AFAB4
:10307000034622461946786800F08FFA00BF0C37E5
:10308000BD4690BD80B582B000AF78603970786879
:1030900000F098FA00BF0837BD4680BD80B582B009
:1030A00000AF7860786810F043FF03461846083791
:1030B000BD4680BD80B483B000AF78607B681846A1
:1030C0000C37BD465DF8047B704780B483B000AF19
:1030D00078607B6818460C37BD465DF8047B704706
:1030E00080B582B000AF387139603868FFF7EDFF06
:1030F00003461846FDF756FD00BF0837BD4680BDA4
:1031000090B583B000AF78603960386800F066FA37
:10311000034622461946786800F06BFA00BF0C3768
:10312000BD4690BD80B582B000AF786039707868D8
:1031300000F074FA00BF0837BD4680BD80B582B08C
:1031400000AF7860786810F0F3FE03461846083741
:10315000BD4680BD80B483B000AF78607B68184600
:103160000C37BD465DF8047B704780B483B000AF78
:1031700078607B6818460C37BD465DF8047B704765
:1031800080B582B000AF387139603868FFF7EDFF65
:1031900003461846FDF714FD00BF0837BD4680BD45
:1031A00090B583B000AF78603960386800F042FABB
:1031B000034622461946786800F047FA00BF0C37EC
:1031C000BD4690BD80B582B000AF78603970786838
:1031D00000F050FA00BF0837BD4680BD80B582B010
:1031E00000AF7860786810F0A3FE034618460837F1
:1031F000BD4680BD80B483B000AF78607B68184660
:103200000C37BD465DF8047B704780B483B000AFD7
:1032100078607B6818460C37BD465DF8047B7047C4
:1032200080B582B000AF387139603868FFF7EDFFC4
:1032300003461846FDF7D2FC00BF0837BD4680BDE7
:1032400090B583B000AF78603960386800F01EFA3E
:10325000034622461946786800F023FA00BF0C376F
:10326000BD4690BD80B582B000AF78603970786897
:1032700000F02CFA00BF0837BD4680BD80B582B093
:1032800000AF7860786810F053FE034618460837A0
:10329000BD4680BD80B483B000AF78607B681846BF
:1032A0000C37BD465DF8047B704780B483B000AF37
:1032B00078607B6818460C37BD465DF8047B704724
:1032C00080B582B000AF387139603868FFF7EDFF24
:1032D00003461846FDF790FC00BF0837BD4680BD89
:1032E00090B583B000AF78603960386800F0FAF9C3
:1032F000034622461946786800F0FFF900BF0C37F4
:10330000BD4690BD80B582B000AF786039707868F6
:1033100000F008FA00BF0837BD4680BD80B483B016
:1033200000AF78607B6818460C37BD465DF8047BBB
:10333000704780B584B000AFF860B9603A71F86842
:1033400010F0EBFD03461946012010F0DAFDB868D5
:10335000FFF7E4FF00BF1037BD4680BD80B582B0E7
:1033600000AF7860786810F0D8FD0346184608373B
:10337000BD4680BD80B483B000AF78607B681846DE
:103380000C37BD465DF8047B704780B584B000AF54
:10339000F860B9603A71F86810F0BFFD034619464D
:1033A000012010F0AEFDB868FFF7E4FF00BF103752
:1033B000BD4680BD80B582B000AF7860786810F0FF
:1033C000ACFD034618460837BD4680BD80B483B0C7
:1033D00000AF78607B6818460C37BD465DF8047B0B
:1033E000704780B584B000AFF860B9603A71F86892
:1033F00010F093FD03461946012010F082FDB868D5
:10340000FFF7E4FF00BF1037BD4680BD80B582B036
:1034100000AF7860786810F080FD034618460837E2
:10342000BD4680BD80B483B000AF78607B6818462D
:103430000C37BD465DF8047B704780B584B000AFA3
:10344000F860B9603A71F86810F067FD03461946F4
:10345000012010F056FDB868FFF7E4FF00BF1037F9
:10346000BD4680BD80B582B000AF7860786810F04E
:1034700054FD034618460837BD4680BD80B483B06E
:1034800000AF78607B6818460C37BD465DF8047B5A
:10349000704780B584B000AFF860B9603A71F868E1
:1034A00010F03BFD03461946012010F02AFDB868D4
:1034B000FFF7E4FF00BF1037BD4680BD80B582B086
:1034C00000AF7860786810F028FD0346184608378A
:1034D000BD4680BD80B483B000AF78607B6818467D
:1034E0000C37BD465DF8047B704780B584B000AFF3
:1034F000F860B9603A71F86810F00FFD034619469C
:10350000012010F0FEFCB868FFF7E4FF00BF1037A1
:10351000BD4680BD80B582B000AF7860786810F09D
:10352000FCFC034618460837BD4680BD80B483B016
:1035300000AF78607B6818460C37BD465DF8047BA9
:10354000704780B584B000AFF860B9603A71F86830
:1035500010F0E3FC03461946012010F0D2FCB868D5
:10356000FFF7E4FF00BF1037BD4680BD80B582B0D5
:1035700000AF7860786810F0D0FC03461846083732
:10358000BD4680BD80B483B000AF78607B681846CC
:103590000C37BD465DF8047B704780B584B000AF42
:1035A000F860B9603A71F86810F0B7FC0346194644
:1035B000012010F0A6FCB868FFF7E4FF00BF103749
:1035C000BD4680BD80B582B000AF7860786810F0ED
:1035D000A4FC034618460837BD4680BD80B483B0BE
:1035E00000AF78607B6818460C37BD465DF8047BF9
:1035F000704780B584B000AFF860B9603A71F86880
:1036000010F08BFC03461946012010F07AFCB868D4
:10361000FFF7E4FF00BF1037BD4680BD80B582B024
:1036200000AF7860786810F078FC034618460837D9
:10363000BD4680BD80B483B000AF78607B6818461B
:103640000C37BD465DF8047B704780B584B000AF91
:10365000F860B9603A71F86810F05FFC03461946EB
:10366000012010F04EFCB868FFF7E4FF00BF1037F0
:10367000BD4680BD80B582B000AF7860786810F03C
:103680004CFC034618460837BD4680BD80B483B065
:1036900000AF78607B6818460C37BD465DF8047B48
:1036A000704780B584B000AFF860B9603A71F868CF
:1036B00010F033FC03461946012010F022FCB868D4
:1036C000FFF7E4FF00BF1037BD4680BD80B582B074
:1036D00000AF7860786810F020FC03461846083781
:1036E000BD4680BD80B483B000AF78607B6818466B
:1036F0000C37BD465DF8047B704780B584B000AFE1
:10370000F860B9603A71F86810F007FC0346194692
:10371000012010F0F6FBB868FFF7E4FF00BF103798
:10372000BD4680BD80B582B000AF7860786810F08B
:10373000F4FB034618460837BD4680BD80B483B00D
:1037400000AF0346FB80B7F90630002B0BDBFB888C
:1037500003F01F020749B7F906305B09012000FAA0
:1037600002F241F8232000BF0C37BD465DF8047B10
:10377000704700BF00E100E080B483B000AF0346B3
:10378000FB80B7F90630002B0CDBFB8803F01F022F
:103790000749B7F906305B09012000FA02F26033ED
:1037A00041F8232000BF0C37BD465DF8047B70470D
:1037B00000E100E080B582B000AF0346FB7106482F
:1037C00010F0B6F9FA790023032110F0E7F900BFF1
:1037D0000837BD4680BD00BF2844025890B587B069
:1037E00000AF78603960244B1B687B614FF00003A9
:1037F000224A3B6813603B1D184610F0FAF8044655
:103800001E4810F023F90346FB6007F10C0318462D
:1038100010F0EFF80346B4FBF3F3013B3B611848AB
:1038200010F086F9034600220021184610F0A0F996
:10383000144810F07DF9034600223969184610F04B
:10384000D4F9114B184610F073F9034600220721F2
:10385000184610F0DFF90D4B01221A7000BF064B1D
:103860001A687B695A404FF0000301D033F04EFCD8
:103870001C37BD4690BD00BFF02101209C000020F8
:1038800018E000E014E000E010E000E0D01B0120B0
:1038900080B500AF074B184610F04AF903460022E6
:1038A0000021184610F064F9034B00221A7000BF83
:1038B00080BD00BF10E000E0D01B012080B582B0C9
:1038C00000AF78603960FFF7E3FF39687868FFF789
:1038D00085FF00BF0837BD4680BD80B500AF054BF2
:1038E0001B68054A1946106810F0ABF903461846E4
:1038F00080BD00BFCC1B01209C00002090B585B08E
:1039000000AF78601B4B1B68FB604FF000031A4B45
:103910001B7883F00103DBB2002B03D00021174892
:1039200010F09EF9164B1B68164A1946106810F0E5
:1039300088F90346BB6000BFFFF7CFFF044607F1DD
:1039400008037968184610F045F8034619462046E2
:1039500010F096F90346002BEED100BF054B1A6814
:10396000FB685A404FF0000301D033F0CFFB14370F
:10397000BD4690BDF0210120D01B0120E8070020AA
:10398000CC1B01209C00002080B584B000AF6348B0
:1039900011F0F7FA624811F008FB4FF496704FF0FF
:1039A000000110F009F803461846FFF7A7FF5D482D
:1039B00011F00FFB5C4B002201215A4811F046FB2D
:1039C000594A0521574811F045FC0346032B14BF03
:1039D00001230023DBB2002B40F09C8000F0D4F8E0
:1039E000FF233B7000237B6023E050497B6807F195
:1039F0000802DB000B4493E8030082E80300BB6885
:103A00001B0ABB70BA783B789A4207D0BA78464B0B
:103A10000121444811F01AFBBB783B70BB68FB7076
:103A20003A7BF978404B3F4811F010FB7B6801333B
:103A30007B607B68B3F59E7FD7DD00F0F3F84FF035
:103A400064004FF000010FF0B7FF03461846FFF780
:103A500055FF324811F020FD334B0022012131483F
:103A600011F0F4FA304B01221C212E4811F0EEFA2D
:103A70004FF496704FF000010FF09EFF034618467A
:103A8000FFF73CFF01212A4811F01CFD0820FFF739
:103A900055FE254B00220121224811F0D7FA224A77
:103AA0000C21204811F0D6FB03467B707B7803F095
:103AB0000103002B04D000211E4811F025FD1CE05D
:103AC0007B7803F00203002B04D00121194811F088
:103AD0001BFD12E07B7803F00403002B04D00221CD
:103AE000144811F011FD08E07B7803F00803002B67
:103AF00003D003210F4811F007FD0B4B00221121C9
:103B0000084811F0A3FA084B00221221054811F0D1
:103B10009DFA00E000BF1037BD4680BD10080020B0
:103B200014080020200800202408002084FE030838
:103B30000C080020F807002080B500AF024811F003
:103B4000F3FC0346184680BD0808002080B500AF8E
:103B5000024811F003FD0346184680BD040800200A
:103B600080B500AF024811F013FD0346184680BD32
:103B70001008002080B500AF024811F023FD034675
:103B8000184680BD1408002080B500AF234B0B22DF
:103B90000121234811F05AFA204BC0222421204849
:103BA00011F054FA1D4B002225211D4811F04EFA48
:103BB0001A4B052201211A4811F048FA174B01222D
:103BC0000221174811F042FA144B03220521144830
:103BD00011F03CFA114B09220121114811F036FA7B
:103BE0000E4B172257210E4811F030FA0B4B0B22C7
:103BF00001210B4811F02AFA084B1A224E210848DD
:103C000011F024FA4FF496704FF000010FF0D4FE3B
:103C100003461846FFF772FE00BF80BD240800204F
:103C20002008002080B500AF234B0B220121234840
:103C300011F00CFA204BC0222421204811F006FA82
:103C40001D4B002225211D4811F000FA1A4B0522B8
:103C500001211A4811F0FAF9174B012202211748E5
:103C600011F0F4F9144B03220521144811F0EEF978
:103C7000114B09220121114811F0E8F90E4B1722CE
:103C800057210E4811F0E2F90B4B0B2201210B4892
:103C900011F0DCF9084B1A224E21084811F0D6F930
:103CA0004FF496704FF000010FF086FE0346184661
:103CB000FFF724FE00BF80BD24080020200800205C
:103CC00080B500AF00BE174811F096FC0346002BEC
:103CD00025D0154811F028FC034683F00103DBB220
:103CE000002B04D00321114811F00EFC11E0104804
:103CF00011F034FC034683F00103DBB2002B04D047
:103D000001210A4811F000FC03E00421074811F0EA
:103D1000FBFB044811F08AFC0820FFF72DFD00BFD3
:103D200080BD00BF0C08002008080020F807002014
:103D30000408002080B586B006AF0122002120488B
:103D400010F07FFC012200211E4810F0BBFC012274
:103D500000211D4810F0F8FC0123002201211B481E
:103D600010F034FD012300220121194810F074FDE8
:103D700000230093022301224221164810F0B2FDD5
:103D800000230093022301224221134810F0D6FDA4
:103D9000002304930123039301230293132301932C
:103DA0000F2300930223042203210C4810F0F2FD9C
:103DB000002277210A4810F026FC00BFBD4680BDD6
:103DC00004080020080800200C080020100800202B
:103DD00014080020180800201C08002020080020DB
:103DE0002408002080B500AFFFF7A4FF80BD00BF0E
:103DF00080B582B000AF0346FB7106480FF098FE15
:103E0000FA79002303210FF0C9FE00BF0837BD4631
:103E100080BD00BF2844025890B587B000AF7860DD
:103E20003960244B1B687B614FF00003224A3B68DA
:103E300013603B1D18460FF0DCFD04461E480FF0D2
:103E400005FE0346FB6007F10C0318460FF0D1FD99
:103E50000346B4FBF3F3013B3B6118480FF068FEE7
:103E600003460022002118460FF082FE14480FF08E
:103E70005FFE03460022396918460FF0B6FE114B6B
:103E800018460FF055FE03460022072118460FF092
:103E9000C1FE0D4B01221A7000BF064B1A687B69E8
:103EA0005A404FF0000301D033F030F91C37BD46C3
:103EB00090BD00BFF02101209C00002018E000E030
:103EC00014E000E010E000E0D01B012080B500AF5E
:103ED000074B18460FF02CFE03460022002118461F
:103EE0000FF046FE034B00221A7000BF80BD00BFDA
:103EF00010E000E0D01B012080B582B000AF7860F8
:103F00003960FFF7E3FF39687868FFF785FF00BF86
:103F10000837BD4680BD80B500AF054B1B68054A1C
:103F2000194610680FF08DFE0346184680BD00BF8D
:103F3000CC1B01209C00002090B585B000AF7860BC
:103F40001B4B1B68FB604FF000031A4B1B7883F080
:103F50000103DBB2002B03D0002117480FF080FED5
:103F6000164B1B68164A194610680FF06AFE034686
:103F7000BB6000BFFFF7CFFF044607F10803796875
:103F800018460FF027FD0346194620460FF078FE2D
:103F90000346002BEED100BF054B1A68FB685A4060
:103FA0004FF0000301D033F0B1F81437BD4690BD97
:103FB000F0210120D01B012028080020CC1B01206B
:103FC0009C00002080B500AF00F040F800F034F90C
:103FD00000F05CF8002000F087F80346242B11D194
:103FE000012000F081F80346042B0BD1022000F0E1
:103FF0007BF80346072B05D1032000F075F8034634
:10400000002B01D0012300E00023002B03D003216B
:104010000D4813F07BFCAA21162000F0C3F81620EF
:1040200000F062F80346AA2B14BF01230023DBB281
:10403000002B03D00321044813F068FC002100206A
:1040400007F00FFA00BF80BD3808002080B500AF30
:104050000D4814F058F94FF001004FF000010FF037
:10406000ABFC03461846FFF767FF074814F060F9FA
:104070004FF01E004FF000010FF09EFC0346184663
:10408000FFF75AFF00BF80BD7008002080B500AF69
:104090000D4814F038F94FF001004FF000010FF017
:1040A0008BFC03461846FFF747FF074814F040F91A
:1040B0004FF01E004FF000010FF07EFC0346184643
:1040C000FFF73AFF00BF80BD7008002080B582B0C6
:1040D00000AF78600021034813F018FC00BF0837D8
:1040E000BD4680BD3808002090B589B000AF0346BA
:1040F000FB71234B1B68FB614FF0000321480FF05D
:1041000017FDFB791B0443F00073002219460FF0E2
:104110006CFD1C480FF00CFD044607F1080207F186
:104120000C031146184600F01FFA4FF47A704FF056
:1041300000010FF041FC034607F10C024FF0006153
:10414000204610F0BFF807F10C0318460FF07CFF73
:104150000C480FF0EDFC03460022FF21184610F03A
:1041600073F80346DBB2064A1168FA6951404FF012
:10417000000201D032F0CAFF18462437BD4690BD78
:10418000F02101203400044080B582B000AF786097
:104190000021034813F0BAFB00BF0837BD4680BDBD
:1041A0003808002090B589B000AF03460A46FB717D
:1041B0001346BB711E4B1B68FB614FF000031D488B
:1041C0000FF0B6FCFB791A04BB79134343F010736C
:1041D000002219460FF009FD16480FF0A9FC04460D
:1041E00007F1080207F10C031146184600F0ECF93C
:1041F0004FF47A704FF000010FF0DEFB034607F139
:104200000C024FF00061204610F05CF807F10C033F
:1042100018460FF019FF00BF054B1A68FB695A409A
:104220004FF0000301D032F071FF2437BD4690BD3E
:10423000F02101203400044080B500AF19480FF090
:1042400077FC034600224FF0807118460FF02AFDDC
:1042500015480FF06DFC0346002240F2011118468C
:104260000FF020FD11480FF063FC034600221021DF
:1042700018460FF017FD0E480FF05AFC03460022B7
:104280000C4918460FF074FC0B480FF051FC034624
:104290000022062118460FF005FD00F02BF800BFA4
:1042A00080BD00BF0C4802580800044014000440C0
:1042B0000C000440072404001800044080B582B0BC
:1042C00000AF78600121034813F020FB00BF0837DE
:1042D000BD4680BD3808002080B582B000AF786050
:1042E0000221034813F012FB00BF0837BD4680BD12
:1042F0003808002090B587B000AF284B1B687B6161
:104300004FF0000326480FF013FC04463A463B1DCD
:104310001146184600F088F94FF47A704FF000010A
:104320000FF04AFB03463A1D4FF0004120460FF0C4
:10433000C9FF3B1D18460FF087FE19480FF0F8FB28
:1043400003460022012118460FF0ACFC14480FF080
:10435000EFFB04463A463B1D1146184600F094F91F
:104360004FF47A704FF000010FF026FB03463A1D20
:104370000121204613F0F0FF3B1D18460FF064FEAC
:1043800000BF064B1A687B695A404FF0000301D00A
:1043900032F0BCFE1C37BD4690BD00BFF0210120AD
:1043A0001000044080B500AF08480FF0C1FB034681
:1043B00000224FF0007118460FF074FC4FF48D711D
:1043C00040F2191013F0F8FF00BF80BD804402587E
:1043D00080B500AF00200DF0D1FC00BF80BD80B5DE
:1043E00000AF01200DF0CAFC00BF80BD80B400AF5B
:1043F00000BFBD465DF8047B704780B400AF00BFCE
:10440000BD465DF8047B704780B483B000AF0346BF
:10441000FB7100BF0C37BD465DF8047B704780B46C
:1044200000AF00BFBD465DF8047B704780B483B029
:1044300000AF0346FB710B46BB7113467B7100BF97
:104440000C37BD465DF8047B704780B483B000AF85
:104450000346FB7100BF0C37BD465DF8047B704717
:1044600080B584B002AF03463A60FB710B46BB7166
:104470003B681B78C3F34113DBB2012B66D0022BE0
:1044800066D13B681B7823F07F03DBB2002B24D07E
:10449000BB79012B05D0002B54DD023B012B51D8F9
:1044A00019E03B685B7818463B689B889AB23B688A
:1044B0005B889BB22A4901912A490091012105F0AC
:1044C00075FE274B1B689BB2F879264A39680AF0BB
:1044D00029FE034640E001233EE03B681B7823F0C1
:1044E0007F03DBB2002B35D1BB79032B28D0032B04
:1044F0002ADC012B02D0022B10D025E03B68DB88A0
:104500009BB21A46164B1A603B68DB889BB2F8795F
:10451000144A39680AF006FE03461DE03B685B78E2
:1045200018463B689B889AB23B685B889BB20C49F3
:1045300001910C490091002105F038FE03460BE083
:10454000012309E000BF05E000BF03E000BE02E078
:1045500000BF00E000BF002318460837BD4680BDFD
:10456000740A00207408002090B583B000AF786012
:1045700039607B681A4600231360536093607B6840
:1045800018460FF08BFE7B680022DA60386800F076
:10459000ABF80346002B0ED07C68386800F0AFF80B
:1045A00003461946204600F0B5F87B68044ADA60F5
:1045B0007B68044A9A607B6818460C37BD4690BDFC
:1045C000394700085747000890B583B000AF7860BE
:1045D00039607B681A4600231360536093607B68E0
:1045E00018460FF05BFE7B680022DA60386800F046
:1045F000DDF80346002B0ED07C68386800F0E1F847
:1046000003461946204600F0E7F87B68044ADA6062
:104610007B68044A9A607B6818460C37BD4690BD9B
:10462000FD4700081B48000890B583B000AF7860D4
:1046300039607B681A4600231360536093607B687F
:1046400018460FF02BFE7B680022DA60386800F015
:104650000FF90346002B0ED07C68386800F013F980
:1046600003461946204600F019F97B68044ADA60CF
:104670007B68044A9A607B6818460C37BD4690BD3B
:10468000C1480008DF48000890B583B000AF7860EB
:1046900039607B681A4600231360536093607B681F
:1046A00018460FF0FBFD7B680022DA60386800F0E6
:1046B00041F90346002B0ED07C68386800F045F9BC
:1046C00003461946204600F04BF97B68044ADA603D
:1046D0007B68044A9A607B6818460C37BD4690BDDB
:1046E00085490008A349000880B483B000AF786012
:1046F000012318460C37BD465DF8047B704780B433
:1047000083B000AF78607B6818460C37BD465DF813
:10471000047B704790B583B000AF7860396038682B
:10472000FFF7EDFF034622461946786800F064F96A
:1047300000BF0C37BD4690BD80B582B000AF786039
:10474000786800F06EF90346184600F07AF900BF69
:104750000837BD4680BD90B585B000AFF860B96040
:104760001346FB71FB79002B02D0012B07D010E020
:10477000F8680FF03CFF03460B4A1A600FE0B86878
:1047800000F04FF90446F86800F06BF903461C602E
:1047900005E0FB791A46B968F86800F06EF9002365
:1047A00018461437BD4690BD8809040880B483B00C
:1047B00000AF7860012318460C37BD465DF8047BD6
:1047C000704780B483B000AF78607B6818460C37C0
:1047D000BD465DF8047B704790B583B000AF78604C
:1047E00039603868FFF7EDFF0346224619467868BE
:1047F00000F07EF900BF0C37BD4690BD80B582B099
:1048000000AF7860786800F088F90346184600F039
:1048100094F900BF0837BD4680BD90B585B000AFA4
:10482000F860B9601346FB71FB79002B02D0012BB5
:1048300007D010E0F8680FF0DAFE03460B4A1A6062
:104840000FE0B86800F069F90446F86800F085F9EF
:1048500003461C6005E0FB791A46B968F86800F069
:1048600088F9002318461437BD4690BD580904083E
:1048700080B483B000AF7860012318460C37BD4682
:104880005DF8047B704780B483B000AF78607B68CC
:1048900018460C37BD465DF8047B704790B583B071
:1048A00000AF786039603868FFF7EDFF03462246B5
:1048B0001946786800F098F900BF0C37BD4690BDE6
:1048C00080B582B000AF7860786800F0A2F9034646
:1048D000184600F0AEF900BF0837BD4680BD90B560
:1048E00085B000AFF860B9601346FB71FB79002B0F
:1048F00002D0012B07D010E0F8680FF078FE0346D5
:104900000B4A1A600FE0B86800F083F90446F868B3
:1049100000F09FF903461C6005E0FB791A46B96870
:10492000F86800F0A2F9002318461437BD4690BD80
:104930002409040880B483B000AF786001231846CE
:104940000C37BD465DF8047B704780B483B000AF80
:1049500078607B6818460C37BD465DF8047B70476D
:1049600090B583B000AF786039603868FFF7EDFF2D
:10497000034622461946786800F0B2F900BF0C37AA
:10498000BD4690BD80B582B000AF7860786800F019
:10499000BCF90346184600F0C8F900BF0837BD4609
:1049A00080BD90B585B000AFF860B9601346FB716B
:1049B000FB79002B02D0012B07D010E0F8680FF034
:1049C00016FE03460B4A1A600FE0B86800F09DF926
:1049D0000446F86800F0B9F903461C6005E0FB796D
:1049E0001A46B968F86800F0BCF900231846143775
:1049F000BD4690BDFC08040880B584B000AFF860E7
:104A0000B9603A71F8680FF088FA03461946012038
:104A10000FF077FAB868FFF772FE00BF1037BD4697
:104A200080BD80B584B000AF7860786800F0D4F9BC
:104A3000F860F86800F0DCF9034618461037BD4608
:104A400080BD90B583B000AF7860786800F0DBF986
:104A500003461946204600F0E1F900BF0C37BD4679
:104A600090BD80B582B000AF786078680FF055FADD
:104A7000034618460837BD4680BD90B585B000AFE7
:104A8000F860B9601346FB71FB79032B29D801A2AA
:104A900052F823F0A54A0008B34A0008C74A0008A4
:104AA000D94A0008F8680FF0A2FD03460F4A1A60C1
:104AB00017E0B868FFF7B5FF0446F868FFF7D1FFC5
:104AC00003461C600DE0B868FFF7ABFF03461946CC
:104AD000F86800F0B3F904E02146F86800F0C0F986
:104AE00000BF002318461437BD4690BD880904084E
:104AF00080B584B000AFF860B9603A71F8680FF023
:104B00000CFA0346194601200FF0FBF9B868FFF7CD
:104B100058FE00BF1037BD4680BD80B584B000AFE1
:104B20007860786800F0A8F9F860F86800F0B0F9EB
:104B3000034618461037BD4680BD90B583B000AF20
:104B40007860786800F0AFF903461946204600F017
:104B5000B5F900BF0C37BD4690BD80B582B000AF3F
:104B6000786078680FF0D9F9034618460837BD46D3
:104B700080BD90B585B000AFF860B9601346FB7199
:104B8000FB79032B29D801A252F823F09D4B000892
:104B9000AB4B0008BF4B0008D14B0008F8680FF082
:104BA00026FD03460F4A1A6017E0B868FFF7B5FF05
:104BB0000446F868FFF7D1FF03461C600DE0B868B3
:104BC000FFF7ABFF03461946F86800F087F904E0E9
:104BD0002146F86800F094F900BF00231846143706
:104BE000BD4690BD5809040880B584B000AFF86098
:104BF000B9603A71F8680FF090F903461946012040
:104C00000FF07FF9B868FFF73EFE00BF1037BD46D2
:104C100080BD80B584B000AF7860786800F07CF922
:104C2000F860F86800F084F9034618461037BD466E
:104C300080BD90B583B000AF7860786800F083F9EC
:104C400003461946204600F089F900BF0C37BD46DF
:104C500090BD80B582B000AF786078680FF05DF9E4
:104C6000034618460837BD4680BD90B585B000AFF5
:104C7000F860B9601346FB71FB79032B29D801A2B8
:104C800052F823F0954C0008A34C0008B74C0008DC
:104C9000C94C0008F8680FF0AAFC03460F4A1A60D6
:104CA00017E0B868FFF7B5FF0446F868FFF7D1FFD3
:104CB00003461C600DE0B868FFF7ABFF03461946DA
:104CC000F86800F05BF904E02146F86800F068F944
:104CD00000BF002318461437BD4690BD24090408C0
:104CE00080B584B000AFF860B9603A71F8680FF031
:104CF00014F90346194601200FF003F9B868FFF7CD
:104D000024FE00BF1037BD4680BD80B584B000AF23
:104D10007860786800F050F9F860F86800F058F9A9
:104D2000034618461037BD4680BD90B583B000AF2E
:104D30007860786800F057F903461946204600F07D
:104D40005DF900BF0C37BD4690BD80B582B000AFA5
:104D5000786078680FF0E1F8034618460837BD46DA
:104D600080BD90B585B000AFF860B9601346FB71A7
:104D7000FB79032B29D801A252F823F08D4D0008AE
:104D80009B4D0008AF4D0008C14D0008F8680FF0BA
:104D90002EFC03460F4A1A6017E0B868FFF7B5FF0C
:104DA0000446F868FFF7D1FF03461C600DE0B868C1
:104DB000FFF7ABFF03461946F86800F02FF904E04F
:104DC0002146F86800F03CF900BF0023184614376C
:104DD000BD4690BDFC08040880B582B000AF786085
:104DE00078680FF0A5F8034618460837BD4680BD21
:104DF00080B483B000AF78607B6818460C37BD463E
:104E00005DF8047B704780B483B000AF78607B6846
:104E100018460C37BD465DF8047B704780B582B0FC
:104E200000AF387139603868FFF7EDFF0346184668
:104E3000FFF74CF900BF0837BD4680BD90B583B081
:104E400000AF78603960386800F006F90346224602
:104E50001946786800F00BF900BF0C37BD4690BDCD
:104E600080B582B000AF78603970786800F014F9CE
:104E700000BF0837BD4680BD80B582B000AF786006
:104E800078680FF055F8034618460837BD4680BDD0
:104E900080B483B000AF78607B6818460C37BD469D
:104EA0005DF8047B704780B483B000AF78607B68A6
:104EB00018460C37BD465DF8047B704780B582B05C
:104EC00000AF387139603868FFF7EDFF03461846C8
:104ED000FFF75AF900BF0837BD4680BD90B583B0D3
:104EE00000AF78603960386800F0E2F80346224687
:104EF0001946786800F0E7F800BF0C37BD4690BD52
:104F000080B582B000AF78603970786800F0F0F852
:104F100000BF0837BD4680BD80B582B000AF786065
:104F200078680FF005F8034618460837BD4680BD7F
:104F300080B483B000AF78607B6818460C37BD46FC
:104F40005DF8047B704780B483B000AF78607B6805
:104F500018460C37BD465DF8047B704780B582B0BB
:104F600000AF387139603868FFF7EDFF0346184627
:104F7000FFF7A4F900BF0837BD4680BD90B583B0E8
:104F800000AF78603960386800F0BEF8034622460A
:104F90001946786800F0C3F800BF0C37BD4690BDD5
:104FA00080B582B000AF78603970786800F0CCF8D6
:104FB00000BF0837BD4680BD80B582B000AF7860C5
:104FC00078680EF0B5FF034618460837BD4680BD29
:104FD00080B483B000AF78607B6818460C37BD465C
:104FE0005DF8047B704780B483B000AF78607B6865
:104FF00018460C37BD465DF8047B704780B582B01B
:1050000000AF387139603868FFF7EDFF0346184686
:10501000FFF762F900BF0837BD4680BD90B583B089
:1050200000AF78603960386800F09AF8034622468D
:105030001946786800F09FF800BF0C37BD4690BD58
:1050400080B582B000AF78603970786800F0A8F859
:1050500000BF0837BD4680BD80B483B000AF786024
:105060007B6818460C37BD465DF8047B704780B5F9
:1050700084B000AFF860B9603A71F8680EF04DFF87
:105080000346194601200EF03CFFB868FFF7E4FF25
:1050900000BF1037BD4680BD80B582B000AF7860DC
:1050A00078680EF03AFF034618460837BD4680BDC3
:1050B00080B483B000AF78607B6818460C37BD467B
:1050C0005DF8047B704780B584B000AFF860B960CC
:1050D0003A71F8680EF021FF0346194601200EF0E0
:1050E00010FFB868FFF7E4FF00BF1037BD4680BD72
:1050F00080B582B000AF786078680EF00EFF03468E
:1051000018460837BD4680BD80B483B000AF7860D4
:105110007B6818460C37BD465DF8047B704780B548
:1051200084B000AFF860B9603A71F8680EF0F5FE2F
:105130000346194601200EF0E4FEB868FFF7E4FFCD
:1051400000BF1037BD4680BD80B582B000AF78602B
:1051500078680EF0E2FE034618460837BD4680BD6B
:1051600080B483B000AF78607B6818460C37BD46CA
:105170005DF8047B704780B584B000AFF860B9601B
:105180003A71F8680EF0C9FE0346194601200EF088
:10519000B8FEB868FFF7E4FF00BF1037BD4680BD1A
:1051A00080B582B000AF786078680EF0B6FE034636
:1051B00018460837BD4680BD80B582B002AF0222D6
:1051C000A221224812F05EF80222A221204812F009
:1051D0009BF80222A2211F4812F0D8F80222A22135
:1051E0001D4812F015F90222A2211C4812F052F9B2
:1051F0000222A2211A4812F08FF90222A221194894
:1052000012F0CCF90222A221174812F009FA022268
:10521000A221164812F046FA0222A221144812F0E6
:1052200083FA0222A221134812F0C0FA0222A2211C
:10523000114812F0FDFA00230093002300220121FF
:105240000E4812F037FB00BFBD4680BD400800206D
:1052500044080020480800204C0800205008002086
:1052600054080020580800205C0800206008002036
:1052700064080020680800206C08002070080020E6
:1052800080B500AFFFF798FF80BD00BF80B483B04A
:1052900000AF0346FB80B7F90630002B0BDBFB8821
:1052A00003F01F020749B7F906305B09012000FA35
:1052B00002F241F8232000BF0C37BD465DF8047BA5
:1052C000704700BF00E100E080B483B000AF034648
:1052D000FB80B7F90630002B0CDBFB8803F01F02C4
:1052E0000749B7F906305B09012000FA02F2603382
:1052F00041F8232000BF0C37BD465DF8047B7047A2
:1053000000E100E080B582B000AF0346FB710648C3
:105310000EF00EFCFA79002303210EF03FFC00BFD3
:105320000837BD4680BD00BF2844025890B587B0FD
:1053300000AF78603960244B1B687B614FF000033D
:10534000224A3B6813603B1D18460EF052FB044690
:105350001E480EF07BFB0346FB6007F10C0318466A
:105360000EF047FB0346B4FBF3F3013B3B611848E7
:105370000EF0DEFB03460022002118460EF0F8FB7B
:1053800014480EF0D5FB03460022396918460EF08A
:105390002CFC114B18460EF0CBFB034600220721D4
:1053A00018460EF037FC0D4B01221A7000BF064B59
:1053B0001A687B695A404FF0000301D031F0A6FE15
:1053C0001C37BD4690BD00BFF02101209C0000208D
:1053D00018E000E014E000E010E000E0D01B012045
:1053E00080B500AF074B18460EF0A2FB0346002223
:1053F000002118460EF0BCFB034B00221A7000BFC0
:1054000080BD00BF10E000E0D01B012080B582B05D
:1054100000AF78603960FFF7E3FF39687868FFF71D
:1054200085FF00BF0837BD4680BD80B500AF054B86
:105430001B68054A194610680EF003FC034618461F
:1054400080BD00BFCC1B01209C00002090B585B022
:1054500000AF78601B4B1B68FB604FF000031A4BDA
:105460001B7883F00103DBB2002B03D00021174827
:105470000EF0F6FB164B1B68164A194610680EF024
:10548000E0FB0346BB6000BFFFF7CFFF044607F118
:105490000803796818460EF09DFA0346194620461F
:1054A0000EF0EEFB0346002BEED100BF054B1A6851
:1054B000FB685A404FF0000301D031F027FE14374B
:1054C000BD4690BDF0210120D01B0120780A0020AC
:1054D000CC1B01209C00002080B500AF00F0DEFF57
:1054E0004C480EF025FB03460022172118460EF00B
:1054F0003FFB49480EF01CFB0346002240F2E73117
:1055000018460EF035FB45480EF012FB034600220C
:10551000412118460EF0C6FB41480EF009FB034638
:105520000022202118460EF023FB3E4B18460EF0B9
:10553000FFFA03460022012118460EF0B3FB3A4B56
:1055400018460EF0F5FA03460022082118460EF020
:105550000FFB36480EF0ECFA034600223449184699
:105560000EF006FB33480EF0E3FA0346002200215A
:1055700018460EF0FDFA30480EF0DAFA0346002223
:105580002F2118460EF0F4FA2C480EF0D1FA0346FB
:1055900000224FF0807118460EF03CFB28480EF0B8
:1055A000C7FA034600224FF0807118460EF032FB16
:1055B00024480EF0BDFA03460022002118460EF0E2
:1055C000D7FA21480EF0B4FA03460022002118460B
:1055D0000EF0CEFA1D480EF0ABFA03460022012170
:1055E00018460EF05FFB104B18460EF0A1FA03466A
:1055F0000022012118460EF055FB15480EF098FACE
:10560000034600224FF4004118460EF04BFB00BF4A
:1056100080BD00BF280800402C080040140800404E
:10562000040800400008004000000140080001405C
:1056300030000100280001402C000140180001400A
:105640001C000140380001404000014014000140AE
:105650004400014080B483B000AF0346FB71FB7986
:1056600003F0F003502B05D0FB79662B02D0FB79B9
:10567000912B01D9012300E0002318460C37BD46C9
:105680005DF8047B704780B483B000AF0346FB71C4
:10569000FB79BD2B01D8012300E0002318460C370D
:1056A000BD465DF8047B704780B582B000AF002036
:1056B00000F0B8FE034683F00103DBB2002B01D0FB
:1056C000002365E0012000F0ADFE034683F00103F6
:1056D000DBB2002B01D000235AE0022000F0A2FE32
:1056E000034683F00103DBB2002B01D000234FE01F
:1056F000294814F039F8294814F04BF84FF001000C
:105700004FF000010EF058F903461846FFF79EFED1
:10571000224814F052F8204814F064F84FF00100C9
:105720004FF000010EF048F903461846FFF78EFED1
:105730001B4814F06BF81B4A7F21194814F0C0F87D
:105740000346002B0CBF01230023DBB2002B01D04A
:1057500000231DE0134AB921114814F0B1F80346A3
:10576000FB71FB7943F02003DAB20E4BB9210C48F0
:1057700014F0F2F920210C4814F0ACFA0C20FFF7D9
:1057800085FD0A4814F034FB084814F046FB012359
:1057900018460837BD4680BD900A0020940A0020B4
:1057A000B40A0020B80A0020C80A0020BC0A002061
:1057B00080B500AF00200AF0E3FC4FF480510548AB
:1057C00014F040FB034814F052FB034814F062FB52
:1057D00000BF80BDC80A0020BC0A002080B500AF11
:1057E000074814F06AFB074814F07AFB20210548AB
:1057F00014F089FB00200AF0C3FC00BF80BD00BF8D
:10580000BC0A0020C80A002080B500AF024814F08E
:1058100090FB0346184680BDBC0A002080B584B0CA
:1058200000AF78607B68DAB2204BA621204814F0E4
:1058300093F97B681B0ADAB21C4BA5211C4814F0B3
:105840008BF97B681B0CDAB2184BA421184814F0B2
:1058500083F97B681B0EDAB2144BA321144814F0B1
:105860007BF9124A8721124814F02AF80346FB7389
:10587000FB7B63F07F03DAB20C4B87210C4814F0FA
:105880006BF90A4A89210A4814F01AF80346FB7397
:10589000FB7B03F07F03DAB2044B8921044814F048
:1058A0005BF900BF1037BD4680BD00BFB80A0020BD
:1058B000B40A002080B582B000AF124A8721124896
:1058C00013F0FEFF0346FB71FB7903F07F03DAB2AE
:1058D0000C4B87210C4814F03FF90A4A89210A48E9
:1058E00013F0EEFF0346FB71FB7963F07F03DAB23E
:1058F000044B8921044814F02FF900BF0837BD4636
:1059000080BD00BFB80A0020B40A002080B500AFF7
:1059100005480EF00DF903460022402118460EF00E
:10592000C1F900BF80BD00BF2000014080B500AFBD
:1059300005480EF0FDF803460022402118460EF0FF
:1059400067FD00BF80BD00BF2000014080B500AFF3
:1059500008480EF0EDF803460022402118460EF0EC
:1059600067FA0346002B14BF01230023DBB218465D
:1059700080BD00BF2000014080B500AF024814F098
:10598000F1FA0346184680BD940A002080B582B023
:1059900000AF0346FB71FB79002B03D0054813F0E1
:1059A000F8FE02E0034813F008FF00BF0837BD46C9
:1059B00080BD00BF940A002080B500AF024814F0FB
:1059C000ECFA0346184680BDAC0A002080B582B0D0
:1059D00000AF0346FB71FB79044A1946044813F0F3
:1059E0006FFF034618460837BD4680BDB80A002041
:1059F000B40A002080B582B000AF03460A46FB71AE
:105A00001346BB71BA79F979044B054814F0A4F830
:105A1000012318460837BD4680BD00BFB80A0020E4
:105A2000B40A002080B500AF0B4B1B68DB43DB0CD6
:105A300003F001031B03094A13444FF48052194633
:105A400000200AF077FB2021054814F05CFA0C20B6
:105A5000FFF73AFC00BF80BD280002400000003084
:105A6000C80A002080B582B000AF002000F0DAFC48
:105A7000034683F00103DBB2002B01D000236DE06D
:105A8000012000F0CFFC034683F00103DBB2002BC2
:105A900001D0002362E0022000F0C4FC034683F042
:105AA0000103DBB2002B01D0002357E02D4814F096
:105AB000E9FF2D4814F0FBFF4FF001004FF000010B
:105AC0000DF07AFF03461846FFF7C0FC264815F094
:105AD00002F8244815F014F84FF001004FF00001CF
:105AE0000DF06AFF03461846FFF7B0FC1F4815F09B
:105AF0001BF81F4A7F211D4815F070F80346002B44
