:020000040800F2
:100000000000082435090008850900085D0400087F
:10001000850900088509000885090008000000001E
:10002000000000000000000000000000850900083A
:1000300085090008000000008509000885090008FE
:100040008509000885090008850900088509000858
:100050008509000885090008850900088509000848
:100060008509000885090008850900088509000838
:100070008509000885090008850900088509000828
:100080008509000885090008850900088509000818
:100090008509000885090008850900088509000808
:1000A00085090008850900088509000885090008F8
:1000B00085090008850900088509000885090008E8
:1000C00085090008850900088509000885090008D8
:1000D00085090008850900088509000885090008C8
:1000E000850900088509000800000000850900084E
:1000F00085090008850900088509000885090008A8
:100100008509000885090008850900088509000897
:100110008509000885090008850900088509000887
:100120008509000885090008850900088509000877
:100130008509000885090008850900088509000867
:1001400000000000000000000000000000000000AF
:100150008509000885090008850900088509000847
:100160008509000885090008850900088509000837
:100170008509000885090008850900088509000827
:1001800085090008000000008509000885090008AD
:100190008509000885090008850900088509000807
:1001A00085090008850900088509000885090008F7
:1001B00085090008850900088509000885090008E7
:1001C00085090008850900088509000885090008D7
:1001D00085090008850900088509000885090008C7
:1001E00085090008850900088509000885090008B7
:1001F00085090008850900088509000885090008A7
:100200008509000885090008850900088509000896
:100210008509000885090008850900088509000886
:10022000850900088509000885090008000000000C
:1002300085090008850900080000000085090008FC
:100240008509000885090008850900088509000856
:100250008509000885090008850900088509000846
:100260008509000885090008850900088509000836
:100270008509000885090008850900088509000826
:100280008509000800000000850900080000000042
:080290000000000085090008D0
:1002980010B5054C237833B9044B13B10448AFF3B8
:1002A80000800123237010BD7000002400000000AE
:1002B8002C0F000808B5034B1BB103490348AFF3E3
:1002C800008008BD00000000740000242C0F000806
:1002D800A3F5803A704700BF174B002B08BF134B9C
:1002E8009D46FFF7F5FF00218B460F461348144A39
:1002F800121A00F07DFB0E4B002B00D098470D4BD7
:10030800002B00D098470020002104000D000D4864
:10031800002802D00C48AFF3008000F045FB200015
:10032800290000F059F800F02BFB00BF000008007E
:100338000000000000000000000000007000002421
:10034800AC000024000000000000000080B500AFF1
:1003580000F088F80346002B14BF01230023DBB20A
:10036800002B00D000BF1A4BD3F8F430184A43F0E2
:100378000203C2F8F430174B1B6A164A43F0010314
:100388001362144B1B6A03F48073002B0CBF012308
:100398000023DBB2002B00D0F3E70D4BD3F8E0309D
:1003A8000B4A43F00203C2F8E030094BD3F8E030BF
:1003B800074A43F01003C2F8E030054BD3F8E030A9
:1003C800034A43F00103C2F8E03000BF80BD00BF1C
:1003D800004402580004005880B586B000AF194B9D
:1003E8001B687B614FF000033B46184600F034F968
:1003F8003B1D184600F057F907F10803184600F0AE
:1004080079F9114BD3F8F0300F4A43F48053C2F80E
:10041800F03007F10C03184600F08EF907F10C03D1
:10042800184600F09FF900233B613B69074A934255
:1004380004DC00BF3B6901333B61F6E7044BAB22A8
:100448001A62F0E78C00002400440258FFE104001F
:100458000030014080B400AF00BE00BFBD465DF86B
:10046800047B704780B483B000AF6E4B1B686D4A45
:1004780043F01003136000233B606A4B1B6803F0D2
:100488000403002B0CBF01230023DAB2654B1B6861
:1004980003F02003002B0CBF01230023DBB213431E
:1004A800DBB2002B14BF01230023DBB2002B10D0DA
:1004B8003B684FF66522934207DD5A4B1B68594A41
:1004C80023F0010313600123A6E03B6801333B607E
:1004D800D3E7544B9B69534A43F048039361514B0C
:1004E800DB69504A43F48863D3614E4B1B6A4D4A1B
:1004F80043F0400313624B4BDA6A4A494A4B1343B1
:10050800CB62484B10229A62464B484A1A63454BC5
:100518001B68444A43F08073136000233B60414BDF
:100528001B6803F00073002B0CBF01230023DBB210
:10053800002B0FD03B68B3F57A5F07DB394B1B689C
:10054800384A23F080731360012365E03B68013368
:100558003B60E4E7334B1B68324A43F08003136087
:1005680000233B602F4B1B6803F08003002B0CBF5C
:1005780001230023DBB2002B0FD03B68B3F57A5F71
:1005880007DB284B1B68274A23F0800313600123ED
:1005980042E03B6801333B60E4E712237B60244B75
:1005A80012221A6000233B60214B1B68122B14BFD8
:1005B80001230023DBB2002B0CD03B68B3F57A5F34
:1005C80004DB1B4B25221A60012325E03B6801331D
:1005D8003B60E9E7134B1B69124A43F003031361BD
:1005E80000233B600F4B1B6903F03803182B14BF23
:1005F80001230023DBB2002B0DD03B68B3F57A5FF3
:1006080005DB084B074A1B691361012304E03B68BB
:1006180001333B60E6E7002318460C37BD465DF81A
:10062800047B7047004402580C00010027024F0168
:1006380000200052EC0F0008000000247000002485
:1006480070000024AC000024034613F8012B002A94
:10065800FBD1181A0138704780B582B000AF7860B6
:100668004FF4406000F08AF84FF4006000F09AF808
:10067800002000F0A9F84FF4A00000F0B7F84FF4FC
:10068800406000F0C5F84FF4006000F0D5F84FF472
:10069800406000F0E3F8002000F0F4F87B681846AA
:1006A8000837BD4680BD80B582B000AF78604FF492
:1006B800407000F063F84FF4007000F073F8002009
:1006C80000F082F84FF4A02000F090F84FF440704A
:1006D80000F09EF84FF4007000F0AEF84FF4407050
:1006E80000F0BCF8002000F0CDF87B681846083709
:1006F800BD4680BD80B582B000AF7860C02000F0F4
:100708003DF8802000F04EF8002000F05DF84FF42E
:10071800A04000F06BF8C02000F07AF8802000F0CC
:100728008BF8C02000F09AF8002000F0ABF87B6846
:1007380018460837BD4680BD80B582B000AF7860E6
:10074800002000F0B1F8054800F0BEF8044800F0B9
:10075800CBF87B6818460837BD4680BDE701030023
:100768000000422080B582B000AF7860012000F020
:10077800CBF800BF0837BD4680BD000080B483B009
:1007880000AF7860064B1A687B68DB430449134066
:100798000B6000BF0C37BD465DF8047B704700BF97
:1007A8000004025880B483B000AF7860054B1A6823
:1007B80004497B6813430B6000BF0C37BD465DF8E6
:1007C800047B70470004025880B483B000AF78609F
:1007D800054B1A6804497B6813430B6000BF0C374C
:1007E800BD465DF8047B70470404025880B483B0AA
:1007F80000AF7860054B1A6804497B6813430B60A7
:1008080000BF0C37BD465DF8047B704720040258D2
:1008180080B483B000AF7860064B1A687B68DB430E
:10082800044913400B6000BF0C37BD465DF8047BDC
:10083800704700BF0804025880B483B000AF7860E6
:10084800054B1A6804497B6813430B6000BF0C37DB
:10085800BD465DF8047B70470804025880B483B035
:1008680000AF7860064B1A687B68DB430449134085
:100878000B6000BF0C37BD465DF8047B704700BFB6
:100888000C04025880B483B000AF7860054B1A6836
:1008980004497B6813430B6000BF0C37BD465DF805
:1008A800047B70470C04025880B483B000AF7860B2
:1008B800044A7B68136000BF0C37BD465DF8047BB3
:1008C800704700BF0030014080B483B000AF78604B
:1008D800044A7B68136000BF0C37BD465DF8047B93
:1008E800704700BF0830014080B483B000AF786023
:1008F800044A7B68136000BF0C37BD465DF8047B73
:10090800704700BF0C30014080B483B000AF7860FE
:10091800054B1A6804497B6813430B6000BF0C370A
:10092800BD465DF8047B7047003001400D488546A0
:10093800FFF70CFD0C480D490D4A002302E0D4587E
:10094800C4500433C4188C42F9D30A4A0A4C002311
:1009580001E013600432A242FBD300F025F8FFF750
:100968003BFDFEE70000082400000024700000247E
:10097800EC0F000870000024AC000024FEE7000023
:1009880008B5074B044613B10021AFF30080054BAF
:100998001868836A03B19847204600F0C1FA00BF7F
:1009A80000000000A40F000870B50D4D0D4C641B2D
:1009B800A4100026A64209D10B4D0C4C00F0B4FA45
:1009C800641BA4100026A64205D170BD55F8043B4F
:1009D80098470136EEE755F8043B98470136F2E7A9
:1009E800E00F0008E00F0008E00F0008E80F00081B
:1009F80002440346934200D1704703F8011BF9E70C
:100A0800034B1A6812B9A2F576021A60704700BF44
:100A18008C00002400B5104B8DB06A4603F12806FF
:100A2800154618685968144603C40833B342224669
:100A3800F7D118681B79237120602846FFF704FE58
:100A480029460246022000F00DF8062000F008F9B9
:100A58007F2000F065FA00BFA80F000808B5FFF76F
:100A6800D9FF000013460A4601460248006800F014
:100A780003B800BF0C00002438B5074D04460846EB
:100A8800114600222A601A4600F042FA431C02D19D
:100A98002B6803B1236038BD9000002438B50C469C
:100AA8000968054609B1FFF7F9FF21462846BDE860
:100AB800384000F007B900002C4B1B68834270B522
:100AC800044651D0436A43B1DB68002B4AD1636ABC
:100AD800196811B1204600F0F5F8616911B1204696
:100AE80000F0F0F8616A11B1204600F0EBF8A16B54
:100AF80011B1204600F0E6F8E16B11B1204600F094
:100B0800E1F8216C11B1204600F0DCF8E16D11B17B
:100B1800204600F0D7F8A16D11B1204600F0D2F8B8
:100B2800616B11B1204600F0CDF8A369E3B1A36A67
:100B380020469847A16CB9B12046BDE87040FFF740
:100B4800ADBF495941B90435636A802DD968F8D1D8
:100B5800204600F0B7F8BAE70E68204600F0B2F871
:100B68003146EFE70025EFE770BD00BF0C00002419
:100B780038B5456C044655B9802100F00FF960641A
:100B880038B1031F7C3043F8045F8342FBD1002057
:100B980038BD4FF0FF30FBE71F2970B504460D46FE
:100BA800164604D9162303604FF0FF3006E0436C65
:100BB8002BB1636C53F8250043F8256070BDFFF72F
:100BC800D7FF0028F5D0EFE71F2938B504460D46B2
:100BD80004D9162303604FF0FF3038BD426C12B1C0
:100BE80052F821304BB9204600F06AF82A460146EF
:100BF8002046BDE8384000F051B8012B0AD0591CF6
:100C080003D1162303600120E7E7002442F82540BA
:100C1800284698470020E0E71F2938B504460D46C6
:100C280002D94FF0FF3038BD436C2BB1626C52F8DB
:100C3800253033B90120F6E7FFF79AFF0028F5D0F1
:100C4800EFE7591C08D0012B08D00024284642F8A9
:100C5800254098472046E6E70220E4E70320E2E73C
:100C6800024B01461868FFF7AFBF00BF0C00002415
:100C7800024B0A4601461868FFF78EBF0C00002495
:100C8800014B1868FFF774BF0C000024024B0146A3
:100C98001868FFF7C1BF00BF0C00002438B5074D26
:100CA80000230446084611462B6000F01BF9431C3C
:100CB80002D12B6803B1236038BD00BF9000002427
:100CC80000F008B937B5002944D051F8043C019028
:100CD800002BA1F10404B8BFE41800F0E3F81E4AA1
:100CE8000198136833B96360146003B0BDE83040FD
:100CF80000F0DEB8A34208D9256861198B4201BF0C
:100D080019685B6849192160EDE71A465B680BB101
:100D1800A342FAD911685518A5420BD12468214479
:100D28005418A3421160E0D11C685B6853602144E9
:100D38001160DAE702D90C230360D6E72568611948
:100D48008B4204BF19685B68636004BF491921605E
:100D58005460CAE703B030BD9400002470B50E4E4D
:100D68000C463168054611B900F08CF83060214610
:100D7800284600F087F8431C0AD0C41C24F003045A
:100D8800A04207D0211A284600F07CF8013001D192
:100D98004FF0FF34204670BD980000242DE9F04143
:100DA800CD1C25F0030508350C2D38BF0C25002D6A
:100DB800074601DBA94205D90C233B6000263046D3
:100DC800BDE8F0812E4E00F06DF833681C4634BB48
:100DD80029463846FFF7C2FF431C04464DD1346804
:100DE8002646002E40D123683146384604EB0308D6
:100DF80000F048F880453AD1216803356D1A25F08E
:100E0800030508350C2D38BF0C2529463846FFF751
:100E1800A5FF01302BD023682B4423600EE0226805
:100E2800521B1ED40B2A16D96119A342256018BF7C
:100E38005960636808BF316062514B60384604F1FD
:100E48000B0600F035F826F00706231DF21AB6D077
:100E58009B1BA350B3E76268A3420CBF32605A6081
:100E6800ECE723466468B2E734467668B9E70C23B2
:100E78003B60384600F01CF8A1E72560DEE700BFBC
:100E88009400002438B5064D0023044608462B601C
:100E980000F030F8431C02D12B6803B1236038BD41
:100EA80090000024014800F00EB800BFA100002403
:100EB800014800F00EB800BFA10000247047704739
:100EC800704770477047704701207047012070478E
:100ED80070477047024B58221A604FF0FF30704736
:100EE80090000024024B58221A604FF0FF307047E0
:100EF80090000024044A05491368002B08BF0B46DC
:100F08001844106018467047A8000024B000002458
:100F1800024B58221A604FF0FF30704790000024AF
:100F2800FEE700BF00000000F8B500BFF8BC08BC31
:100F38009E467047F8B500BFF8BC08BC9E4670478F
:100F48003B3E0B3E103E253E333E033E063E143EDE
:100F58000E3E0D3E243E123E273E023E183E093EFE
:100F68000A3E000066FA0000803E0000803E000055
:100F7800803E0000803E00003B3E0B3E103E253E7A
:100F8800333E033E063E143E0E3E0D3E243E123EC8
:100F9800273E023E183E093E0A3E0000100000248B
:100FA8002A2A2A20737461636B20736D61736869E0
:100FB8006E67206465746563746564202A2A2A3A1A
:100FC800207465726D696E617465640A00000000C2
:080FD80000F3FF7F010000009F
:080FE000BD020008090A000827
:040FE8009902000862
:100FEC00000000000123456789ABCDEF1000002401
:100FFC0000000000000000000000000000000000E5
:10100C0000000000000000000000000000000000D4
:10101C0000000000000000000000000000000000C4
:10102C0000000000000000000000000000000000B4
:10103C0000000000000000000000000000000000A4
:10104C000000000000000000000000000000000094
:0400000508000935B1
:00000001FF
