:020000040800F2
:10000000000008240D0D00085D0D0008990400088B
:100010005D0D00085D0D00085D0D0008000000008A
:100020000000000000000000000000005D0D00085E
:100030005D0D0008000000005D0D00085D0D00086A
:100040005D0D00085D0D00085D0D00085D0D0008E8
:100050005D0D00085D0D00085D0D00085D0D0008D8
:100060005D0D00085D0D00085D0D00085D0D0008C8
:100070005D0D00085D0D00085D0D00085D0D0008B8
:100080005D0D00085D0D00085D0D00085D0D0008A8
:100090005D0D00085D0D00085D0D00088504000879
:1000A0005D0D00085D0D00085D0D00085D0D000888
:1000B0005D0D00085D0D00085D0D00085D0D000878
:1000C0005D0D00085D0D00085D0D00085D0D000868
:1000D0005D0D00085D0D00085D0D00085D0D000858
:1000E0005D0D00085D0D0008000000005D0D0008BA
:1000F0005D0D00085D0D00085D0D00085D0D000838
:100100005D0D00085D0D00085D0D00085D0D000827
:100110005D0D00085D0D00085D0D00085D0D000817
:100120005D0D00085D0D00085D0D00085D0D000807
:100130005D0D00085D0D00085D0D00085D0D0008F7
:1001400000000000000000000000000000000000AF
:100150005D0D00085D0D00085D0D00085D0D0008D7
:100160005D0D00085D0D00085D0D00085D0D0008C7
:100170005D0D00085D0D00085D0D00085D0D0008B7
:100180005D0D0008000000005D0D00085D0D000819
:100190005D0D00085D0D00085D0D00085D0D000897
:1001A0005D0D00085D0D00085D0D00085D0D000887
:1001B0005D0D00085D0D00085D0D00085D0D000877
:1001C0005D0D00085D0D00085D0D00085D0D000867
:1001D0005D0D00085D0D00085D0D00085D0D000857
:1001E0005D0D00085D0D00085D0D00085D0D000847
:1001F0005D0D00085D0D00085D0D00085D0D000837
:100200005D0D00085D0D00085D0D00085D0D000826
:100210005D0D00085D0D00085D0D00085D0D000816
:100220005D0D00085D0D00085D0D00080000000078
:100230005D0D00085D0D0008000000005D0D000868
:100240005D0D00085D0D00085D0D00085D0D0008E6
:100250005D0D00085D0D00085D0D00085D0D0008D6
:100260005D0D00085D0D00085D0D00085D0D0008C6
:100270005D0D00085D0D00085D0D00085D0D0008B6
:100280005D0D0008000000005D0D0008000000008A
:08029000000000005D0D0008F4
:1002980010B5054C237833B9044B13B10448AFF3B8
:1002A80000800123237010BD7000002400000000AE
:1002B8000413000808B5034B1BB103490348AFF307
:1002C800008008BD0000000074000024041300082A
:1002D800A3F5803A704700BF174B002B08BF134B9C
:1002E8009D46FFF7F5FF00218B460F461348144A39
:1002F800121A00F069FD0E4B002B00D098470D4BE9
:10030800002B00D098470020002104000D000D4864
:10031800002802D00C48AFF3008000F031FD200027
:10032800290000F077F800F017FD00BF0000080072
:100338000000000000000000000000007000002421
:10034800B0000024000000000000000080B483B06A
:1003580000AF0346FB80B7F90630002B0BDBFB88A8
:1003680003F01F020749B7F906305B09012000FABC
:1003780002F241F8232000BF0C37BD465DF8047B2C
:10038800704700BF00E100E080B500AF00F0A6F8BC
:100398000346002B14BF01230023DBB2002B00D03F
:1003A80000BF1A4BD3F8F430184A43F00203C2F8DE
:1003B800F430174B1B6A164A43F001031362144BBF
:1003C8001B6A03F48073002B0CBF01230023DBB2EC
:1003D800002B00D0F3E70D4BD3F8E0300B4A43F085
:1003E8000203C2F8E030094BD3F8E030074A43F083
:1003F8001003C2F8E030054BD3F8E030034A43F06D
:100408000103C2F8E03000BF80BD00BF00440258BD
:100418000004005880B584B000AF154B1B68FB6022
:100428004FF000033B46184600F077F93B1D18468D
:1004380000F094F91720FFF789FF01210D4800F01B
:10044800B2F90023BB60BB680B4A934204DC00BFCF
:10045800BB680133BB60F6E7064800F0CFF90346F6
:100468001A463B1D1146184600F0D9F9E9E700BFC6
:10047800900000248C000024FFE1040080B500AF48
:1004880000BF024800F0DFF900BF80BD8C000024E7
:1004980080B400AF00BE00BFBD465DF8047B704766
:1004A80080B582B000AF786039607B68012B07D1D6
:1004B8003B684FF6FF72934202D1034800F008F9F7
:1004C80000BF0837BD4680BD8C00002480B500AF52
:1004D8004FF6FF710120FFF7E3FF80BD80B483B0C2
:1004E80000AF6E4B1B686D4A43F010031360002386
:1004F8003B606A4B1B6803F00403002B0CBF01230D
:100508000023DAB2654B1B6803F02003002B0CBFF5
:1005180001230023DBB21343DBB2002B14BF0123FA
:100528000023DBB2002B10D03B684FF665229342C4
:1005380007DD5A4B1B68594A23F001031360012356
:10054800A6E03B6801333B60D3E7544B9B69534AB1
:1005580043F048039361514BDB69504A43F4886385
:10056800D3614E4B1B6A4D4A43F0400313624B4B19
:10057800DA6A4A494A4B1343CB62484B10229A62C3
:10058800464B484A1A63454B1B68444A43F08073FC
:10059800136000233B60414B1B6803F00073002B82
:1005A8000CBF01230023DBB2002B0FD03B68B3F54F
:1005B8007A5F07DB394B1B68384A23F08073136076
:1005C800012365E03B6801333B60E4E7334B1B687C
:1005D800324A43F08003136000233B602F4B1B68B3
:1005E80003F08003002B0CBF01230023DBB2002B98
:1005F8000FD03B68B3F57A5F07DB284B1B68274AA7
:1006080023F080031360012342E03B6801333B6021
:10061800E4E712237B60244B12221A6000233B601C
:10062800214B1B68122B14BF01230023DBB2002BC4
:100638000CD03B68B3F57A5F04DB1B4B25221A60AC
:10064800012325E03B6801333B60E9E7134B1B6955
:10065800124A43F00303136100233B600F4B1B69ED
:1006680003F03803182B14BF01230023DBB2002B3F
:100678000DD03B68B3F57A5F05DB084B074A1B6969
:100688001361012304E03B6801333B60E6E7002384
:1006980018460C37BD465DF8047B70470044025885
:1006A8000C0001002702010100200052C8130008B5
:1006B800000000247000002470000024B000002412
:1006C800034613F8012B002AFBD1181A013870478A
:1006D80080B582B000AF78604FF4404000F0BEF8BB
:1006E800002000F0CFF8802000F0DEF8002000F0B5
:1006F800EDF84FF4404000F0FBF8002000F00CF952
:100708004FF4404000F01AF94FF4804000F02AF905
:100718007B6818460837BD4680BD80B582B000AFFB
:1007280078600C2000F030F9042000F041F9002036
:1007380000F050F9002000F05FF90C2000F06EF98D
:10074800002000F07FF90C2000F08EF9002000F066
:100758009FF97B6818460837BD4680BD80B582B0D2
:1007680000AF78604FF0405000F0A4F94FF080508F
:1007780000F0B4F9002000F0C3F9002000F0D2F92D
:100788004FF0405000F0E0F9002000F0F1F94FF090
:10079800405000F0FFF9002000F010FA7B6818467E
:1007A8000837BD4680BD80B582B000AF786039603B
:1007B800012000F015FA3B68022B11D03B68022B90
:1007C80014DC3B68002B03D03B68012B04D00DE000
:1007D800802000F017FA0AE0802000F025FA06E0F1
:1007E800802000F00FFA802000F01EFA00BF802061
:1007F80000F02CFA00BF0837BD4680BD80B582B036
:1008080000AF7860802000F033FA0346002B14BF55
:1008180001230023DBB218460837BD4680BD80B5EA
:1008280082B000AF78600B46FB70FB78002B03D0DA
:10083800786800F02DFA02E0786800F035FA00BF19
:100848000837BD4680BD80B582B000AF7860802093
:1008580000F036FA00BF0837BD4680BD80B483B0CB
:1008680000AF7860064B1A687B68DB430449134085
:100878000B6000BF0C37BD465DF8047B704700BFB6
:100888000000025880B483B000AF7860054B1A6846
:1008980004497B6813430B6000BF0C37BD465DF805
:1008A800047B70470000025880B483B000AF7860C2
:1008B800054B1A6804497B6813430B6000BF0C376B
:1008C800BD465DF8047B70470400025880B483B0CD
:1008D80000AF7860054B1A6804497B6813430B60C6
:1008E80000BF0C37BD465DF8047B704720000258F6
:1008F80080B483B000AF7860064B1A687B68DB432E
:10090800044913400B6000BF0C37BD465DF8047BFB
:10091800704700BF0800025880B483B000AF786009
:10092800054B1A6804497B6813430B6000BF0C37FA
:10093800BD465DF8047B70470800025880B483B058
:1009480000AF7860064B1A687B68DB4304491340A4
:100958000B6000BF0C37BD465DF8047B704700BFD5
:100968000C00025880B483B000AF7860054B1A6859
:1009780004497B6813430B6000BF0C37BD465DF824
:10098800047B70470C00025880B483B000AF7860D5
:10099800064B1A687B68DB43044913400B6000BFB1
:1009A8000C37BD465DF8047B704700BF0010025845
:1009B80080B483B000AF7860054B1A6804497B683F
:1009C80013430B6000BF0C37BD465DF8047B7047CE
:1009D8000010025880B483B000AF7860054B1A68E5
:1009E80004497B6813430B6000BF0C37BD465DF8B4
:1009F800047B70470410025880B483B000AF78605D
:100A0800054B1A6804497B6813430B6000BF0C3719
:100A1800BD465DF8047B70472010025880B483B04F
:100A280000AF7860064B1A687B68DB4304491340C3
:100A38000B6000BF0C37BD465DF8047B704700BFF4
:100A48000810025880B483B000AF7860054B1A686C
:100A580004497B6813430B6000BF0C37BD465DF843
:100A6800047B70470810025880B483B000AF7860E8
:100A7800064B1A687B68DB43044913400B6000BFD0
:100A88000C37BD465DF8047B704700BF0C10025858
:100A980080B483B000AF7860054B1A6804497B685E
:100AA80013430B6000BF0C37BD465DF8047B7047ED
:100AB8000C10025880B483B000AF7860064B1A68F7
:100AC8007B68DB43044913400B6000BF0C37BD460D
:100AD8005DF8047B704700BF0004025880B483B0FF
:100AE80000AF7860054B1A6804497B6813430B60B4
:100AF80000BF0C37BD465DF8047B70470004025800
:100B080080B483B000AF7860054B1A6804497B68ED
:100B180013430B6000BF0C37BD465DF8047B70477C
:100B28000404025880B483B000AF7860054B1A689B
:100B380004497B6813430B6000BF0C37BD465DF862
:100B4800047B70472404025880B483B000AF7860F7
:100B5800064B1A687B68DB43044913400B6000BFEF
:100B68000C37BD465DF8047B704700BF0804025887
:100B780080B483B000AF7860054B1A6804497B687D
:100B880013430B6000BF0C37BD465DF8047B70470C
:100B98000804025880B483B000AF7860064B1A6826
:100BA8007B68DB43044913400B6000BF0C37BD462C
:100BB8005DF8047B704700BF0C04025880B483B012
:100BC80000AF7860054B1A6804497B6813430B60D3
:100BD80000BF0C37BD465DF8047B70470C04025813
:100BE80080B483B000AF7860054B1A6804497B680D
:100BF80013430B6000BF0C37BD465DF8047B70479C
:100C08000C04005880B483B000AF78604FF0B04354
:100C18001A684FF0B0417B6813430B6000BF0C3774
:100C2800BD465DF8047B704780B483B000AF786040
:100C3800054B1A6804497B6813430B6000BF0C37E7
:100C4800BD465DF8047B70470400005880B483B04B
:100C580000AF7860054B1A6804497B6813430B6042
:100C680000BF0C37BD465DF8047B70478000005814
:100C780080B483B000AF7860044B1A687B68134077
:100C880018460C37BD465DF8047B704710000258C3
:100C980080B582B000AF78604FF4804000F022F851
:100CA80000BF0837BD4680BD80B582B000AF786010
:100CB8004FF0804000F016F800BF0837BD4680BDF1
:100CC80080B483B000AF7860054B1A6804497B682C
:100CD80013430B6000BF0C37BD465DF8047B7047BB
:100CE8008800005880B483B000AF7860044A7B68FD
:100CF800136000BF0C37BD465DF8047B704700BF2A
:100D0800180402580D488546FFF73EFB0C480D496C
:100D18000D4A002302E0D458C4500433C4188C424E
:100D2800F9D30A4A0A4C002301E013600432A242B4
:100D3800FBD300F025F8FFF76DFBFEE70000082461
:100D48000000002470000024C8130008700000246C
:100D5800B0000024FEE7000008B5074B044613B1B5
:100D68000021AFF30080054B1868836A03B19847E8
:100D7800204600F0C1FA00BF000000007C13000804
:100D880070B50D4D0D4C641BA4100026A64209D168
:100D98000B4D0C4C00F0B4FA641BA4100026A642BC
:100DA80005D170BD55F8043B98470136EEE755F874
:100DB800043B98470136F2E7B8130008B813000857
:100DC800B8130008C413000802440346934200D134
:100DD800704703F8011BF9E7034B1A6812B9A2F52B
:100DE80076021A60704700BF9000002400B5104BCF
:100DF8008DB06A4603F128061546186859681446E6
:100E080003C40833B3422246F7D118681B7923710B
:100E180020602846FFF754FC29460246022000F0CD
:100E28000DF8062000F008F97F2000F065FA00BFF1
:100E38008013000808B5FFF7D9FF000013460A46DB
:100E480001460248006800F003B800BF0C00002407
:100E580038B5074D04460846114600222A601A464E
:100E680000F042FA431C02D12B6803B1236038BD5D
:100E78009400002438B50C460968054609B1FFF707
:100E8800F9FF21462846BDE8384000F007B90000C0
:100E98002C4B1B68834270B5044651D0436A43B15A
:100EA800DB68002B4AD1636A196811B1204600F04B
:100EB800F5F8616911B1204600F0F0F8616A11B1E6
:100EC800204600F0EBF8A16B11B1204600F0E6F8DF
:100ED800E16B11B1204600F0E1F8216C11B1204618
:100EE80000F0DCF8E16D11B1204600F0D7F8A16DF3
:100EF80011B1204600F0D2F8616B11B1204600F024
:100F0800CDF8A369E3B1A36A20469847A16CB9B1AB
:100F18002046BDE87040FFF7ADBF495941B90435D7
:100F2800636A802DD968F8D1204600F0B7F8BAE78F
:100F38000E68204600F0B2F83146EFE70025EFE7EB
:100F480070BD00BF0C00002438B5456C044655B987
:100F5800802100F00FF9606438B1031F7C3043F83A
:100F6800045F8342FBD1002038BD4FF0FF30FBE720
:100F78001F2970B504460D46164604D9162303608A
:100F88004FF0FF3006E0436C2BB1636C53F825003B
:100F980043F8256070BDFFF7D7FF0028F5D0EFE7CD
:100FA8001F2938B504460D4604D9162303604FF0AF
:100FB800FF3038BD426C12B152F821304BB920468F
:100FC80000F06AF82A4601462046BDE8384000F09D
:100FD80051B8012B0AD0591C03D1162303600120F4
:100FE800E7E7002442F82540284698470020E0E734
:100FF8001F2938B504460D4602D94FF0FF3038BDD9
:10100800436C2BB1626C52F8253033B90120F6E7F6
:10101800FFF79AFF0028F5D0EFE7591C08D0012BFD
:1010280008D00024284642F8254098472046E6E79D
:101038000220E4E70320E2E7024B01461868FFF7C5
:10104800AFBF00BF0C000024024B0A4601461868D7
:10105800FFF78EBF0C000024014B1868FFF774BF20
:101068000C000024024B01461868FFF7C1BF00BFFF
:101078000C00002438B5074D0023044608461146E5
:101088002B6000F01BF9431C02D12B6803B12360CD
:1010980038BD00BF9400002400F008B937B5002916
:1010A80044D051F8043C0190002BA1F10404B8BFCE
:1010B800E41800F0E3F81E4A0198136833B9636036
:1010C800146003B0BDE8304000F0DEB8A34208D990
:1010D800256861198B4201BF19685B68491921604D
:1010E800EDE71A465B680BB1A342FAD911685518A7
:1010F800A5420BD1246821445418A3421160E0D1C1
:101108001C685B68536021441160DAE702D90C233C
:101118000360D6E7256861198B4204BF19685B68CC
:10112800636004BF491921605460CAE703B030BD49
:101138009800002470B50E4E0C463168054611B96A
:1011480000F08CF830602146284600F087F8431CF0
:101158000AD0C41C24F00304A04207D0211A284650
:1011680000F07CF8013001D14FF0FF34204670BD0B
:101178009C0000242DE9F041CD1C25F0030508351D
:101188000C2D38BF0C25002D074601DBA94205D9D7
:101198000C233B6000263046BDE8F0812E4E00F05F
:1011A8006DF833681C4634BB29463846FFF7C2FF42
:1011B800431C04464DD134682646002E40D123688E
:1011C8003146384604EB030800F048F880453AD128
:1011D800216803356D1A25F0030508350C2D38BF35
:1011E8000C2529463846FFF7A5FF01302BD0236888
:1011F8002B4423600EE02268521B1ED40B2A16D9FA
:101208006119A342256018BF5960636808BF31603F
:1012180062514B60384604F10B0600F035F826F0B1
:101228000706231DF21AB6D09B1BA350B3E76268CA
:10123800A3420CBF32605A60ECE723466468B2E709
:1012480034467668B9E70C233B60384600F01CF852
:10125800A1E72560DEE700BF9800002438B5064DF9
:101268000023044608462B6000F030F8431C02D1E6
:101278002B6803B1236038BD94000024014800F0B6
:101288000EB800BFA5000024014800F00EB800BF4A
:10129800A500002470477047704770477047704733
:1012A800012070470120704770477047024B582251
:1012B8001A604FF0FF30704794000024024B582208
:1012C8001A604FF0FF30704794000024044A054923
:1012D8001368002B08BF0B46184410601846704767
:1012E800AC000024B0000024024B58221A604FF0D2
:1012F800FF30704794000024FEE700BF00000000A4
:10130800F8B500BFF8BC08BC9E467047F8B500BFEA
:08131800F8BC08BC9E467047BA
:101320003B3E0B3E103E253E333E033E063E143E02
:101330000E3E0D3E243E123E273E023E183E093E22
:101340000A3E000066FA0000803E0000803E000079
:10135000803E0000803E00003B3E0B3E103E253E9E
:10136000333E033E063E143E0E3E0D3E243E123EEC
:10137000273E023E183E093E0A3E000010000024AF
:101380002A2A2A20737461636B20736D6173686904
:101390006E67206465746563746564202A2A2A3A3E
:1013A000207465726D696E617465640A00000000E6
:0813B00028EFFF7F010000009F
:0C13B800BD020008D5040008E10D00088B
:0413C4009902000882
:1013C800000000000123456789ABCDEF1000002421
:1013D8000000000000000000000000000000000005
:1013E80000000000000000000000000000000000F5
:1013F80000000000000000000000000000000000E5
:1014080000000000000000000000000000000000D4
:1014180000000000000000000000000000000000C4
:1014280000000000000000000000000000000000B4
:0400000508000D0DD5
:00000001FF
