:020000040800F2
:1000000000000824910D0008E10D000841040008DB
:10001000E10D0008E10D0008E10D000800000000FE
:10002000000000000000000000000000E10D0008DA
:10003000E10D000800000000E10D0008E10D0008DE
:10004000E10D0008E10D0008E10D0008E10D0008D8
:10005000E10D0008E10D0008E10D0008E10D0008C8
:10006000E10D0008E10D0008E10D0008E10D0008B8
:10007000E10D0008E10D0008E10D0008E10D0008A8
:10008000E10D0008E10D0008E10D0008E10D000898
:10009000E10D0008E10D0008E10D00082D04000845
:1000A000E10D0008E10D0008E10D0008E10D000878
:1000B000E10D0008E10D0008E10D0008E10D000868
:1000C000E10D0008E10D0008E10D0008E10D000858
:1000D000E10D0008E10D0008E10D0008E10D000848
:1000E000E10D0008E10D000800000000E10D00082E
:1000F000E10D0008E10D0008E10D0008E10D000828
:10010000E10D0008E10D0008E10D0008E10D000817
:10011000E10D0008E10D0008E10D0008E10D000807
:10012000E10D0008E10D0008E10D0008E10D0008F7
:10013000E10D0008E10D0008E10D0008E10D0008E7
:1001400000000000000000000000000000000000AF
:10015000E10D0008E10D0008E10D0008E10D0008C7
:10016000E10D0008E10D0008E10D0008E10D0008B7
:10017000E10D0008E10D0008E10D0008E10D0008A7
:10018000E10D000800000000E10D0008E10D00088D
:10019000E10D0008E10D0008E10D0008E10D000887
:1001A000E10D0008E10D0008E10D0008E10D000877
:1001B000E10D0008E10D0008E10D0008E10D000867
:1001C000E10D0008E10D0008E10D0008E10D000857
:1001D000E10D0008E10D0008E10D0008E10D000847
:1001E000E10D0008E10D0008E10D0008E10D000837
:1001F000E10D0008E10D0008E10D0008E10D000827
:10020000E10D0008E10D0008E10D0008E10D000816
:10021000E10D0008E10D0008E10D0008E10D000806
:10022000E10D0008E10D0008E10D000800000000EC
:10023000E10D0008E10D000800000000E10D0008DC
:10024000E10D0008E10D0008E10D0008E10D0008D6
:10025000E10D0008E10D0008E10D0008E10D0008C6
:10026000E10D0008E10D0008E10D0008E10D0008B6
:10027000E10D0008E10D0008E10D0008E10D0008A6
:10028000E10D000800000000E10D00080000000082
:0802900000000000E10D000870
:1002980010B5054C237833B9044B13B10448AFF3B8
:1002A80000800123237010BD6800002400000000B6
:1002B8008813000808B5034B1BB103490348AFF383
:1002C800008008BD000000006C00002488130008AE
:1002D800A3F5803A704700BF174B002B08BF134B9C
:1002E8009D46FFF7F5FF00218B460F461348144A39
:1002F800121A00F0ABFD0E4B002B00D098470D4BA7
:10030800002B00D098470020002104000D000D4864
:10031800002802D00C48AFF3008000F073FD2000E5
:10032800290000F065F800F059FD00BF0000080042
:100338000000000000000000000000006800002429
:10034800AC000024000000000000000080B483B06E
:1003580000AF0346FB80B7F90630002B0BDBFB88A8
:1003680003F01F020749B7F906305B09012000FABC
:1003780002F241F8232000BF0C37BD465DF8047B2C
:10038800704700BF00E100E080B500AF00F08AF8D8
:10039800154BD3F8F430144A43F00203C2F8F43092
:1003A800124B1B6A114A43F0010313620F4B1B6A7D
:1003B80003F48073002B0CBF01230023DBB2002B56
:1003C80000D0F3E7084BD3F8E030074A43F00203C4
:1003D800C2F8E030044BD3F8E030034A43F001039D
:1003E800C2F8E03000BF80BD004402580004005845
:1003F80080B582B000AF1720FFF7A8FF012107489A
:1004080000F096FA00237B607B68054A9342F9DC8A
:1004180000BF7B6801337B60F6E700BF88000024DB
:10042800FFE1040080B500AF00BF024800F0A8FA61
:1004380000BF80BD8800002480B400AF00BE00BFAC
:10044800BD465DF8047B704780B584B002AF786024
:1004580039607B68012B14D13B684FF6FF729342D9
:100468000FD100230093002300220121074800F048
:10047800F5F800230093012301220021044800F02D
:1004880019F900BF0837BD4680BD00BF84000024AD
:100498008800002480B500AF4FF6FF710120FFF7F8
:1004A800D3FF80BD90B589B004AF5F4B1B68FB607C
:1004B8004FF000035D4B184600F028F90346002270
:1004C8001021184600F0E3FB584B184600F01EF9BF
:1004D8000346184600F042FB034603F00403002BD2
:1004E8000CBF01230023DCB2504B184600F00EF974
:1004F8000346184600F032FB034603F02003002BA6
:100508000CBF01230023DBB22343DBB2002B14BF53
:1005180001230023DBB2002B00D0D5E738460323A4
:1005280003930423029304230193042300930823D1
:100538000422002100F0CCFA3B1D002203211846BA
:1005480000F03CFB3B1D184600F0CEFB3B1D184657
:1005580000F0E4FB034683F00103DBB2002B00D07C
:10056800F4E7324B184600F0D1F803460022802108
:10057800184600F08CFB2D4B184600F0C7F80346D0
:10058800184600F0EBFA034603F08003002B0CBF7B
:1005980001230023DBB2002B00D0ECE71223BB6061
:1005A800234B184600F0B2F80346002212211846E1
:1005B80000F0D4FB1E4B184600F0A8F80346184676
:1005C80000F0CCFA0346122B14BF01230023DBB240
:1005D800002B00D0EEE7174800F098F803460022F9
:1005E8000321184600F053FB124800F08FF8034629
:1005F800184600F0B3FA034603F03803182B14BF6B
:1006080001230023DBB2002B00D0EDE700BF064B2F
:100618001A68FB685A404FF0000301D000F028FC2C
:100628001437BD4690BD00BF8C000024004402581A
:1006380000200052104402588814000800000024CA
:100648006800002468000024AC000024034613F866
:10065800012B002AFBD1181A0138704780B582B0E7
:1006680000AF7860084611461A460346FB700B46F1
:10067800BB7013467B707B680D4A1A60FB7819467D
:10068800786800F08AF83B7C1946786800F0ABF887
:100698007B781946786800F0BBF8BB78194678680B
:1006A80000F0CBF87B6818460837BD4680BD00BF10
:1006B8000004025880B582B000AF78600846114641
:1006C8001A460346FB700B46BB7013467B707B686B
:1006D8000D4A1A60FB781946786800F0C3F83B7C2D
:1006E8001946786800F0E4F87B781946786800F0D5
:1006F800F4F8BB781946786800F004F97B68184666
:100708000837BD4680BD00BF0000025880B584B0E0
:1007180000AF78600C4B1B68FB604FF0000307F1DB
:1007280008037968184600F03FF9BB68064A116863
:10073800FA6851404FF0000201D000F099FB1846CA
:100748001037BD4680BD00BF8C00002490B585B031
:1007580000AFF860B9607A603B6007F10C03184697
:1007680000F036F903461B68B9683A6801FA02F2E4
:10077800D24313407968BA6811403A6801FA02F224
:1007880043EA020407F10C03184600F021F9034676
:100798001C6000BF1437BD4690BD80B584B000AF63
:1007A80078600B46FB707B681B681846FFF7AEFF46
:1007B800FA781C230321FFF7C9FF0123BB60182324
:1007C800FB607B681B6824331846FFF79FFFFB78A4
:1007D8001B09DBB21A4618230F21FFF7B7FF00BF2A
:1007E8001037BD4680BD80B582B000AF78600B463B
:1007F800FB707B681B6808331846FFF787FFFA7899
:100808001C230321FFF7A2FF00BF0837BD4680BDA8
:1008180080B582B000AF78600B46FB707B681B68C0
:100828000C331846FFF772FFFA781C230321FFF7F1
:100838008DFF00BF0837BD4680BD80B582B000AFD0
:1008480078600B46FB707B681B6804331846FFF71B
:100858005DFFFA780E230121FFF778FF00BF083704
:10086800BD4680BD80B584B000AF78600B46FB7094
:100878007B681B681846FFF749FFFA780E230321A7
:10088800FFF764FF0023BB601C23FB607B681B68C9
:1008980020331846FFF73AFFFB781B09DBB21A46EC
:1008A8001C230F21FFF752FF00BF1037BD4680BD44
:1008B80080B582B000AF78600B46FB707B681B6820
:1008C80008331846FFF722FFFA780E230321FFF7B3
:1008D8003DFF00BF0837BD4680BD80B582B000AF80
:1008E80078600B46FB707B681B680C331846FFF773
:1008F8000DFFFA780E230321FFF728FF00BF083702
:10090800BD4680BD80B582B000AF78600B46FB70F5
:100918007B681B6804331846FFF7F8FEFA7807234C
:100928000121FFF713FF00BF0837BD4680BD000057
:1009380080B586B000AF786039600123FB600C2376
:100948003B6100237B610C48FFF7E0FE0C2300228B
:100958000F21FFF7FBFE3968786800F045F8074873
:10096800FFF7D4FE034607220121184600F076F867
:1009780000BF1837BD4680BD0C04005880000058E1
:1009880080B582B000AF78600648FFF7BFFE034627
:1009980007220121184600F061F800BF0837BD465C
:1009A80080BD00BF8800005880B582B000AF786075
:1009B8003960386800F069F80346184600F070F8A6
:1009C80002467B681A607B6818460837BD4680BDBA
:1009D80080B483B000AF78607B681B6818460C371A
:1009E800BD465DF8047B704780B582B000AF786083
:1009F80039603B68002B0AD14FF0B0431846FFF727
:100A080085FE072301220121FFF7A0FE20E03B68B5
:100A1800012B08D11048FFF779FE07230122012195
:100A2800FFF794FE14E03B68022B11D14FF0B0435E
:100A38001846FFF76BFE072301220121FFF786FE08
:100A48000548FFF763FE072301220121FFF77EFE19
:100A580000BF0837BD4680BD0400005880B584B08B
:100A680000AFF860B9607A6007F10C031846FFF729
:100A7800AFFF03461A68B868796800FA01F10A43BB
:100A88001A6000BF1037BD4680BD80B483B000AF88
:100A980078607B6818460C37BD465DF8047B704764
:100AA80080B582B000AF7860786800F005F803463A
:100AB80018460837BD4680BD80B483B000AF786063
:100AC8007B6818460C37BD465DF8047B704700000C
:100AD80080B582B000AF7860084611461A460346D2
:100AE800FB700B46BB7013467B701848FFF70EFE71
:100AF800FB781A02BB781B011A437B781343002248
:100B0800194600F039F81248FFF700FE3B7C1A013D
:100B18003B7D1B0213430022194600F02DF80D48B7
:100B2800FFF7F4FD3B7E1B010022194600F024F874
:100B38000948FFF7EBFD3A7F00230321FFF706FE84
:100B48007B6818460837BD4680BD00BF1844025868
:100B58001C440258204402581044025880B582B000
:100B680000AF78603B1D1846FFF732FF03461B684D
:100B780018460837BD4680BD90B585B000AFF8600F
:100B8800B9607A60BA687B6802FA03F31C4607F119
:100B98000C031846FFF71CFF03461C6000BF143700
:100BA800BD4690BD80B483B000AF7860002318467E
:100BB8000C37BD465DF8047B70470000B0B584B0C3
:100BC80000AF78600B46FB701346BB701E4BBB60D2
:100BD8001D48FFF79BFD034600221C49184600F0FC
:100BE8006DF81B4BFB601A48FFF790FD0346032284
:100BF8000021184600F062F81648FFF787FD044602
:100C08007868FFF7CFFF0346DB00043301223F215A
:100C18002046FFF79BFD1048FFF778FD0546FB7857
:100C28009A00BB785B0042EA03047868FFF7BAFFD2
:100C380003469B0022460E212846FFF787FD7B6866
:100C480018461037BD46B0BD304402582804040287
:100C580034440258284402582C44025880B584B0C1
:100C680000AFF860B9607A6007F10C031846FFF727
:100C7800AFFE03461B68B9687A6801FA02F21A40A7
:100C88007B6822FA03F318461037BD4680BD80B54D
:100C980084B000AFF860B9607A6007F10C031846B9
:100CA800FFF796FE03461968B8687A6800FA02F2F8
:100CB8000A431A6000BF1037BD4680BD90B585B0A5
:100CC80000AFF860B9607A60BA687B6802FA03F42A
:100CD80007F10C031846FFF77BFE03461C6000BFB4
:100CE8001437BD4690BD000090B583B000AF786062
:100CF800094B1846FFF70AFD04467868FFF752FFCC
:100D080003460C335B001A4601212046FFF7A6FE76
:100D180000BF0C37BD4690BD0044025890B583B063
:100D280000AF78600C4B1846FFF7F0FC0446786873
:100D3800FFF738FF03465B0019331A4601212046A6
:100D4800FFF78CFF0346002B14BF01230023DBB2FF
:100D580018460C37BD4690BD0044025890B585B082
:100D680000AFF860B9607A60BA687B6802FA03F489
:100D780007F10C031846FFF72BFE03461C6000BF63
:100D88001437BD4690BD00000D488546FFF7FCFAB4
:100D98000C480D490D4A002302E0D458C4500433CE
:100DA800C4188C42F9D30A4A0A4C002301E01360A4
:100DB8000432A242FBD300F025F8FFF719FBFEE747
:100DC800000008240000002468000024881400089B
:100DD80068000024AC000024FEE7000008B5074BBB
:100DE800044613B10021AFF30080054B1868836AED
:100DF80003B19847204600F0C1FA00BF0000000088
:100E08003C14000870B50D4D0D4C641BA410002651
:100E1800A64209D10B4D0C4C00F0B4FA641BA41087
:100E28000026A64205D170BD55F8043B9847013607
:100E3800EEE755F8043B98470136F2E778140008C6
:100E48007814000878140008841400080244034643
:100E5800934200D1704703F8011BF9E7034B1A6866
:100E680012B9A2F576021A60704700BF8C00002400
:100E780000B5104B8DB06A4603F128061546186870
:100E88005968144603C40833B3422246F7D1186898
:100E98001B79237120602846FFF7D8FB29460246B4
:100EA800022000F00DF8062000F008F97F2000F07D
:100EB80065FA00BF4014000808B5FFF7D9FF000025
:100EC80013460A4601460248006800F003B800BF0E
:100ED8000400002438B5074D044608461146002290
:100EE8002A601A4600F042FA431C02D12B6803B16B
:100EF800236038BD9000002438B50C4609680546C3
:100F080009B1FFF7F9FF21462846BDE8384000F04F
:100F180007B900002C4B1B68834270B5044651D0BA
:100F2800436A43B1DB68002B4AD1636A196811B17F
:100F3800204600F0F5F8616911B1204600F0F0F89C
:100F4800616A11B1204600F0EBF8A16B11B120469F
:100F580000F0E6F8E16B11B1204600F0E1F8216CF1
:100F680011B1204600F0DCF8E16D11B1204600F027
:100F7800D7F8A16D11B1204600F0D2F8616B11B11C
:100F8800204600F0CDF8A369E3B1A36A204698474C
:100F9800A16CB9B12046BDE87040FFF7ADBF495913
:100FA80041B90435636A802DD968F8D1204600F02C
:100FB800B7F8BAE70E68204600F0B2F83146EFE716
:100FC8000025EFE770BD00BF0400002438B5456C6C
:100FD800044655B9802100F00FF9606438B1031F49
:100FE8007C3043F8045F8342FBD1002038BD4FF0CA
:100FF800FF30FBE71F2970B504460D46164604D995
:10100800162303604FF0FF3006E0436C2BB1636C8E
:1010180053F8250043F8256070BDFFF7D7FF002877
:10102800F5D0EFE71F2938B504460D4604D9162335
:1010380003604FF0FF3038BD426C12B152F82130D6
:101048004BB9204600F06AF82A4601462046BDE81A
:10105800384000F051B8012B0AD0591C03D116238F
:1010680003600120E7E7002442F825402846984716
:101078000020E0E71F2938B504460D4602D94FF095
:10108800FF3038BD436C2BB1626C52F8253033B950
:101098000120F6E7FFF79AFF0028F5D0EFE7591C83
:1010A80008D0012B08D00024284642F8254098474C
:1010B8002046E6E70220E4E70320E2E7024B014688
:1010C8001868FFF7AFBF00BF04000024024B0A46B0
:1010D80001461868FFF78EBF04000024014B18680A
:1010E800FFF774BF04000024024B01461868FFF79D
:1010F800C1BF00BF0400002438B5074D00230446D3
:10110800084611462B6000F01BF9431C02D12B68DE
:1011180003B1236038BD00BF9000002400F008B977
:1011280037B5002944D051F8043C0190002BA1F1B7
:101138000404B8BFE41800F0E3F81E4A01981368E5
:1011480033B96360146003B0BDE8304000F0DEB826
:10115800A34208D9256861198B4201BF19685B68E9
:1011680049192160EDE71A465B680BB1A342FAD929
:1011780011685518A5420BD1246821445418A3427C
:101188001160E0D11C685B68536021441160DAE7A4
:1011980002D90C230360D6E7256861198B4204BF86
:1011A80019685B68636004BF491921605460CAE725
:1011B80003B030BD9400002470B50E4E0C46316863
:1011C800054611B900F08CF830602146284600F039
:1011D80087F8431C0AD0C41C24F00304A04207D09B
:1011E800211A284600F07CF8013001D14FF0FF3475
:1011F800204670BD980000242DE9F041CD1C25F053
:10120800030508350C2D38BF0C25002D074601DBDA
:10121800A94205D90C233B6000263046BDE8F08181
:101228002E4E00F06DF833681C4634BB294638460C
:10123800FFF7C2FF431C04464DD134682646002EF2
:1012480040D123683146384604EB030800F048F8DB
:1012580080453AD1216803356D1A25F00305083514
:101268000C2D38BF0C2529463846FFF7A5FF01305D
:101278002BD023682B4423600EE02268521B1ED417
:101288000B2A16D96119A342256018BF59606368F3
:1012980008BF316062514B60384604F10B0600F01C
:1012A80035F826F00706231DF21AB6D09B1BA3506B
:1012B800B3E76268A3420CBF32605A60ECE723468A
:1012C8006468B2E734467668B9E70C233B60384671
:1012D80000F01CF8A1E72560DEE700BF94000024B9
:1012E80038B5064D0023044608462B6000F030F858
:1012F800431C02D12B6803B1236038BD9000002441
:10130800014800F00EB800BFA1000024014800F019
:101318000EB800BFA100002470477047704770479F
:101328007047704701207047012070477047704729
:10133800024B58221A604FF0FF307047900000248B
:10134800024B58221A604FF0FF307047900000247B
:10135800044A05491368002B08BF0B46184410605F
:1013680018467047A8000024B0000024024B5822F9
:101378001A604FF0FF30704790000024FEE700BF6E
:1013880000000000F8B500BFF8BC08BC9E467047D6
:0C139800F8B500BFF8BC08BC9E467047CA
:1013A4003B3E0B3E103E253E333E033E063E143E7E
:1013B4000E3E0D3E243E123E273E023E183E093E9E
:1013C4000A3E0000010000003F000000040000008D
:1013D4000002000002000000800000000100000084
:1013E40080000000010000008000000001000000F7
:1013F4003F000000040000000002000002000000A2
:1014040080000000010000008000000001000000D6
:10141400800000003B3E0B3E103E253E333E033E23
:10142400063E143E0E3E0D3E243E123E273E023E34
:10143400183E093E0A3E0000080000242A2A2A20F9
:10144400737461636B20736D617368696E67206484
:1014540065746563746564202A2A2A3A2074657267
:0C1464006D696E617465640A0000000090
:0814700068EEFF7F010000009F
:0C147800BD0200089D040008650E00087D
:0414840099020008C1
:101488000000000008000024000000000000000028
:101498000000000000000000000000000000000044
:1014A8000000000000000000000000000000000034
:1014B8000000000000000000000000000000000024
:1014C8000000000000000000000000000000000014
:1014D8000000000000000000000000000000000004
:0814E8000000000000000000FC
:0400000508000D9151
:00000001FF
