:020000040800F2
:10000000000008245D120008F10300083F04000806
:10001000AD120008AD120008AD120008000000008B
:10002000000000000000000000000000AD12000809
:10003000AD12000800000000AD120008E503000842
:10004000AD120008AD120008AD120008AD12000894
:10005000AD120008AD120008AD120008AD12000884
:10006000AD120008AD120008AD120008AD12000874
:10007000AD120008AD120008AD120008AD12000864
:10008000AD120008AD120008AD120008AD12000854
:10009000AD120008AD120008AD120008AD12000844
:1000A000AD120008AD120008AD120008AD12000834
:1000B000AD120008AD120008AD120008AD12000824
:1000C000AD120008AD120008AD120008AD12000814
:1000D000AD120008AD120008AD120008AD12000804
:1000E000AD120008AD12000800000000AD120008BB
:1000F000AD120008AD120008AD120008AD120008E4
:10010000AD120008AD120008AD120008AD120008D3
:10011000AD120008AD120008AD120008AD120008C3
:10012000AD120008AD120008AD120008AD120008B3
:10013000AD120008AD120008AD120008AD120008A3
:1001400000000000000000000000000000000000AF
:10015000AD120008AD120008AD120008AD12000883
:10016000AD120008AD120008AD120008AD12000873
:10017000AD120008AD120008AD120008AD12000863
:10018000AD12000800000000AD120008AD1200081A
:10019000AD120008AD120008AD120008AD12000843
:1001A000AD120008AD120008AD120008AD12000833
:1001B000AD120008AD120008AD120008AD12000823
:1001C000AD120008AD120008AD120008AD12000813
:1001D000AD120008AD120008AD120008AD12000803
:1001E000AD120008AD120008AD120008AD120008F3
:1001F000AD120008AD120008AD120008AD120008E3
:10020000AD120008AD120008AD120008AD120008D2
:10021000AD120008AD120008AD120008AD120008C2
:10022000AD120008AD120008AD1200080000000079
:10023000AD120008AD12000800000000AD12000869
:10024000AD120008AD120008AD120008AD12000892
:10025000AD120008AD120008AD120008AD12000882
:10026000AD120008AD120008AD120008AD12000872
:10027000AD120008AD120008AD120008AD12000862
:10028000AD12000800000000AD12000800000000E0
:0802900000000000AD1200089F
:1002980010B5054C237833B9044B13B10448AFF3B8
:1002A80000800123237010BD6C00002400000000B2
:1002B8004418000808B5034B1BB103490348AFF3C2
:1002C800008008BD000000007000002444180008E9
:1002D800A3F5803A704700BF174B002B08BF134B9C
:1002E8009D46FFF7F5FF00218B460F461348144A39
:1002F800121A01F011F80E4B002B00D098470D4B45
:10030800002B00D098470020002104000D000D4864
:10031800002802D00C48AFF3008000F0D9FF20007D
:10032800290000F03FF800F0BFFF00BF0000080000
:100338000000000000000000000000006C00002425
:10034800BC000024000000000000000080B582B05E
:1003580000AF0346FB71064800F072FBFA790023F0
:10036800032100F0B2FB00BF0837BD4680BD00BFC7
:100378002844025880B500AF094800F061FB0346E5
:1003880000224FF47001184600F097FD00F0B2F813
:100398004FF4417140F2023000F0A6FD00BF80BD6D
:1003A80088ED00E080B500AF4FF001004FF000018C
:1003B80000F061F90346184600F0CEF94FF06400EA
:1003C8004FF0000100F057F90346184600F028FAEC
:1003D800014800F09DFDF1E78800002480B500AFDA
:1003E80000F056FA00BF80BD80B500AF0A4800F0A3
:1003F80027FB034600224FF48061184600F006FBF5
:100408000346002B14BF01230023DBB2002B00D0CE
:10041800FEE700BF80BD00BF6444025880B485B0C9
:1004280000AFF860B9607A60002318461437BD46FB
:100438005DF8047B704780B400AF72B600BF00BEA1
:1004480000BFBD465DF8047B704780B584B002AF3D
:10045800786039607B68012B24D13B684FF6FF72C6
:1004680093421FD1002300930023002201210F484B
:1004780000F01CFA002300930023002201210C48FD
:1004880000F040FA002300930023002201210948CC
:1004980000F064FA0023009300230022012106489B
:1004A80000F088FA00BF0837BD4680BD88000024E8
:1004B8008C000024900000249400002480B500AF34
:1004C8004FF6FF710120FFF7C0FF80BD80B582B0F5
:1004D80000AF0346FB71064800F0B2FAFA79002330
:1004E800032100F0F2FA00BF0837BD4680BD00BF07
:1004F8002844025880B588B004AF4A4B1B68FB609B
:100508004FF00003484800F09BFA03460E220321EF
:10051800184600F016FB454B184600F091FA0346C2
:1005280000224FF40021184600F0C7FC3F4B184644
:1005380000F086FA034600224FF48031184600F096
:10054800BCFC3A4B184600F07BFA0346184600F00C
:10055800B7FD034603F40033002B0CBF012300232F
:10056800DBB2002B00D0ECE73423BB60304B1846DD
:1005780000F066FA034600223421184600F0CCFA4F
:100588002B4B184600F05CFA0346184600F098FD1D
:100598000346342B14BF01230023DBB2002B00D009
:1005A800EEE70220FFF792FF3B46002203211846A0
:1005B80000F0A0FD3B46184600F012FE3B461846E8
:1005C80000F028FE034683F00103DBB2002B00D0C5
:1005D800F4E7381D032303930423029304230193B0
:1005E8000423009308230422002100F00DFD3B1D85
:1005F800184600F04FFD0346032B14BF01230023C8
:10060800DBB2002B00D0F2E700BF064B1A68FB688C
:100618005A404FF0000301D000F090FE1037BD465D
:1006280080BD00BF9C0000241848025800440258AE
:1006380000200052A4190008000000246C000024C7
:100648006C000024BC000024034613F8012B002A88
:10065800FBD1181A0138704780B483B000AF7860B6
:100668007B684FF47A7202FB03F318460C37BD46D9
:100678005DF8047B704780B582B000AFC7E9000120
:100688003B681846FFF7E8FF034618460837BD469B
:1006980080BD80B483B000AF786039607B681A6829
:1006A8003B68134418460C37BD465DF8047B704719
:1006B80080B483B000AF78607B681B6818460C373D
:1006C800BD465DF8047B704780B582B000AF7860A6
:1006D8007B681B68054AB2FBF3F3184600F030F854
:1006E800034618460837BD4680BD00BF40420F008C
:1006F80080B584B000AF0346FB80FB881B0A9BB221
:1007080019460D4800F0BCF903461B78FB73FA7BC9
:100718000A4B13441A68FB88DBB2012101FA03F380
:100728001846F97B054B0B44194642EA00030B6057
:1007380000BF1037BD4680BDD018000800440258DD
:1007480080B483B000AF78607B6818460C37BD462C
:100758005DF8047B7047000090B587B000AF786003
:10076800214B1B687B614FF00003204A7B681360B4
:100778001F48FFF79DFF04461C48FFF7A5FF0346E7
:10078800FB6007F10C031846FFF792FF0346B4FB22
:10079800F3F3013B3B61174800F052F9034600228E
:1007A8000021184600F07BF9134800F049F9034688
:1007B80000223969184600F0AFF9104B184600F0CE
:1007C8003FF9034600220721184600F0BAF900BF96
:1007D800054B1A687B695A404FF0000301D000F0BE
:1007E800ADFD1C37BD4690BD9C00002404000024CC
:1007F800A418000818E000E014E000E010E000E0B1
:1008080080B500AF044B1B68044A1946106800F015
:10081800AFF90346184680BD980000240400002460
:1008280090B585B000AF7860164B1B68FB604FF041
:100838000003154B1B68154A1946106800F098F913
:100848000346BB60FFF7DCFF044607F1080379683D
:100858001846FFF71EFF03461946204600F097F991
:100868000346002B00D0EDE700BF064B1A68FB6873
:100878005A404FF0000301D000F060FD1437BD4628
:1008880090BD00BF9C0000249800002404000024B0
:1008980080B400AF044B1B680133034A136000BFE8
:1008A800BD465DF8047B70479800002480B582B08F
:1008B80000AF7860084611461A460346FB700B469F
:1008C800BB7013467B707B680D4A1A60FB7819462B
:1008D800786800F06EF93B7C1946786800F08BF96F
:1008E8007B781946786800F09BF9BB7819467868D8
:1008F80000F0ABF97B6818460837BD4680BD00BFDD
:100908000010025880B582B000AF786008461146E2
:100918001A460346FB700B46BB7013467B707B6818
:100928000D4A1A60FB781946786800F0A3F93B7CF9
:100938001946786800F0C0F97B781946786800F0A5
:10094800D0F9BB781946786800F0E0F97B6818465A
:100958000837BD4680BD00BF0010025880B582B080
:1009680000AF7860084611461A460346FB700B46EE
:10097800BB7013467B707B680D4A1A60FB7819467A
:10098800786800F0D8F93B7C1946786800F0F5F9EA
:100998007B781946786800F005FABB7819467868BC
:1009A80000F015FA7B6818460837BD4680BD00BFC1
:1009B8000010025880B582B000AF78600846114632
:1009C8001A460346FB700B46BB7013467B707B6868
:1009D8000D4A1A60FB781946786800F00DFA3B7CDE
:1009E8001946786800F02AFA7B781946786800F08A
:1009F8003AFABB781946786800F04AFA7B681846D4
:100A08000837BD4680BD00BF0010025880B584B0CD
:100A180000AFF860B9607A6007F10C03184600F07F
:100A28008BFA03461A68B9687B6801FA03F31A401F
:100A38007B6822FA03F318461037BD4680BD0000D4
:100A480080B584B000AF78600C4B1B68FB604FF03A
:100A5800000307F108037968184600F079FABB68C3
:100A6800064A1168FA6851404FF0000201D000F0C0
:100A780065FC18461037BD4680BD00BF9C000024A9
:100A880080B582B000AF786039607B6839681846F5
:100A980000F072FA034618460837BD4680BD90B587
:100AA80085B000AFF860B9607A60BA687B6802FA0E
:100AB80003F31C4607F10C03184600F03DFA034601
:100AC8001C6000BF1437BD4690BD90B585B000AF1F
:100AD800F860B9607A603B6007F10C03184600F0D3
:100AE8002BFA03461B68B9683A6801FA02F2D24346
:100AF80013407968BA6811403A6801FA02F243EA89
:100B0800020407F10C03184600F016FA03461C60AD
:100B180000BF1437BD4690BD90B585B000AFF860F2
:100B2800B9607A60BA687B6802FA03F407F10C03CB
:100B3800184600F001FA03461C6000BF1437BD4692
:100B480090BD80B584B000AFF860B9607A6007F1F5
:100B58000C03184600F0F0F903461A68B86879687B
:100B680000FA01F10A431A6000BF1037BD4680BD84
:100B780080B483B000AF786039607B683A6802FB64
:100B880003F318460C37BD465DF8047B704780B404
:100B980083B000AF786039607A683B689A4234BFA6
:100BA80001230023DBB218460C37BD465DF8047BF1
:100BB800704780B582B000AF78600B46FB707B68E9
:100BC8001B681846FFF73CFFFA7814230321FFF748
:100BD8007CFF7B681B6824331846FFF731FFFB78DE
:100BE8001B09DBB21A4608230F21FFF76EFF00BF6F
:100BF8000837BD4680BD80B582B000AF78600B462F
:100C0800FB707B681B6808331846FFF719FFFA78F2
:100C180014230321FFF759FF00BF0837BD4680BDE5
:100C280080B582B000AF78600B46FB707B681B68AC
:100C38000C331846FFF704FFFA7814230321FFF753
:100C480044FF00BF0837BD4680BD80B582B000AF05
:100C580078600B46FB707B681B6804331846FFF707
:100C6800EFFEFA780A230121FFF72FFF00BF0837AC
:100C7800BD4680BD80B582B000AF78600B46FB7082
:100C88007B681B681846FFF7DBFEFA7818230321F8
:100C9800FFF71BFF7B681B6824331846FFF7D0FE5D
:100CA800FB781B09DBB21A4610230F21FFF70DFF53
:100CB80000BF0837BD4680BD80B582B000AF786000
:100CC8000B46FB707B681B6808331846FFF7B8FEB5
:100CD800FA7818230321FFF7F8FE00BF0837BD464E
:100CE80080BD80B582B000AF78600B46FB707B6832
:100CF8001B680C331846FFF7A3FEFA781823032164
:100D0800FFF7E3FE00BF0837BD4680BD80B582B05F
:100D180000AF78600B46FB707B681B68043318468D
:100D2800FFF78EFEFA780C230121FFF7CEFE00BFF5
:100D38000837BD4680BD80B582B000AF78600B46ED
:100D4800FB707B681B681846FFF77AFEFA781C234D
:100D58000321FFF7BAFE7B681B6824331846FFF7A8
:100D68006FFEFB781B09DBB21A4618230F21FFF729
:100D7800ACFE00BF0837BD4680BD80B582B000AF6D
:100D880078600B46FB707B681B6808331846FFF7D2
:100D980057FEFA781C230321FFF797FE00BF083798
:100DA800BD4680BD80B582B000AF78600B46FB7051
:100DB8007B681B680C331846FFF742FEFA781C2341
:100DC8000321FFF782FE00BF0837BD4680BD80B50E
:100DD80082B000AF78600B46FB707B681B680433F9
:100DE8001846FFF72DFEFA780E230121FFF76DFE56
:100DF80000BF0837BD4680BD80B582B000AF7860BF
:100E08000B46FB707B681B681846FFF719FEFA78DB
:100E18001E230321FFF759FE7B681B6824331846FD
:100E2800FFF70EFEFB781B09DBB21A461C230F21C5
:100E3800FFF74BFE00BF0837BD4680BD80B582B0C6
:100E480000AF78600B46FB707B681B680833184658
:100E5800FFF7F6FDFA781E230321FFF736FE00BFE1
:100E68000837BD4680BD80B582B000AF78600B46BC
:100E7800FB707B681B680C331846FFF7E1FDFA78B6
:100E88001E230321FFF721FE00BF0837BD4680BDA2
:100E980080B582B000AF78600B46FB707B681B683A
:100EA80004331846FFF7CCFDFA780F230121FFF72A
:100EB8000CFE00BF0837BD4680BD80B584B000AFCA
:100EC800F860B9607A6007F10C03184600F034F84E
:100ED80003461968B8687A6800FA02F20A431A6089
:100EE80000BF1037BD4680BD80B582B000AF034655
:100EF8000A46FB801346BB80FB881846FFF7F8FBC1
:100F0800BB881846FFF7F4FB00BF0837BD4680BD15
:100F180080B582B000AF78607B681B6814331846D0
:100F2800FFF78EFD03460A220121184600F032F829
:100F380000BF0837BD4680BD80B483B000AF78607D
:100F48007B681B6818460C37BD465DF8047B704704
:100F580080B582B000AF78603960386800F031F849
:100F68000346184600F038F802467B681A607B682A
:100F780018460837BD4680BD80B483B000AF78609E
:100F880039607A683B68134418460C37BD465DF8EB
:100F9800047B704780B584B000AFF860B9607A60B0
:100FA80007F10C031846FFF7C7FF03461A68B8682D
:100FB800796800FA01F14A401A6000BF1037BD464F
:100FC80080BD80B483B000AF78607B6818460C376A
:100FD800BD465DF8047B704780B582B000AF78608D
:100FE800786800F005F8034618460837BD4680BD06
:100FF80080B483B000AF78607B6818460C37BD4674
:101008005DF8047B7047000080B582B000AF78605F
:10101800084611461A460346FB700B46BB7013463A
:101028007B701848FFF70CFDFB781A02BB781B0190
:101038001A437B78134300221946FFF730FD124804
:10104800FFF7FEFC3B7C1A013B7D1B021343002289
:101058001946FFF724FD0D48FFF7F2FC3B7E1B0104
:1010680000221946FFF71BFD0948FFF7E9FC3A7F04
:1010780000230321FFF729FD7B6818460837BD4682
:1010880080BD00BF184402581C440258204402582E
:101098001044025880B582B000AF78600748FFF767
:1010A800CFFC034603220721184600F06BF80346DD
:1010B800DBB218460837BD4680BD00BF1044025851
:1010C80080B582B000AF78603B1D1846FFF734FF4B
:1010D80003461B6818460837BD4680BD80B483B0F8
:1010E80000AF7860002318460C37BD465DF8047BD6
:1010F80070470000B0B584B000AF78600B46FB7055
:101108001346BB701A4BBB601A4BFB601A48FFF7BB
:1011180097FC04467868FFF7E1FF0346DB000433D9
:1011280003223F212046FFF7D0FC1448FFF788FC34
:101138000546FB789A00BB785B0042EA03047868AE
:10114800FFF7CCFF03469B0022460E212846FFF7F7
:10115800BCFC0748FFF774FC034600220849184600
:1011680000F029F87B6818461037BD46B0BD00BFAF
:101178003044025834440258284402582C44025837
:1011880031020F0180B584B000AFF860B9607A60B1
:1011980007F10C031846FFF7CFFE03461B68B96832
:1011A8007A6801FA02F21A407B6822FA03F31846B9
:1011B8001037BD4680BD90B585B000AFF860B96006
:1011C8007A60BA687B6802FA03F407F10C031846E0
:1011D800FFF7B2FE03461C6000BF1437BD4690BD42
:1011E80090B583B000AF7860094B1846FFF728FC2C
:1011F80004467868FFF772FF03460C335B001A4613
:1012080001212046FFF79DFC00BF0C37BD4690BD6D
:101218000044025890B583B000AF78600C4B184674
:10122800FFF70EFC04467868FFF758FF03465B009B
:1012380019331A4601212046FFF7A4FF0346002B65
:1012480014BF01230023DBB218460C37BD4690BDFE
:10125800004402580D488546FFF78CF80C480D49A4
:101268000D4A002302E0D458C4500433C4188C42F9
:10127800F9D30A4A0A4C002301E013600432A2425F
:10128800FBD300F025F8FFF78DF8FEE700000824EF
:10129800000000246C000024A41900086C0000243D
:1012A800BC000024FEE7000008B5074B044613B154
:1012B8000021AFF30080054B1868836A03B1984793
:1012C800204600F0B9FA00BF0000000058190008D5
:1012D80070B50D4D0D4C641BA4100026A64209D113
:1012E8000B4D0C4C00F0ACFA641BA4100026A6426F
:1012F80005D170BD55F8043B98470136EEE755F81F
:10130800043B98470136F2E794190008941900083D
:1013180094190008A019000802440346934200D11A
:10132800704703F8011BF9E7034B1A6812B9A2F5D5
:1013380076021A60704700BF9C00002400B5104B6D
:101348008DB06A4603F12806154618685968144690
:1013580003C40833B3422246F7D118681B792371B6
:1013680020602846FFF770F929460246022000F05F
:101378000DF8062000F008F97F2000F05DFA00BFA4
:101388005C19000808B5FFF7D9FF000013460A46A4
:1013980001460248006800F003B800BF08000024B6
:1013A80038B5074D04460846114600222A601A46F9
:1013B800FFF734F8431C02D12B6803B1236038BD12
:1013C800A000002438B50C460968054609B1FFF7A6
:1013D800F9FF21462846BDE8384000F007B900006B
:1013E8002C4B1B68834270B5044651D0436A43B105
:1013F800DB68002B4AD1636A196811B1204600F0F6
:10140800F5F8616911B1204600F0F0F8616A11B190
:10141800204600F0EBF8A16B11B1204600F0E6F889
:10142800E16B11B1204600F0E1F8216C11B12046C2
:1014380000F0DCF8E16D11B1204600F0D7F8A16D9D
:1014480011B1204600F0D2F8616B11B1204600F0CE
:10145800CDF8A369E3B1A36A20469847A16CB9B156
:101468002046BDE87040FFF7ADBF495941B9043582
:10147800636A802DD968F8D1204600F0B7F8BAE73A
:101488000E68204600F0B2F83146EFE70025EFE796
:1014980070BD00BF0800002438B5456C044655B936
:1014A800802100F00FF9606438B1031F7C3043F8E5
:1014B800045F8342FBD1002038BD4FF0FF30FBE7CB
:1014C8001F2970B504460D46164604D91623036035
:1014D8004FF0FF3006E0436C2BB1636C53F82500E6
:1014E80043F8256070BDFFF7D7FF0028F5D0EFE778
:1014F8001F2938B504460D4604D9162303604FF05A
:10150800FF3038BD426C12B152F821304BB9204639
:1015180000F06AF82A4601462046BDE8384000F047
:1015280051B8012B0AD0591C03D11623036001209E
:10153800E7E7002442F82540284698470020E0E7DE
:101548001F2938B504460D4602D94FF0FF3038BD83
:10155800436C2BB1626C52F8253033B90120F6E7A1
:10156800FFF79AFF0028F5D0EFE7591C08D0012BA8
:1015780008D00024284642F8254098472046E6E748
:101588000220E4E70320E2E7024B01461868FFF770
:10159800AFBF00BF08000024024B0A460146186886
:1015A800FFF78EBF08000024014B1868FFF774BFCF
:1015B80008000024024B01461868FFF7C1BF00BFAE
:1015C8000800002438B5074D002304460846114694
:1015D8002B6000F01BF9431C02D12B6803B1236078
:1015E80038BD00BFA000002400F008B937B50029B5
:1015F80044D051F8043C0190002BA1F10404B8BF79
:10160800E41800F0E3F81E4A0198136833B96360E0
:10161800146003B0BDE8304000F0DEB8A34208D93A
:10162800256861198B4201BF19685B6849192160F7
:10163800EDE71A465B680BB1A342FAD91168551851
:10164800A5420BD1246821445418A3421160E0D16B
:101658001C685B68536021441160DAE702D90C23E7
:101668000360D6E7256861198B4204BF19685B6877
:10167800636004BF491921605460CAE703B030BDF4
:10168800A400002470B50E4E0C463168054611B909
:1016980000F08CF830602146284600F087F8431C9B
:1016A8000AD0C41C24F00304A04207D0211A2846FB
:1016B80000F07CF8013001D14FF0FF34204670BDB6
:1016C800A80000242DE9F041CD1C25F003050835BC
:1016D8000C2D38BF0C25002D074601DBA94205D982
:1016E8000C233B6000263046BDE8F0812E4E00F00A
:1016F8006DF833681C4634BB29463846FFF7C2FFED
:10170800431C04464DD134682646002E40D1236838
:101718003146384604EB030800F048F880453AD1D2
:10172800216803356D1A25F0030508350C2D38BFDF
:101738000C2529463846FFF7A5FF01302BD0236832
:101748002B4423600EE02268521B1ED40B2A16D9A4
:101758006119A342256018BF5960636808BF3160EA
:1017680062514B60384604F10B0600F035F826F05C
:101778000706231DF21AB6D09B1BA350B3E7626875
:10178800A3420CBF32605A60ECE723466468B2E7B4
:1017980034467668B9E70C233B60384600F01CF8FD
:1017A800A1E72560DEE700BFA400002438B5064D98
:1017B8000023044608462B6000F030F8431C02D191
:1017C8002B6803B1236038BDA0000024014800F055
:1017D8000EB800BFB1000024014800F00EB800BFE9
:1017E800B1000024704770477047704770477047D2
:1017F800012070470120704770477047024B5822FC
:101808001A604FF0FF307047A0000024024B5822A6
:101818001A604FF0FF307047A0000024044A0549C1
:101828001368002B08BF0B46184410601846704711
:10183800B8000024C0000024FEE700BF000000003C
:10184800F8B500BFF8BC08BC9E467047F8B500BFA5
:08185800F8BC08BC9E46704775
:101860003B3E0B3E103E253E333E033E063E143EBD
:101870000E3E0D3E243E123E273E023E183E093EDD
:101880000A3E00000100000001000000010000000D
:10189000006CDC020090D00300093D0000800000D5
:1018A000007D00000084D717010000003F00000009
:1018B00004000000000200000200000080000000A0
:1018C0000100000080000000010000008000000016
:1018D000D4D8DCE0E4E8ECF0F40000000100000003
:1018E0000100000001000000006CDC020090D00349
:1018F00000093D0000800000007D00000084D71733
:10190000010000003F000000040000000002000091
:1019100002000000800000000100000080000000C4
:101920000100000080000000D4D8DCE0E4E8ECF026
:10193000F40000003B3E0B3E103E253E333E033E8E
:10194000063E143E0E3E0D3E243E123E273E023E13
:10195000183E093E0A3E00000C0000242A2A2A20D4
:10196000737461636B20736D617368696E67206463
:1019700065746563746564202A2A2A3A2074657246
:0C1980006D696E617465640A000000006F
:08198C004CE9FF7F010000009F
:0C199400BD020008C50400083113000863
:0419A00099020008A0
:1019A40000000000E80300000C0000240000000018
:1019B4000000000000000000000000000000000023
:1019C4000000000000000000000000000000000013
:1019D4000000000000000000000000000000000003
:1019E40000000000000000000000000000000000F3
:1019F40000000000000000000000000000000000E3
:0C1A0400000000000000000000000000D6
:040000050800125D80
:00000001FF
