:020000040800F2
:10000000000005244D0500089D0500089D0300081B
:100010009D0500089D0500089D05000800000000E2
:100020000000000000000000000000009D05000826
:100030009D050008000000009D0500089D050008C2
:100040009D0500089D0500089D0500089D05000808
:100050009D0500089D0500089D0500089D050008F8
:100060009D0500089D0500089D0500089D050008E8
:100070009D0500089D0500089D0500089D050008D8
:100080009D0500089D0500089D0500089D050008C8
:100090009D0500089D0500089D0500089D050008B8
:1000A0009D0500089D0500089D0500089D050008A8
:1000B0009D0500089D0500089D0500089D05000898
:1000C0009D0500089D0500089D0500089D05000888
:1000D0009D0500089D0500089D0500089D05000878
:1000E0009D0500089D050008000000009D05000812
:1000F0009D0500089D0500089D0500089D05000858
:100100009D0500089D0500089D0500089D05000847
:100110009D0500089D0500089D0500089D05000837
:100120009D0500089D0500089D0500089D05000827
:100130009D0500089D0500089D0500089D05000817
:1001400000000000000000000000000000000000AF
:100150009D0500089D0500089D0500089D050008F7
:100160009D0500089D05000800000000000000003B
:1001700000000000000000009D05000800000000D5
:1001800000000000000000009D0500089D0500081B
:100190009D0500089D0500089D0500089D050008B7
:1001A0009D0500089D0500089D0500080000000051
:1001B0009D0500089D0500089D0500089D05000897
:1001C0009D0500089D0500080000000000000000DB
:1001D00000000000000000009D0500080000000075
:1001E000000000000000000000000000000000000F
:1001F00000000000000000009D0500089D050008AB
:100200009D0500089D050008000000009D050008F0
:100210009D0500089D0500089D0500089D05000836
:100220009D050008000000009D050008000000007A
:100230009D0500089D050008000000009D050008C0
:100240009D0500089D0500089D0500089D05000806
:100250009D0500089D0500089D0500089D050008F6
:100260009D0500089D0500089D0500089D050008E6
:100270009D0500089D0500089D0500080000000080
:100280009D050008000000009D050008000000001A
:10029000000000009D0500089D050008000000000A
:1002A000000000009D0500089D05000800000000FA
:1002B0009D0500089D0500089D0500089D05000896
:0C02C0009D0500089D0500089D05000834
:1002CC0010B5054C237833B9044B13B10448AFF384
:1002DC0000800123237010BD680000240000000082
:1002EC002406000808B5034B1BB103490348AFF3C0
:1002FC00008008BD000000006C00002424060008EB
:10030C00A3F5803A704700BF174B002B08BF134B67
:10031C009D46FFF7F5FF00218B460F461348144A04
:10032C00121A00F06FF90E4B002B00D098470D4BB2
:10033C00002B00D098470020002104000D000D4830
:10034C00002802D00C48AFF3008000F037F92000F1
:10035C00290000F019F800F01DF900BF000008009A
:10036C0000000000000000000000000068000024F5
:10037C0084000024000000000000000080B500AFE5
:10038C0000F00EF800BF80BD80B400AF00BFFDE7E9
:10039C0080B400AF00BFBD465DF8047B7047000021
:1003AC0080B483B000AF5E4B1B685D4A43F0100312
:1003BC00136000237B605A4B1B6803F00403002B73
:1003CC000CBF01230023DAB2554B1B6803F020034A
:1003DC00002B0CBF01230023DBB21343DBB2002B39
:1003EC0014BF01230023DBB2002B10D07B684FF627
:1003FC006522934207DD4A4B1B68494A23F00103EF
:10040C001360012385E07B6801337B60D3E7444BA9
:10041C009B69434A43F048039361414BDB69404A73
:10042C0043F48863D3613E4B1B6A3D4A43F040035F
:10043C0013623B4BDB6A3A4A43F4803343F00C03C0
:10044C00D362374B374A1A63354B1B68344A43F037
:10045C008073136000237B60314B1B6803F00073C7
:10046C00002B0CBF01230023DBB2002B0FD07B68C9
:10047C00B3F57A5F07DB2A4B1B68294A23F080739C
:10048C001360012345E07B6801337B60E4E7264B76
:10049C001B68254A43F03303136000237B60224B17
:1004AC001B6803F03F03332B14BF01230023DBB283
:1004BC00002B0CD07B68B3F57A5F04DB1A4B25223A
:1004CC001A60012325E07B6801337B60E7E7144B5E
:1004DC001B69134A43F00303136100237B60104B29
:1004EC001B6903F03803182B14BF01230023DBB264
:1004FC00002B0DD07B68B3F57A5F05DB084B084AFF
:10050C001B691361012304E07B6801337B60E6E720
:10051C00002318460C37BD465DF8047B704700BFBE
:10052C00004402581D00010100200052AC060008D6
:10053C0000000024680000246800002484000024CB
:10054C000D488546FFF71AFF0C480D490D4A00234C
:10055C0002E0D458C4500433C4188C42F9D30A4A6C
:10056C000A4C002301E013600432A242FBD300F0DA
:10057C0025F8FFF709FFFEE7000005240000002422
:10058C0068000024AC0600086800002484000024E5
:10059C00FEE7000008B5074B044613B10021AFF38A
:1005AC000080054B1868836A03B19847204600F019
:1005BC0031F800BF000000009806000870B50D4D22
:1005CC000D4C641BA4100026A64209D10B4D0C4CFB
:1005DC0000F024F8641BA4100026A64205D170BDBF
:1005EC0055F8043B98470136EEE755F8043B98471D
:1005FC000136F2E7A4060008A4060008A4060008C9
:10060C00A806000802440346934200D1704703F841
:10061C00011BF9E7FEE700BF00000000F8B500BFC2
:10062C00F8BC08BC9E467047F8B500BFF8BC08BCC7
:04063C009E4670471F
:100640003B3E0B3E103E253E333E033E063E143EEF
:100650000E3E0D3E243E123E273E023E183E093E0F
:100660000A3E000066FA0000803E0000803E000066
:10067000803E00003B3E0B3E103E253E333E033E97
:10068000063E143E0E3E0D3E243E123E273E023EE6
:0C069000183E093E0A3E0000080000244D
:08069C0070FCFF7F010000006B
:0406A400F102000857
:0406A800CD02000877
:1006AC000000000008000024000000000000000012
:1006BC00000000000000000000000000000000002E
:1006CC00000000000000000000000000000000001E
:1006DC00000000000000000000000000000000000E
:1006EC0000000000000000000000000000000000FE
:1006FC0000000000000000000000000000000000EE
:08070C000000000000000000E5
:040000050800054D9D
:00000001FF
